:100000000C94A63A0C94D73A0C94D73A0C94D73A5D
:100010000C94D73A0D94E0650C94D73A0C94D73AE7
:100020000C94F36B0C94D73A0C94D73A0C94D73ABF
:100030000C947A570C94D73A0D9444290D94D122FC
:100040000C94D73A0D9446300C94D73A0C94D73A86
:100050000C94D73A0C94D73A0C94D73A0C94276B5B
:100060000C94D73A0C94F7530C94D73A0C94D73A93
:100070000C94D73A0C94EA8C0C94D73A0C94D73A57
:100080000C94D73A0C94D73A0C94D73A0C94D73AAC
:100090000C94B3530C94D73A0C94D73A0C94D73AA7
:1000A0000C94D73A0C94D73A0D94C31A0C94D73ABF
:1000B0000C94D73A0D94A51A0C94D73A0D948E2E21
:1000C0000C94D73A0C94D73A0C94D73A0D94651AFD
:1000D0000C94D73A0C94D73A0C94D73A0C94D73A5C
:1000E0000C94D73A084AD73B3BCE016E84BCBFFD87
:1000F000C12F3D6C74319ABD56833DDA3D00C77FF8
:1001000011BED9E4BB4C3E916BAAAABE0000008090
:100110003F05A84CCDB2D44EB93836A9020C50B91F
:10012000918688083CA6AAAA2ABE000000803F0744
:10013000634236B79BD8A71A39685618AEBAAB5582
:100140008C1D3CB7CC5763BD6DEDFD753EF6177247
:1001500031BF000000803F08000000BE9224491219
:100160003EABAAAA2ABECDCCCC4C3E00000080BE3D
:10017000ABAAAAAA3E00000000BF000000803F001A
:1001800000000000084178D3BB4387D1133D190E0E
:100190003CC3BD4282AD2B3E68EC8276BED98FE176
:1001A000A93E4C80EFFFBE01C4FF7F3F000000006E
:1001B00000000D943E790C94AAC90C94E9DC0D94CE
:1001C0001B140D94AC3C0C9468DB0C94B4CD0D94D2
:1001D00037160C94C1DC0D9410090C94F2C90C94E0
:1001E000D8DC0C94B5CA0C948EF60C9404C70C940D
:1001F00029C70D94BC210D942D0E0C94CAE50C94C6
:1002000005CA0C9421D10C94D1CA0D948F090C9479
:100210001FC70C947FE50D944D0E0C94BCF90C9403
:100220005AF30C946DE50D945B3C0C94CDC80D9481
:10023000E1A90D949B250D9474150C94CD6B0C9431
:10024000A7CB0C9437EA0D94A9210C94E9D50C9412
:10025000706D0C942BFA0C9404DF0C9415C70C945D
:10026000E6F30D94FF210D948B080C940C6A0C940A
:10027000D0EE0C9468F20C94DBC80D9479130C94B6
:10028000E2C80C948F6B0C94A2E50C9448DA0D94A0
:100290001C0E0D94FB170C94B86A0C947CCD0C9436
:1002A000606B0D946EA90C948AC90C946B6B0C94C2
:1002B000FAC70C9496D60C9494C90D94C60B0D9461
:1002C0008E190C94A9DB0C943EC90D945A220C94FF
:1002D000CDDC0C94AECA0C94A0F80D94BAAD0C947D
:1002E000796B0C94526F0D94CF3B0C94C6F90D941E
:1002F00051130D94B7B30D94F0150C940BC70C94D7
:10030000F6C60D94B4B30C9436C70C9404DB0C946D
:100310005ECD0D9497090D94D5A90D949DAD0C94C7
:1003200000C80D944F0A0D94F5140D9441220C94BD
:100330005FEF0C94B6E50D94490B0D94BDAD0C9494
:1003400015FA0C94F0CD0C943BFA0C941FC90C9444
:10035000DBC90D9483480C9447E50C94986B0D947D
:10036000AD090D94BC130C943CE00C948ACC0C9415
:1003700050C90C94B2DB0C94FDEE0C9482F90D94F0
:1003800020080C9449D10C9478F90C9454CC0D9419
:10039000D2A90D94C4B30C94AFDC0C9476C90C9420
:1003A00036DD0D9493090D948C3C0C943BC70C9452
:1003B00098EA0D94C43C0D94C0AD0D94F73B0D9498
:1003C000F00E0C94D6D10D94C90B0D94943C0D9461
:1003D000B43C0C94FEDA0D94FF170D949B150C940D
:1003E0003FC70C9489F20D9452B30D945BAD0C94FD
:1003F00043C70D94BBB30C948AF90D9489A90C944E
:10040000E7DC0C9493E50C947DDD0C9465E50D948C
:10041000D20B0C9411C70D948A140C94F1CF0D9447
:1004200077A90D94A43C0D94313C0C9478DB0C948A
:100430002BC90D9432220C949EC90C94B5DC0C94FB
:1004400008C70C94D0C90D94CC0B0C941EED0D94E0
:100450006C3C0D94B0060C9437C70C9467540C9404
:100460005BE50C9441DC0C945FC90C9415F90D9478
:10047000FE3B0C9468CD0C940DDF0C94E9CF0D94E9
:10048000643C0C94D4C80C94D4E50D94743C0D9445
:100490005E3C0D94B73B0C94B4C90D94EAA90C943E
:1004A000BB6B0C9442E50C9472CD0C942DC70C944C
:1004B000E9C80C94BBDC0C9414EE0C9489E50C9404
:1004C00051E50D9442AD0D94C00B0C94F7F90C94CA
:1004D00063CF0C941BC70C94F3F90C9452F90C9451
:1004E00075E50D94D80E0C9400C70C94CBD50D94E3
:1004F0007C3C0C9459CD0D94B0130D9487080D9449
:100500008B090D943D150C9438F70C9448C70C9446
:10051000DFD30C9423CC0D94D5180C94BEC90D9444
:10052000BC3C0C943AE50D94DE170C946BC90C940A
:10053000DEF90C94C3EB0D94843C0C9418CB0D9411
:10054000CD130C94466B0D9485090C9463CD0D94DA
:10055000B6060C943EDA0C9480EE0C946DCD0D949E
:10056000D81F0D94CFA90C9431C70D949C3C0C94CA
:10057000D1680D94013C0D944C140C9477CD0C94DF
:1005800052D10D943F130D94C30B0C9419D50D94B7
:10059000CF0B0C94ACE50C9456CE0C9471EC0C94EF
:1005A000FCC60C94D9C70D94D8A90D94F43B0D94B6
:1005B000C9B30C943BDD0D9498B30C9480C90D9491
:1005C000613C0C9480CD0C94EDF90D949F0D0C942E
:1005D00016DF0D94C6A90C94FBDE0C9423C70C9473
:1005E000C0E50D94171A0C9415C96E616E00696E02
:1005F000660000407A10F35A00A0724E18090010ED
:10060000A5D4E80000E87648170000E40B54020087
:1006100000CA9A3B000000E1F505000080969800B2
:10062000000040420F000000A086010000001027DB
:1006300000000000E803000000006400000000006B
:100640000A00000000000100000000002C76D8889D
:10065000DC674F0823DFC1DFAE59E1B1B796E5E3B0
:10066000E453C63AE651997696E8E6C28426EB89C9
:100670008C9B62ED407C6FFCEFBC9C9F40F2BAA566
:100680006FA5F490055A2AF75C936B6CF9676DC1FE
:100690001BFCE0E40D47FEF520E6B500D0ED902E02
:1006A0000300943577050080841E080000204E0A60
:1006B000000000C80C333333330F986E128311419E
:1006C000EF8D2114893BE65516CFFEE6DB18D18469
:1006D0004B381BF77C1D901DA4BBE4242032847290
:1006E0005E228100C9F124ECA1E53D27556E6578B5
:1006F000706563746564206572726F72206F6363E6
:1007000075727265642E004D3630302046696C611A
:100710006D656E74204368616E67652E204C6F6155
:10072000642061206E65772066696C616D656E740A
:10073000206F7220656A65637420746865206F6C31
:1007400064206F6E652E0052656D6F76652074684B
:100750006520656A65637465642066696C616D65B2
:100760006E742066726F6D207468652066726F6E9D
:1007700074206F6620746865204D4D552E004669C3
:100780006C616D656E742064657465637465642066
:10079000756E65787065637465646C792E20456E3E
:1007A00073757265206E6F2066696C616D656E741D
:1007B000206973206C6F616465642E2043686563F3
:1007C0006B207468652073656E736F727320616E41
:1007D0006420776972696E672E00496E7465726E67
:1007E000616C2072756E74696D65206572726F72CE
:1007F0002E2054727920726573657474696E672057
:10080000746865204D4D55206F7220757064617459
:10081000696E6720746865206669726D77617265BC
:100820002E004D4D552046572076657273696F6EC8
:1008300020697320696E636F6D70617469626C65A5
:100840002077697468207072696E746572204657EB
:100850002E55706461746520746F207665727369BB
:100860006F6E20332E302E332E004D4D55204669AD
:10087000726D7761726520696E7465726E616C204D
:100880006572726F722C20706C6561736520726581
:1008900073657420746865204D4D552E0052657146
:1008A0007565737465642066696C616D656E74202E
:1008B000746F6F6C206973206E6F7420617661694C
:1008C0006C61626C65206F6E20746869732068616A
:1008D0007264776172652E20436865636B2074686B
:1008E0006520472D636F646520666F7220746F6F9B
:1008F0006C20696E646578206F7574206F66207255
:10090000616E6765202854302D5434292E004361D0
:100910006E6E6F7420706572666F726D207468659C
:1009200020616374696F6E2C2066696C616D656E01
:100930007420697320616C7265616479206C6F61E9
:100940006465642E20556E6C6F6164206974206646
:10095000697273742E004D4D55206E6F7420726550
:1009600073706F6E64696E6720636F727265637413
:100970006C792E20436865636B2074686520776905
:1009800072696E6720616E6420636F6E6E6563745A
:100990006F72732E004D4D55206E6F74207265730B
:1009A000706F6E64696E672E20436865636B207498
:1009B000686520776972696E6720616E6420636F75
:1009C0006E6E6563746F72732E004D6F7265206476
:1009D000657461696C73206F6E6C696E652E00546E
:1009E00068652049646C65722063616E6E6F742067
:1009F000686F6D652070726F7065726C792E204320
:100A00006865636B20666F7220616E797468696EC9
:100A10006720626C6F636B696E6720697473206D09
:100A20006F76656D656E742E0043616E2774206D60
:100A30006F76652053656C6563746F72206F7220EA
:100A400049646C65722E005468652053656C65635B
:100A5000746F722063616E6E6F7420686F6D6520B5
:100A600070726F7065726C792E20436865636B20BD
:100A7000666F7220616E797468696E6720626C6F50
:100A8000636B696E6720697473206D6F76656D6541
:100A90006E742E004C6F6164696E6720746F206500
:100AA00078747275646572206661696C65642E2065
:100AB000496E7370656374207468652066696C6143
:100AC0006D656E74207469702073686170652E2086
:100AD000526566696E65207468652073656E736F14
:100AE000722063616C6962726174696F6E2C206937
:100AF00066206E65656465642E0053656C6563747D
:100B00006F722063616E2774206D6F766520647547
:100B10006520746F2046494E4441206465746563C6
:100B200074696E6720612066696C616D656E742EF4
:100B3000204D616B652073757265206E6F2066694C
:100B40006C616D656E7420697320696E2053656CED
:100B50006563746F7220616E642046494E44412083
:100B6000776F726B732070726F7065726C792E0084
:100B700046696C616D656E742073656E736F72206B
:100B800074726967676572656420746F6F20656150
:100B9000726C79207768696C65206C6F6164696E2E
:100BA0006720746F2065787472756465722E2043B7
:100BB0006865636B2074686572652069736E27745D
:100BC00020616E797468696E6720737475636B2039
:100BD000696E205054464520747562652E20436826
:100BE00065636B20746861742073656E736F722027
:100BF00072656164732070726F7065726C792E001B
:100C000050756C6C6579206D6F746F7220737461B0
:100C10006C6C65642E20456E737572652074686512
:100C20002070756C6C65792063616E206D6F7665E0
:100C300020616E6420636865636B2074686520774B
:100C40006972696E672E0046696C616D656E74200D
:100C500073656E736F72206469646E277420737796
:100C600069746368206F6666207768696C652075B3
:100C70006E6C6F6164696E672066696C616D656E2C
:100C8000742E20456E737572652066696C616D65A2
:100C90006E742063616E206D6F766520616E6420D6
:100CA0007468652073656E736F7220776F726B73F3
:100CB0002E0046696C616D656E742073656E736F8E
:100CC00072206469646E2774207472696767657244
:100CD000207768696C65206C6F6164696E67207449
:100CE00068652066696C616D656E742E20456E7353
:100CF000757265207468652073656E736F72206904
:100D0000732063616C6962726174656420616E64F2
:100D1000207468652066696C616D656E742072650B
:100D200061636865642069742E0046494E44412021
:100D30006469646E277420737769746368206F66D2
:100D400066207768696C6520756E6C6F6164696E8A
:100D5000672066696C616D656E742E20547279200F
:100D6000756E6C6F6164696E67206D616E75616C24
:100D70006C792E20456E737572652066696C616DA5
:100D8000656E742063616E206D6F766520616E64A0
:100D90002046494E444120776F726B732E004649BE
:100DA0004E4441206469646E2774207472696767D9
:100DB0006572207768696C65206C6F6164696E6725
:100DC000207468652066696C616D656E742E2045BF
:100DD0006E73757265207468652066696C616D65F7
:100DE0006E742063616E206D6F766520616E642085
:100DF00046494E444120776F726B732E00446973ED
:100E000061626C650053746F70004C6F61640055D3
:100E10006E6C6F61640052657365744D4D55005280
:100E200065747279004372617368206465746563E8
:100E30007465642E00536F6D652070726F626C650F
:100E40006D20656E636F756E74657265642C205AD3
:100E50002D6C6576656C696E6720656E666F726372
:100E60006564202E2E2E004D657368206265642017
:100E70006C6576656C696E67206661696C65642E69
:100E8000205072696E742063616E63656C65642EB8
:100E90000048656174696E672064697361626C659E
:100EA00064206279207361666574792074696D6568
:100EB000722E0053544F505045442E00504155530C
:100EC000454420544845524D414C204552524F52C2
:100ED00000472D636F646520736C696365642066E9
:100EE0006F72206120646966666572656E74206C3D
:100EF0006576656C2E20506C656173652072652D7A
:100F0000736C69636520746865206D6F64656C201F
:100F1000616761696E2E205072696E742063616E24
:100F200063656C6C65642E00472D636F6465207388
:100F30006C6963656420666F72206120646966660F
:100F40006572656E74206C6576656C2E20436F6EDD
:100F500074696E75653F00472D636F646520736C1F
:100F60006963656420666F722061206E65776572C3
:100F7000206669726D776172652E20506C656173B1
:100F80006520757064617465207468652066697297
:100F90006D776172652E205072696E742063616E88
:100FA00063656C6C65642E00472D636F6465207308
:100FB0006C6963656420666F722061206E65776579
:100FC00072206669726D776172652E20436F6E7450
:100FD000696E75653F00472D636F646520736C69AA
:100FE00063656420666F722061206469666665725D
:100FF000656E74207072696E7465722074797065A4
:101000002E20506C656173652072652D736C696369
:101010006520746865206D6F64656C206167616927
:101020006E2E205072696E742063616E63656C6C05
:1010300065642E00472D636F646520736C6963657A
:101040006420666F72206120646966666572656EF1
:1010500074207072696E74657220747970652E20C8
:10106000436F6E74696E75653F00507265737320CF
:10107000746865206B6E6F6220746F207072656893
:10108000656174206E6F7A7A6C6520616E6420638E
:101090006F6E74696E75652E00506C6561736520A6
:1010A000707265737320746865206B6E6F62207454
:1010B0006F20756E6C6F61642066696C616D656E22
:1010C0007400616E642070726573732074686520AB
:1010D0006B6E6F6200496E736572742066696C6135
:1010E0006D656E7400436F6C6F72206E6F74206359
:1010F0006F72726563740046696C616D656E742011
:101100006E6F74206C6F61646564004368616E6724
:10111000656420636F72726563746C79004C6F61F3
:1011200064696E6720636F6C6F72004368616E67FD
:101130006520737563636573732100506C6561731B
:1011400065206F70656E2069646C657220616E64E5
:101150002072656D6F76652066696C616D656E7471
:10116000206D616E75616C6C792E0057617320661D
:10117000696C616D656E7420756E6C6F616420734F
:1011800075636365737366756C3F00506C6561735E
:101190006520757067726164652E004E6577206604
:1011A00069726D776172652076657273696F6E2002
:1011B000617661696C61626C653A00576169746956
:1011C0006E6720666F722050494E44412070726FE6
:1011D000626520636F6F6C696E6700506C65617348
:1011E000652077616974004E6F206D6F76652E0003
:1011F0005761697420666F7220757365722E2E2E8A
:1012000000537461626C6520616D6269656E742063
:1012100074656D70657261747572652032312D323E
:101220003643206973206E656564656420612072B1
:1012300069676964207374616E64206973207265E4
:101240007175697265642E00506C656173652072FA
:10125000756E2058595A2063616C696272617469B5
:101260006F6E2066697273742E00426564206C652F
:1012700076656C696E67206661696C65642E2053C3
:10128000656E736F72206469646E2774207472696E
:10129000676765722E20446562726973206F6E20E5
:1012A0006E6F7A7A6C653F2057616974696E67204A
:1012B000666F722072657365742E0053656E736974
:1012C00074697669747900446F6E65002200656EFA
:1012D000717565696E67202200446F6E65207072BB
:1012E000696E74696E672066696C65004E6F204C8C
:1012F000696E65204E756D6265722077697468202D
:10130000636865636B73756D2C204C617374204C3E
:10131000696E653A20004E6F20436865636B737594
:101320006D2077697468206C696E65206E756D62DA
:1013300065722C204C617374204C696E653A2000F4
:10134000636865636B73756D206D69736D6174633C
:10135000682C204C617374204C696E653A20004CF7
:10136000696E65204E756D626572206973206E6FBF
:1013700074204C617374204C696E65204E756D62EB
:1013800065722B312C204C617374204C696E653A68
:101390002000256C752062797465732077726974FA
:1013A00074656E20746F202553206174206164641D
:1013B000726573732030782530346C780A004425C8
:1013C00064202D20526561642F5772697465202551
:1013D000530A0020436F756E7420583A2000453040
:1013E0003A25642052504D2050524E313A25642007
:1013F00052504D204530403A25752050524E3140D4
:101400003A25750A00526573656E640025533A20CB
:10141000256C640A25530A002F2F616374696F6E6F
:101420003A6E6F74696669636174696F6E202553E3
:101430000A0046696C616D656E742072756E6F7519
:101440007420646574656374656421005072696E0C
:101450007465722073746F707065642064756520A4
:10146000746F206572726F72732E2053757065727F
:10147000766973696F6E2072657175697265642E25
:101480000064756D7020636C65617265640A006E3E
:101490006F2064756D7020617661696C61626C6546
:1014A0000A00443231202D2072656164206372612C
:1014B00073682064756D700A006E6F2064756D70BE
:1014C00020617661696C61626C650A0064756D709B
:1014D00020636F6D706C6574656420696E20256C87
:1014E000756D730A0058464C4153480045455052AB
:1014F0004F4D005352414D00442D31202D20456E5B
:10150000646C657373206C6F6F700A00416374695B
:1015100076652045787472756465723A20300049AA
:101520006E76616C696420657874727564657200AA
:10153000746D63323133305F7072696E745F6375DE
:101540007272656E747328290A094809520A58098B
:1015500025640925640A590925640925640A5A097C
:1015600025640925640A450925640925640A005390
:1015700044207072696E74696E67206279746520A8
:1015800000257500556E6B6E6F776E20636F6D6D05
:10159000616E643A2022004D32303020496E76610F
:1015A0006C696420657874727564657220007A5F76
:1015B0006D61783A20007A5F6D696E3A2000795F3C
:1015C0006D61783A2000795F6D696E3A2000785F2E
:1015D0006D61783A200054524947474552454400CE
:1015E0006F70656E00785F6D696E3A2000526570AD
:1015F0006F7274696E6720656E6473746F702073A8
:101600007461747573004D3131322063616C6C65A7
:10161000642E20456D657267656E63792053746F23
:10162000702E002F2F616374696F6E3A75766C6F40
:101630005F7265636F766572795F72656164790068
:101640002F2F616374696F6E3A75766C6F5F617589
:10165000746F5F7265636F766572795F72656164DE
:10166000790053494C454E54004E4F524D414C0069
:101670002553204D4F44453A2050657263656E7482
:1016800020646F6E653A20256868643B207072693B
:101690006E742074696D652072656D61696E696E26
:1016A0006720696E206D696E733A2025643B204384
:1016B00068616E676520696E206D696E733A2025DA
:1016C000640A005072696E74657253746174653A8D
:1016D0002025640A00456E642066696C65206C698B
:1016E000737400426567696E2066696C65206C6979
:1016F000737400556E6B6E6F776E20256320636F79
:1017000064653A2025730A000A50494E444120740A
:10171000656D70657261747572653A20252E31664B
:10172000205A20736869667420286D6D293A202537
:101730002E3366000A537465703A2025642F360AEA
:10174000000A537465703A2025642F362028736B85
:101750006970706564290A50494E44412074656D72
:1017600070657261747572653A202564205A207321
:101770006869667420286D6D293A300A000A5A4556
:10178000524F3A20252E33660A007374617274201A
:1017900074656D70657261747572653A20252E31BD
:1017A000660A0025642020252E3266002553205825
:1017B0003A20252E356620593A20252E3566205AA6
:1017C0003A20252E35660A00536C6565702E2E2E44
:1017D0000045303A25642052504D0A50524E303A5E
:1017E00025642052504D0A00312F39008800002016
:1017F00045535000204E535000204F464600204F86
:101800004E005056303100205B4D505D2000256960
:1018100020686F757273202569206D696E75746517
:10182000730052582074696D656F7574004D3331C3
:1018300030004D313132004D3131300046756C6C25
:10184000205258204275666665720053657474694B
:101850006E67732053746F72656400544D3A207341
:10186000746F7265642063616C6962726174696F20
:101870006E20696E76616C69642C20726573657484
:1018800074696E670053746F726564207365747455
:10189000696E677320726574726965766564004865
:1018A000617264636F6465642044656661756C741D
:1018B0002053657474696E6773204C6F616465644E
:1018C00000563200000000C8420000C8420000C8B4
:1018D0004300008C430000484300004843000040A0
:1018E000410000F042E8030000E8030000C80000E7
:1018F000008813000000409C4400409C440000000D
:101900000000000000204E000000002041000020E8
:1019100041CDCCCC3E000090400000000000000013
:101920000000000000CDCCCC3E0000C8419C5349D3
:101930003F80F946438F42FC42E65A343F4C62B046
:10194000450000000000404000003442000000005C
:101950000000000000000041000000E03F0000C85F
:10196000420000C842000040410000F042C00300B5
:1019700000C0030000C80000008813000010101011
:101980002000409C440000803F0000003F191400EC
:101990000000437573746F6D004E796C6F6E50412B
:1019A00000536174696E202000546578747572006C
:1019B000536D6F6F746800486F74656E6420666164
:1019C0006E207370656564206973206C6F77657233
:1019D000207468616E20657870656374656400507A
:1019E00072696E742066616E20737065656420692B
:1019F00073206C6F776572207468616E20657870F3
:101A0000656374656400312E3000312E3500554E0B
:101A10004B4E4F574E004C413130433A204C696E8B
:101A200065617220416476616E6365206D6F6465E7
:101A30003A20004C413130433A2041646A75737456
:101A4000656420452D4A65726B3A20003E0FA8AFB1
:101A500000480069960000DF602555588768042714
:101A6000F2E0005E3403CC1960F33C0EF88F00DB2B
:101A700008029492003E1C079A8700E524008528FE
:101A8000527E06001BE4007E781270787061F812B6
:101A9000788F8841784270787061782570787061AD
:101AA000F850788F88D1F02527078761F025278F98
:101AB00088412C0D27AA50D1BC0707871161BE7839
:101AC0008F881141785270787061F852788F884110
:101AD0002012788870632052788870634852788822
:101AE0008743031117997064181278F870654412CF
:101AF000F8F8F045184278F87065182578F87065A0
:101B0000185278F87065185078F870650C078F8750
:101B10002365A20F8F8F11450012062270690012F3
:101B20000722274900250622706900250722274938
:101B300000120622276C026236A2706C40456C448B
:101B4000704C03622222706C43888888F04C7812B3
:101B5000BC88806E7852BC88806E38127888706F2E
:101B600078127888874F38427888706F382578885F
:101B7000706F3A0079AC786F3D079AAC786F785007
:101B8000788887EF39497888706F0852BC888072EE
:101B90009852F88F985220127870F0734812786338
:101BA000875320527870F073485278638753100738
:101BB000870F247312786387245360699A988BE2A5
:101BC0002304E4443074104E444324747C12888906
:101BD00060753C50888870557825288960757949EA
:101BE000088960753C12887070790C1288522259ED
:101BF0004412F124F07A4452F124F07A8C52F036F7
:101C00008F5A4420F124F07A00401454CDCCCC3DBE
:101C10000AD7233C17B7D13877CC2B329595E624D9
:101C20001FB14F0A000020410000C84200401C467E
:101C300020BCBE4CCA1B0E5AAEC59D744E414E49C7
:101C40004E46627573793A207061757365642066DB
:101C50006F7220696E70757400627573793A2070C6
:101C6000617573656420666F7220757365720062BA
:101C70007573793A2070726F63657373696E67006C
:101C800000007F43008054430000524300000000E6
:101C9000000080C09A99193E00000000000080C03A
:101CA0009A99193E0000A0400000A04000000040AA
:101CB00025336420737465703D253264206D736331
:101CC0006E743D2534640A0000007F430080584351
:101CD0009AD95143FFFFFF20413A0020503A00209B
:101CE00042403A0020403A00202F002054303A0071
:101CF000202F0020423A00202F00543A002553455F
:101D0000786365737369766520626564206C6576B7
:101D1000656C696E6720636F7272656374696F6E5C
:101D20003A202569206D6963726F6E730A004265FF
:101D300064206C6576656C696E67206661696C65A8
:101D4000642E20546F6F206D756368207661726910
:101D50006174696F6E2066726F6D20656570726F59
:101D60006D206D65736800426564206C6576656CF6
:101D7000696E67206661696C65642E2053656E73B9
:101D80006F722074726967676572656420746F6F23
:101D900020736F6F6E002020004D65617375726552
:101DA0006420706F696E74733A005A2073656172B3
:101DB0006368206865696768743A20352E3066006C
:101DC0004E756D20582C593A20372C37004D6573CD
:101DD0006820626564206C6576656C696E67206E4C
:101DE0006F74206163746976652E0020453A002087
:101DF0005A3A0020593A0020453A00205A3A002029
:101E0000593A00583A00202D3E200053706F6F6CF5
:101E10004A6F696E3A20002C2000496E6163746934
:101E2000766974792053687574646F776E004B49D6
:101E30004C4C45442E005072696E74657220686186
:101E40006C7465642E206B696C6C28292063616C4E
:101E50006C656421005A206C6976652061646A753E
:101E60007374206F7574206F662072616E67652EC3
:101E70002053657474696E6720746F20302E204380
:101E80006C69636B20746F20636F6E74696E756527
:101E90002E005A206C6976652061646A757374201F
:101EA0006F7574206F662072616E67652E205365B2
:101EB0007474696E6720746F20300020453A3020BA
:101EC000423A00543A004731205A252D2E336620DD
:101ED00046252D2E336600496E76616C6964205468
:101EE00020636F64652E004475706C69636174656E
:101EF00020542D636F64652069676E6F7265642E70
:101F000000416476616E6365204B3D004B206F7528
:101F100074206F6620616C6C6F7765642072616EEF
:101F2000676521004D4B33004D4B334D4D5533000C
:101F30005C762C012533642F25336400253364003F
:101F4000200A200A200A200025534172632053658D
:101F50007474696E67733A20503A4D6178206C65ED
:101F60006E677468286D6D2920533A4D696E206C38
:101F7000656E67746820286D6D29204E3A436F7234
:101F800072656374696F6E7320523A4D696E207387
:101F900065676D656E747320463A5365676D656E4F
:101FA00074732F7365632E0A255320204D3231340C
:101FB0002050252E32662053252E3266204E256471
:101FC00020522564204625640A00255346696C6129
:101FD0006D656E742073657474696E67733A20441E
:101FE000697361626C65640A00255346696C616DB2
:101FF000656E742073657474696E67733A0A25534D
:102000002020204D3230302044252E32660A002513
:1020100053526574726163743A20533D4C656E6728
:10202000746820286D6D2920463A537065656420D8
:10203000286D6D2F6D29205A3A205A4C69667420FC
:10204000286D6D290A25532020204D32303720532A
:10205000252E32662046252E3266205A252E3266DF
:102060000A25535265636F7665723A20533D457871
:10207000747261206C656E67746820286D6D29200C
:10208000463A537065656420286D6D2F6D290A25C9
:10209000532020204D3230382053252E32662046E2
:1020A000252E32660A25534175746F2D5265747260
:1020B0006163743A20533D3020746F20646973610A
:1020C000626C652C203120746F20696E74657270AB
:1020D00072657420657874727564652D6F6E6C79A5
:1020E000206D6F7665732061732072657472616311
:1020F0007473206F72207265636F766572696573A1
:102100000A25532020204D323039205325640A00FF
:102110002553504944206865617462656420736585
:102120007474696E67733A0A25532020204D33304A
:10213000342050252E32662049252E326620442533
:102140002E32660A00255350494420736574746921
:102150006E67733A0A25532020204D3330312050CA
:10216000252E32662049252E32662044252E3266E1
:102170000A00255353746570732070657220756E64
:1021800069743A0A255320204D39322058252E32C1
:10219000662059252E3266205A252E326620452586
:1021A0002E32660A25535553746570207265736F1D
:1021B0006C7574696F6E3A200A2553204D333530A3
:1021C0002058256420592564205A2564204525641B
:1021D0000A25534D6178696D756D20666565647279
:1021E00061746573202D206E6F726D616C20286D97
:1021F0006D2F73293A0A255320204D323033205851
:10220000252E32662059252E3266205A252E32661A
:102210002045252E32660A25534D6178696D756D0E
:1022200020666565647261746573202D2073746522
:10223000616C746820286D6D2F73293A0A2553202C
:10224000204D3230332058252E32662059252E322B
:1022500066205A252E32662045252E32660A2553E1
:102260004D6178696D756D20616363656C65726140
:1022700074696F6E202D206E6F726D616C20286DF9
:102280006D2F7332293A0A255320204D32303120E8
:1022900058256C752059256C75205A256C7520457C
:1022A000256C750A25534D6178696D756D206163E4
:1022B00063656C65726174696F6E202D207374653F
:1022C000616C746820286D6D2F7332293A0A25538A
:1022D00020204D3230312058256C752059256C75E1
:1022E000205A256C752045256C750A25534163637A
:1022F000656C65726174696F6E3A20503D707269E9
:102300006E742C20523D726574726163742C20547B
:102310003D74726176656C0A255320204D3230344D
:102320002050252E32662052252E32662054252E2E
:1023300032660A2553416476616E63656420766176
:10234000726961626C65733A20533D4D696E206617
:102350006565647261746520286D6D2F73292C206A
:10236000543D4D696E2074726176656C20666565BA
:10237000647261746520286D6D2F73292C20423D95
:102380006D696E696D756D207365676D656E74201E
:1023900074696D6520287573292C20583D6D61780E
:1023A000696D756D205859206A65726B20286D6DB6
:1023B0002F73292C20205A3D6D6178696D756D2031
:1023C0005A206A65726B20286D6D2F73292C20208E
:1023D000453D6D6178696D756D2045206A65726B4C
:1023E00020286D6D2F73290A255320204D3230355A
:1023F0002053252E32662054252E32662042256C2D
:10240000752058252E32662059252E3266205A25F1
:102410002E32662045252E32660A2553486F6D659B
:10242000206F666673657420286D6D293A0A2553FE
:1024300020204D3230362058252E32662059252E48
:102440003266205A252E32660A00544D3A20525BDD
:1024500025755D20657374696D6174652E00544D3A
:102460003A20255320522025644300544D3A20251C
:10247000532043206573742E00544D3A20636F6FD0
:102480006C20646F776E203C25644300726566693A
:102490006E6500696E697469616C00544D3A206321
:1024A000616C6962722E206661696C6564210054FA
:1024B0004D3A2063616C6962726174696F6E20735A
:1024C0007461727400544D3A2043616C2E204E4F5B
:1024D000542049444C45004361703A25533A2563E2
:1024E0000A0050525553415F4D4D553200455854E6
:1024F000454E4445445F4D3230004155544F52459E
:10250000504F52545F504F534954494F4E0041551C
:10251000544F5245504F52545F46414E530041551F
:10252000544F5245504F52545F54454D5000004453
:10253000656C6574696F6E206661696C65642C20DA
:1025400046696C653A200046696C652064656C6577
:102550007465643A004E6F74205344207072696E43
:1025600074696E67005072696E7420736176656479
:10257000005344207072696E7420706175736564D5
:10258000002533642F253364004F4B004241440043
:1025900052414D426F2046414E20006676007468DD
:1025A000780050524E0043524153485F43414E43DE
:1025B000454C0043524153485F5245434F564552A4
:1025C0000043524153485F5245434F564552002203
:1025D0002832290025533A2025530A002C204D3952
:1025E000303720452069676E6F726564006E6F201A
:1025F00076616C696420636F6D6D616E64007A65ED
:10260000726F72697A656400666163746F727920B3
:10261000726573746F72656400696E6465782C20EE
:1026200074656D702C2075737465702C20756D0049
:1026300050494E44412063616C207374617475731A
:102640003A2000503A005761697420666F7220503A
:10265000494E4441207461726765742074656D70E1
:10266000657261747572653A002041002050002047
:102670004200204C00205200205A00204E4F54208F
:10268000494E495449414C495A454400536865658F
:10269000742000205A2056414C5545204F55542057
:1026A0004F462052414E474500496E76616C696441
:1026B0002073686565742049442E20416C6C6F77E7
:1026C00065643A20302E2E004155544F004C414E47
:1026D000472053454C20464F524345440020643A1E
:1026E0000020693A0020703A0020643A0020693ADC
:1026F0000020703A00256925250A00256925250A4C
:102700000022283129002F2F00002045585452550F
:102710004445525F434F554E543A3100204D41439A
:1027200048494E455F545950453A00312E300020FB
:102730006261736564206F6E204D61726C696E20FA
:102740004649524D574152455F55524C3A68747450
:1027500070733A2F2F6769746875622E636F6D2FDF
:10276000707275736133642F50727573612D466991
:10277000726D776172652050524F544F434F4C5FDA
:1027800056455253494F4E3A003136353532663749
:102790006264005F0038323530002B004649524DEC
:1027A000574152455F4E414D453A50727573612D08
:1027B0004669726D7761726520004D313133205367
:1027C000006F6B200020636D2E00206D696E20006D
:1027D000535441545320006E2F61003F546F73686F
:1027E00069626120466C6173684169722047657453
:1027F0004950206661696C65640A00000125311D3D
:102800000C4024301C0B45232F1B0A17FF04062203
:102810002B1A03363735382569206D696E2C202533
:10282000692073656300496E76616C6964204D2090
:10283000636F64653A2025730A0050494E44412075
:1028400070726F62652063616C6962726174696F36
:102850006E207374617274004E6F2050494E444173
:1028600020746865726D6973746F720073657400AB
:102870006E6F7A7A6C65004D424C004652004C7A7D
:10288000004C616E6700315F37356D6D5F4D4B33C6
:102890002D45494E53795F3130612D4533445245C2
:1028A000564F0052657600332E31342E312D38329A
:1028B00035300046697200534E20696E76616C694E
:1028C0006400534E005245534554004D4D555245FA
:1028D000530075766C6F0046414E0046414E50499C
:1028E0004E545354005052555341005345545F4386
:1028F000484F505F005345545F535445505F005359
:1029000045545F574156455F00544D435F00435265
:102910004153485F43414E43454C00435241534865
:102920005F5245434F5645520043524153485F441E
:10293000455445435445440043524153485F0025A4
:102940002E313053200025346400457872656D6562
:10295000207370616E206F6620746865205A20763F
:10296000616C756573210025642F39004D4D55321A
:102970003A002533640018010419020A9E0D2A0D3D
:10298000B20C470C000C700BFA0A940A470A290A89
:10299000DF09290ACA09CA09CA09CA09CA09CA092A
:1029A000CA09CA09CA09CA09CA09CA09CA09CA098F
:1029B000CA09CA09CA09CA09CA09CA09CA09CA097F
:1029C000950956090E099D086A082208DA077E074C
:1029D00047070707EC06010101010101010271012E
:1029E00071013232320303030303030303030303BE
:1029F00003030303030303039393243803930301A3
:102A0000025603650066006700680069006A006B93
:102A1000006C00730074007D007E00C900D300DDEF
:102A200000CA00D400DE002D01370141012E01381B
:102A30000142012F013901430130013A01440131C2
:102A4000013B014501320191019201F501F601F7C7
:102A500001F801F901FA01FB01FC0184031F0EC713
:102A600012160E0F0E0A0EFE2F183D050EFD0D2537
:102A70002E3230530A70727573612E696F2F3034A5
:102A80002568750020557067726164696E672078EB
:102A9000666C6173680A20446F206E6F74206469ED
:102AA00073636F6E6E6563742100773235783230F0
:102AB000636C5F63666D0A00773235783230636C21
:102AC0005F656E7465720A0073746172740A004700
:102AD00031205831302059313830204634303030B0
:102AE000004731205A3130204631333030004D31EB
:102AF0003430205330004D313034205330004731D2
:102B000020452D302E3037352046323130300047C9
:102B100031204634303030004D32303420533130A3
:102B20003030004731205A352046373230300047A8
:102B30003120452D312E3520463231303000473995
:102B40003000473120583520453420463130303070
:102B5000004731205A302E32204631303030004785
:102B6000312058353520453235204631343030005B
:102B7000473120592D322046313030300047312046
:102B80005832343020453235202046323230300041
:102B90004731205A302E3320463130303000473113
:102BA0002058353520453820463230303000473106
:102BB00020583520453239204631383030004731F1
:102BC00020583535204532392046313037330047DB
:102BD000393220453000473238004D313039004D10
:102BE000313930004D3130370025533A0A2531381C
:102BF0002E32666D200A25533A0A2531306C6468FE
:102C000020253032646D2025303264730025533A1C
:102C10000A2531382E32666D200A25533A0A2531AD
:102C2000306C646420253032646820253032646D55
:102C30000025362E32666D6D0025530A25530A2570
:102C4000533A0A25533A0025332E32668100252D4A
:102C500031342E3134533A0A25530A252D31342E7E
:102C60003134533A25332E3266810A252D31342EE4
:102C70003134533A25332E32668100202030002033
:102C8000203100423A20253364202020202058643F
:102C90003A2536640A533A20253364202020202028
:102CA00059643A2536640046494E44410050494E25
:102CB00044410057697A61726420656E64207374C0
:102CC0006174653A2025640A0053706F6F6C4A6F17
:102CD000696E004669726D7761726500484265648D
:102CE000206F6E206C6F616400466C61736841698F
:102CF0007200546865726D616C204D6F64656C2064
:102D000063616C2E004572723A5052494E5420460F
:102D1000414E204552524F52004572723A484F542C
:102D2000454E442046414E204552524F52002F2FCF
:102D3000616374696F6E3A726573756D6564002FB7
:102D40002F616374696F6E3A726573756D65002FDC
:102D50002F616374696F6E3A7265616479002F2F19
:102D6000616374696F6E3A6E6F745F7265616479E6
:102D7000002F2F616374696F6E3A63616E63656CD7
:102D80000041786973206C656E67746820646966B9
:102D9000666572656E63653A252E33660A004D6579
:102DA0006173757265642061786973206C656E6704
:102DB00074683A252E33660A004F4B004C4344207A
:102DC000737461747573206368616E676564005322
:102DD0004420636172642072656C65617365640090
:102DE00046616B652073657269616C206E756D62FA
:102DF000657200452D636F6F6C206D6F6465002FE9
:102E00002F616374696F6E3A7374617274004D3828
:102E100034004D373032004D3833004732382057B8
:102E2000004D3530300045787465726E616C20530A
:102E3000504920666C6173680A58464C41534820DB
:102E40006973206E6F74207265732D0A706F6E64E3
:102E5000696E672E204C616E67756167650A7377CE
:102E60006974636820756E617661696C61626C6516
:102E70002E0058464C415348206E6F742072657383
:102E8000706F6E64696E672E0046572063726173BF
:102E9000682064657465637465642120596F7520CA
:102EA00063616E20636F6E74696E75652070726900
:102EB0006E74696E672E2044656275672064617464
:102EC0006120617661696C61626C6520666F722059
:102ED000616E616C797369732E20436F6E746163E8
:102EE0007420737570706F727420746F20737562C4
:102EF0006D69742064657461696C732E002F2F6195
:102F00006374696F6E3A64756D705F617661696C48
:102F100061626C65004372617368446574656374D3
:102F20002044495341424C45440043726173684414
:102F3000657465637420454E41424C454421002030
:102F400020506C616E6E657242756666657242797C
:102F50007465733A20002046726565204D656D6F7B
:102F600072793A2000207C20417574686F723A2093
:102F700000204C61737420557064617465643A205C
:102F80000020536F667477617265205265736574B3
:102F900000205761746368646F67205265736574BD
:102FA000002042726F776E206F75742052657365D2
:102FB00074002045787465726E616C20526573658B
:102FC0007400506F7765725570006572726F722071
:102FD00077726974696E6720746F2066696C65002A
:102FE000446F6E6520736176696E672066696C65F3
:102FF0002E006F6B0046696C616D656E7400456AEA
:103000006563740046696C616D656E7420657874E3
:10301000727564696E672026207769746820636F13
:10302000727265637420636F6C6F723F00417574D8
:103030006F6C6F6164696E672066696C616D656E47
:1030400074206973206163746976652C206A7573D6
:103050007420707265737320746865206B6E6F6284
:1030600020616E6420696E736572742066696C619C
:103070006D656E742E2E2E005072696E7420746908
:103080006D650046696C616D656E7420757365646D
:1030900000546F74616C207072696E742074696D75
:1030A0006500546F74616C2066696C616D656E7447
:1030B000005072656865617420746865206E6F7A6F
:1030C0007A6C6521004552524F523A005269676846
:1030D00074004C65667400592064697374616E6392
:1030E000652066726F6D206D696E0053657665723E
:1030F0006520736B657700536C6967687420736B28
:103100006577004D6561737572656420736B6577D3
:10311000005B303B305D20706F696E74206F6666B7
:103120007365740041646A757374696E67205A0030
:10313000526561722073696465205BE46D5D0046D1
:10314000726F6E7420736964655BE46D5D00526933
:1031500067687420736964655BE46D5D004C656647
:10316000742073696465205BE46D5D0053657420B1
:1031700074656D70657261747572653A0050494E80
:1031800044412063616C6962726174696F6E20668C
:1031900061696C65640050494E44412063616C690B
:1031A00062726174696F6E2069732066696E6973FB
:1031B00068656420616E64206163746976652E20A1
:1031C00049742063616E2062652064697361626C7A
:1031D000656420696E206D656E7520536574746931
:1031E0006E67732D3E50494E44412063616C2E0042
:1031F0004578747275646572004D6F7665205A006B
:103200004D6F76652059004D6F76652058004372EA
:1032100061736820646574656374696F6E206361AF
:103220006E0A6265207475726E6564206F6E206F21
:103230006E6C7920696E0A4E6F726D616C206D6FD5
:103240006465005741524E494E473A0A43726173D2
:103250006820646574656374696F6E0A646973617C
:10326000626C656420696E0A537465616C746820D1
:103270006D6F6465004D6F6465206368616E67659E
:1032800020696E2070726F67726573732E2E2E0028
:10329000536865657420252E37730A5A206F666659
:1032A0007365743A20252B312E33666D6D0A2563C4
:1032B000436F6E74696E75650A2563526573657434
:1032C00000506C65617365206C6F61642066696C89
:1032D000616D656E742066697273742E003E436181
:1032E0006E63656C0052756E6E696E672057697A01
:1032F0006172642077696C6C2064656C657465200C
:1033000063757272656E742063616C696272617458
:10331000696F6E20726573756C747320616E6420C2
:1033200073746172742066726F6D207468652062B8
:103330006567696E6E696E672E20436F6E74696E85
:1033400075653F0050726568656174696E67206ECF
:103350006F7A7A6C652E20506C6561736520776199
:1033600069742E00506C6561736520696E736572B7
:10337000742066696C616D656E7420696E746F206F
:103380007468652065787472756465722C20746841
:10339000656E20707265737320746865206B6E6F44
:1033A0006220746F206C6F61642069742E00506C11
:1033B0006561736520696E736572742066696C61FE
:1033C0006D656E7420696E746F207468652066691F
:1033D0007273742074756265206F6620746865204E
:1033E0004D4D552C207468656E2070726573732086
:1033F000746865206B6E6F6220746F206C6F6164FF
:103400002069742E005A2063616C6962726174696C
:103410006F6E207265636F6D6D656E6465642E20DE
:1034200052756E206974206E6F773F005468652076
:103430007072696E7465722077696C6C2073746148
:103440007274207072696E74696E672061207A6987
:10345000672D7A6167206C696E652E20526F7461EA
:10346000746520746865206B6E6F6220756E746978
:103470006C20796F752072656163682074686520BF
:103480006F7074696D616C206865696768742E205F
:10349000436865636B207468652070696374757236
:1034A000657320696E207468652068616E64626F60
:1034B0006F6B202843616C6962726174696F6E2062
:1034C00063686170746572292E0053656C6563745E
:1034D0002074656D706572617475726520776869B6
:1034E0006368206D61746368657320796F757220FD
:1034F0006D6174657269616C2E0053656C656374EF
:1035000020612066696C616D656E7420666F722043
:10351000746865204669727374204C617965722005
:1035200043616C6962726174696F6E20616E6420C0
:1035300073656C65637420697420696E20746865B6
:10354000206F6E2D73637265656E206D656E752ECE
:10355000004E6F7720492077696C6C2063616C693D
:1035600062726174652064697374616E6365206260
:1035700065747765656E20746970206F6620746865
:1035800065206E6F7A7A6C6520616E642068656173
:103590007462656420737572666163652E00506C99
:1035A0006561736520636865636B206F7572206861
:1035B000616E64626F6F6B20616E64206669782053
:1035C0007468652070726F626C656D2E205468653A
:1035D0006E20726573756D65207468652057697A11
:1035E000617264206279207265626F6F74696E67C0
:1035F00020746865207072696E7465722E00416C6B
:103600006C20697320646F6E652E2048617070793C
:10361000207072696E74696E672100596F7520633E
:10362000616E20616C7761797320726573756D6569
:10363000207468652057697A6172642066726F6DC4
:103640002043616C6962726174696F6E202D3E2047
:1036500057697A6172642E00496620796F75206817
:10366000617665206164646974696F6E616C207352
:103670007465656C207368656574732C2063616C78
:103680006962726174652074686569722070726520
:103690007365747320696E2053657474696E677303
:1036A000202D204857205365747570202D205374A9
:1036B00065656C207368656574732E00506C656178
:1036C000736520636C65616E206865617462656412
:1036D00020616E64207468656E207072657373205B
:1036E000746865206B6E6F622E00446F20796F7571
:1036F0002077616E7420746F20726570656174202C
:103700006C617374207374657020746F20726561CE
:10371000646A7573742064697374616E6365206292
:1037200065747765656E206E6F7A7A6C6520616E60
:103730006420686561746265643F0053656C65630D
:1037400074206E6F7A7A6C6520707265686561743A
:103750002074656D70657261747572652077686933
:103760006368206D61746368657320796F7572207A
:103770006D6174657269616C2E0049732066696CB5
:10378000616D656E74206C6F616465643F005468A0
:1037900065726D616C206D6F64656C2063616C2E69
:1037A0002074616B657320617070726F782E2031A8
:1037B00032206D696E732E205365650A70727573C1
:1037C000612E696F2F746D2D63616C004E6F7720D1
:1037D000492077696C6C2070726568656174206E31
:1037E0006F7A7A6C6520666F7220504C412E0049CA
:1037F0002077696C6C2072756E207A2063616C6929
:1038000062726174696F6E206E6F772E004E6F77F3
:103810002072656D6F7665207468652074657374B9
:10382000207072696E742066726F6D2073746565A6
:103830006C2073686565742E00506C65617365203B
:1038400072656D6F7665207368697070696E672048
:1038500068656C706572732066697273742E0049B6
:103860002077696C6C2072756E2078797A2063619C
:103870006C6962726174696F6E206E6F772E204979
:10388000742077696C6C2074616B6520757020748E
:103890006F203234206D696E732E00466972737426
:1038A0002C20492077696C6C2072756E20746865D5
:1038B0002073656C667465737420746F206368652B
:1038C000636B206D6F737420636F6D6D6F6E20611D
:1038D0007373656D626C792070726F626C656D7365
:1038E0002E0048692C204920616D20796F75722067
:1038F0004F726967696E616C2050727573612069DF
:1039000033207072696E7465722E20576F756C6407
:1039100020796F75206C696B65206D6520746F2050
:10392000677569646520796F75207468726F756753
:1039300068207468652073657475702070726F6399
:103940006573733F0048692C204920616D20796FB1
:103950007572204F726967696E616C205072757361
:1039600061206933207072696E7465722E2049205F
:1039700077696C6C20677569646520796F75207450
:1039800068726F75676820612073686F7274207346
:10399000657475702070726F636573732C20696E27
:1039A00020776869636820746865205A2D6178699A
:1039B000732077696C6C2062652063616C69627248
:1039C000617465642E205468656E2C20796F7520B3
:1039D00077696C6C20626520726561647920746F10
:1039E000207072696E742E00452D636F727265636C
:1039F00074005A2D636F727265637400592D636F82
:103A0000727265637400582D636F7272656374001F
:103A1000506175736500436F6E742E0046532041EC
:103A20006374696F6E00462E206A616D2064657450
:103A300065637400462E206175746F6C6F6164005D
:103A4000462E2072756E6F7574004D4D55204D6F6A
:103A50006465004375747465720046616E2073700E
:103A6000656564004265640046616E732063686545
:103A7000636B004D6F64656C004E6F7A7A6C650005
:103A8000506C6561736520756E6C6F61642074683D
:103A9000652066696C616D656E7420666972737409
:103AA0002C207468656E207265706561742074687E
:103AB000697320616374696F6E2E00436865636B80
:103AC0007300416C7068616265740054696D6500D3
:103AD000536F7274005344206361726400525069E2
:103AE00020706F7274004C696E2E20636F72726565
:103AF0006374696F6E004E6F7A7A6C6520636861DB
:103B00006E6765004857205365747570004C6F618F
:103B100064696E6720546573740044697361626CF4
:103B200065207374657070657273004D6F766520E3
:103B3000617869730054656D706572617475726542
:103B40000050494E44412063616C2E0052657365FC
:103B5000742058595A2063616C6962722E00504972
:103B6000442063616C6962726174696F6E004265C2
:103B700064206C6576656C20636F72726563740097
:103B80004D65736820426564204C6576656C696E8E
:103B9000670043616C696272617465205A00436119
:103BA0006C6962726174652058595A0053656C667D
:103BB000746573740042656C742074657374005787
:103BC000697A617264004C6F616420416C6C0050D2
:103BD0006C656173652070756C6C206F7574206600
:103BE000696C616D656E7420696D6D656469617481
:103BF000656C790052657365740052656E616D6520
:103C0000004669727374206C617965722063616C1F
:103C10002E0053656C65637400537465656C207386
:103C2000686565747300537570706F7274004661D7
:103C3000696C207374617473204D4D550046616941
:103C40006C20737461747300537461746973746964
:103C500063730043616C6962726174696F6E0041E5
:103C600075746F4C6F61642066696C616D656E740C
:103C7000004C6F61642066696C616D656E740055FF
:103C80006E6C6F61642066696C616D656E74004C6A
:103C90006F616420746F206E6F7A7A6C6500507269
:103CA000656C6F616420746F204D4D55004E6F7AC6
:103CB0007A6C6520642E004E6F205344206361723D
:103CC00064005072696E742066726F6D20534400F8
:103CD000436C65617220544D206572726F720052A0
:103CE0006573756D65207072696E740050617573CF
:103CF00065207072696E740053657420526561644A
:103D00007900536574206E6F742052656164790088
:103D1000507265686561740054756E65004C697613
:103D2000652061646A757374205A00526570726907
:103D30006E7400496E666F2073637265656E004233
:103D400072696768746E6573730041737369737425
:103D50000053696C656E74004F6E6365004C6F753F
:103D60006400536F756E640046696C2E2073656E37
:103D7000736F72004368616E67652066696C616D80
:103D8000656E7400466C6F77005370656564004E15
:103D90002F41004D61676E65747320636F6D702EE7
:103DA000005A2D70726F6265206E722E004D657321
:103DB000680044696D0042726967687400417574F7
:103DC0006F0054696D656F7574004C6576656C2085
:103DD00044696D6D6564004C6576656C204272695E
:103DE0006768740053657474696E67730053746F09
:103DF00070207072696E7400436865636B696E67EA
:103E00002066696C650046696C6520696E636F6D3C
:103E1000706C6574652E20436F6E74696E756520D5
:103E2000616E797761793F00845265667265736867
:103E3000004D61696E0057616974696E6720666F35
:103E400072206E6F7A7A6C6520616E6420626564A0
:103E500020636F6F6C696E670053656C6674657381
:103E600074204F4B0053656C6674657374207374D3
:103E7000617274005072696E742066616E3A004817
:103E80006F74656E642066616E3A0043616C6962AE
:103E9000726174696E6720686F6D6500416C6C209B
:103EA000636F727265637400436865636B696E6704
:103EB0002073656E736F727300436865636B696E20
:103EC0006720686F74656E6400436865636B696E34
:103ED000672062656400436865636B696E67205A9A
:103EE000206178697300436865636B696E67205968
:103EF000206178697300436865636B696E67205859
:103F0000206178697300436865636B696E6720653B
:103F10006E6473746F707300436172642072656DB8
:103F20006F766564004261636B00537465616C7405
:103F300068004372617368206465742E004E6F726E
:103F40006D616C004D6F6465005374726963740039
:103F50005761726E004E6F6E65004E6F7A7A6C65B7
:103F6000206368616E6765643F004E6F7A7A6C65A6
:103F700020697320686F7421205761697420666F0F
:103F80007220636F6F6C646F776E2E00504944200F
:103F900063616C2E2066696E6973686564005049C0
:103FA000442063616C2E005072696E7420706175DC
:103FB000736564005072696E742061626F7274651B
:103FC00064004E6F7A7A6C65206469616D65746512
:103FD0007220646966666572732066726F6D207404
:103FE000686520472D636F64652E20506C65617392
:103FF0006520636865636B207468652076616C7505
:104000006520696E2073657474696E67732E205025
:1040100072696E742063616E63656C6C65642E00FA
:104020004E6F7A7A6C65206469616D657465722083
:10403000646966666572732066726F6D2074686568
:1040400020472D636F64652E20436F6E74696E7513
:10405000653F005468657265206973206E6F206645
:10406000696C616D656E74206C6F616465642E208F
:104070005072696E742063616E63656C6C65642E4A
:10408000005468657265206973206E6F2066696CE4
:10409000616D656E74206C6F616465642E20436F82
:1040A0006E74696E75653F004D4B33206669726DA5
:1040B00077617265206465746563746564206F6EF2
:1040C000204D4B3353207072696E74657200426CE0
:1040D00061636B6F7574206F636375727265642EB4
:1040E000205265636F766572207072696E743F004E
:1040F000546865726D616C206D6F64656C206E6FC5
:10410000742063616C69627261746564207965749E
:104110002E005468657265206973207374696C6C35
:104120002061206E65656420746F206D616B652071
:104130005A2063616C6962726174696F6E2E2050DF
:104140006C6561736520666F6C6C6F772074686551
:10415000206D616E75616C2C20636861707465728E
:104160002046697273742073746570732C207365B4
:104170006374696F6E2043616C6962726174696F08
:104180006E20666C6F772E005072696E74657220B7
:10419000686173206E6F74206265656E2063616C68
:1041A00069627261746564207965742E20506C6553
:1041B00061736520666F6C6C6F7720746865206D25
:1041C000616E75616C2C2063686170746572204645
:1041D000697273742073746570732C2073656374D3
:1041E000696F6E2043616C6962726174696F6E20E1
:1041F000666C6F772E0053656C66746573742077F8
:10420000696C6C2062652072756E20746F2063612A
:104210006C69627261746520616363757261746553
:104220002073656E736F726C657373207265686F4F
:104230006D696E672E004F6C642073657474696ECF
:10424000677320666F756E642E2044656661756CB9
:1042500074205049442C2045737465707320657434
:10426000632E2077696C6C206265207365742E0064
:104270005761726E696E673A20626F74682070725F
:10428000696E746572207479706520616E64206D4A
:104290006F74686572626F617264207479706520F2
:1042A0006368616E6765642E005761726E696E6740
:1042B0003A207072696E746572207479706520633B
:1042C00068616E6765642E005761726E696E673A49
:1042D000206D6F74686572626F61726420747970AA
:1042E00065206368616E6765642E00546573746948
:1042F0006E672066696C616D656E740053686565F4
:10430000740053656C6563742066696C616D656EDD
:10431000743A00252D31322E313253252B382E316F
:10432000660045787472756465723A0025632531BC
:10433000372E32666D6D00583A00593A005A3A00ED
:104340002563252D31332E313353252B352E3366FE
:10435000002533750050494E44412063616C696209
:10436000726174696F6E206661696C65642E2043AA
:104370006F6E74696E7565207769746820707265F8
:104380007373696E6720746865206B6E6F622E00B0
:1043900050494E44412063616C6962726174696F77
:1043A0006E20646F6E652E20436F6E74696E756546
:1043B0002077697468207072657373696E67207402
:1043C0006865206B6E6F622E00473830004D3435C3
:1043D000004D3435205A00473736004D37303120F4
:1043E00050300057697A6172642073746174653A61
:1043F0002025640A004578706572696D656E746188
:104400006C00302E383000302E363000302E3430F4
:1044100000302E32350044697361626C652066613C
:10442000726D206D6F6465005265736574204D4D2B
:1044300055004D4D55004D3434004739390044691D
:104440007361626C65206661726D206D6F64653F9B
:1044500000302E383000302E363000302E34300010
:10446000302E323500473238205859004D2038342C
:1044700000852E2E00593A202575202D3E202E2E07
:104480002E00583A202575202D3E202E2E2E002558
:1044900033642F30002533642F30002563204158CA
:1044A0004953205347313D25640A00486F74656EB7
:1044B0006400426564005A00590058002D2D2D2DCE
:1044C0002D2D2D2D2D2D2D2D2D2D2D2D2D2D2D2D1C
:1044D00000435A5058496E76616C6964536572693D
:1044E000616C4E72004D393134004D39313500E484
:1044F0002BFE2AF62AEE2AE12ACF2A473120582518
:1045000064205925642045252D2E3566004731202D
:104510004631303830004731205A252D2E33662061
:104520004637323030004731205835302059313548
:104530003500CF2B3E2B172E2F2B232B182B0F2B79
:104540004731205825642045252D2E3366204631DD
:1045500030303000BE2BAE2B9E2B902BCF2B7D2BE3
:10456000702B5F2B512B422B542564004731205A6E
:10457000302E3420463130303000473120592D3331
:1045800020463130303000E42BDF2BDA2BD62BCF16
:104590002B4D3834205859004731205831323520BE
:1045A0005A323030204631303030004D33313020F7
:1045B00041204631004731205831323520593130C1
:1045C00035205A3120463830303000496E76616CE3
:1045D0006964205049442063616C2E2072657375B4
:1045E0006C74732E204E6F742073746F7265642028
:1045F000746F20454550524F4D2E004D33303120C1
:1046000050252E32662049252E32662044252E3232
:1046100066004D333033204530205325337500522A
:104620004300444556004245544100414C504841E6
:104630000000002100240027002A002D0030003354
:104640000001010000040107010A01000022002509
:104650000028002B002E003100340002010000056C
:104660000108010B01000020002300260029002C76
:10467000002F0032000001000003010601090105BE
:10468000050505070508080808020202020A0A08CB
:1046900008040404040101010101010101030303F1
:1046A0000303030303040707070C0C0C0C0C0C0C8E
:1046B0000C0202020206060606060606060B0B0B95
:1046C0000B0B0B0B0B07070A0A0A0A0A0A0505055A
:1046D00004040408080102102020080810204010DB
:1046E00020408002010201080402010102040810B6
:1046F00020408080402010080402018004020180D4
:1047000040201008040201080402010102040810FC
:104710002040800102040810204080100804088016
:10472000102040044080102040048000000A0B024A
:10473000090C0D0E08070304010000000000000032
:104740000000000000000000000000000000000069
:104750000000000000000012111000000000000026
:104760000000000000000000000000000000000049
:104770000000000000000000000000000000000039
:1047800000332E31342E31000A204F726967696E72
:10479000616C2050727573612069330A20202050AB
:1047A000727573612052657365617263680A2532A0
:1047B000302E32305300435A5058003B5300537050
:1047C0006F6F6C4A6F696E20697320006164635F6C
:1047D000696E697400200A200A200A2000416C6C6E
:1047E000204461746100536572766963652070725C
:1047F0006570005368697070696E672070726570CB
:104800000053746174697374696373004C616E67FB
:10481000756167650045524153494E4720616C6C94
:10482000206461746100466163746F72792052453F
:104830005345540050525553413344465700494E56
:1048400054340003000E0001004000030002000089
:10485000000400556E6B6E6F776E00323032362D6D
:1048600030342D32342030393A35313A3537002062
:10487000332E31342E312D383235305F31363535E7
:10488000326637626400737461727400534E20752F
:104890007064617465206661696C656400534E20C4
:1048A0007570646174656400435A50580043524106
:1048B00053485F4445544543544544585900435276
:1048C0004153485F4445544543544544590043527D
:1048D0004153485F444554454354454458004D3284
:1048E0003900252D392E39535B00544D20657374E2
:1048F000696D6174696F6E20646964206E6F7420E5
:10490000636F6E766572676500544D2069746572D9
:104910003A257520763A252E326620653A252E33C3
:10492000660A00200A200A200000004842000058C1
:10493000419A998D41333353404D4D55323A004D94
:10494000494E54454D50204245442066697865647F
:10495000004D494E54454D5020484F54454E44203B
:1049600066697865640020746F6F206C6F6E6720D5
:10497000657874727573696F6E2070726576656E96
:104980007465640020636F6C64206578747275735D
:10499000696F6E2070726576656E746564004D6F28
:1049A00076652061626F7274656400504F5745529E
:1049B0002050414E4943204445544543544544000A
:1049C00055564C4F202D20656E642025640A0055F5
:1049D000564C4F5F54494E59202D20656E6420255A
:1049E000640A00776F726C6420636F6F7264696E23
:1049F000617465733A2028252E33662C20252E33CA
:104A0000662C20252E3366290A004D323230205381
:104A1000256400446F6E652072656164696E67206D
:104A2000454550524F4D0A0054656D706572617472
:104A300075726520526573746F7265640A00473140
:104A40002045252D2E336620463237303000544D18
:104A50004320445249564552204F56455254454DE5
:104A60005000486F6C642063757272656E742074B8
:104A700072756E636174656420746F2052756E2068
:104A800063757272656E740025632533642F256427
:104A900081005A25362E32662563005A2020202DAB
:104AA0002D2D2000862533642525002D2D2D25252F
:104AB00000253364252500205344002020200020B9
:104AC000484F002046524D20008725337568202529
:104AD0006325630087253032753A253032752563AA
:104AE0002563002F2F616374696F6E3A706175736F
:104AF0006564002F2F616374696F6E3A706175731E
:104B0000650044756D70206D656D6F727900686524
:104B10006C702E707275736133642E636F6D0066F6
:104B20006F72756D2E707275736133642E636F6D65
:104B300000707275736133642E636F6D004D373092
:104B400031007265636F7665725F6D616368696E6F
:104B5000655F73746174655F61667465725F706FC1
:104B60007765725F70616E69632C20696E69746924
:104B7000616C200050525553412075766C6F004790
:104B800034205330004D313130204E256C75004DAE
:104B900032362053256C75004D3130362053257543
:104BA00000473120462564004D3832004739322015
:104BB00045252D2E3366004D3230342050252D2EC4
:104BC00031662052252D2E31662054252D2E31663A
:104BD000004731205A252D2E33660050525553413F
:104BE000204D424C2056310047312058252D2E3380
:104BF000662059252D2E3366204633303030002C68
:104C000020666565646D756C7469706C793A0046F0
:104C1000656564726174653A004731204535204608
:104C2000313230004D31303920532564004D31345C
:104C30003020532564004D31303420532564004723
:104C4000323820582059004731205A252E3366200B
:104C500046383030005265636F766572696E672042
:104C60007072696E7400544845524D414C20414E5B
:104C70004F4D414C5900526573756D696E672070D8
:104C800072696E740050494E4441204865617469F0
:104C90006E670043616C6962726174696F6E206453
:104CA0006F6E650043616C6962726174696E672042
:104CB0005A0042656420646F6E6500426564204856
:104CC000656174696E670048656174696E67206428
:104CD0006F6E652E0048656174696E67004D4D55B5
:104CE00020706F776572206661696C73004D4D5559
:104CF000206C6F6164206661696C73004D4D5520B6
:104D00006661696C73004D6174657269616C2063E2
:104D100068616E67657300546F74616C20666169C9
:104D20006C757265730043726173680046696C2E1E
:104D30002072756E6F75747300506F7765722066A0
:104D400061696C75726573004C617374207072696F
:104D50006E74206661696C7572657300546F74615E
:104D60006C004C617374207072696E7400416D62E6
:104D700069656E7400566F6C746167657300546585
:104D80006D7065726174757265730042656C742034
:104D90007374617475730053656E736F7220696EFE
:104DA000666F00457874727564657220696E666F0F
:104DB0000058595A2063616C2E2064657461696CD7
:104DC00073005072696E74657220495020416464AA
:104DD000723A00756E6B6E6F776E004D4D552063A5
:104DE0006F6E6E656374656400446174653A007447
:104DF0006F20756E6C6F61642066696C616D656EA5
:104E00007400746F206C6F61642066696C616D65FD
:104E10006E7400507265737320746865206B6E6FDA
:104E2000620050726568656174696E6720746F20F6
:104E30006375740050726568656174696E6720748B
:104E40006F20656A65637400507265686561746996
:104E50006E6720746F20756E6C6F616400507265B0
:104E600068656174696E6720746F206C6F6164009F
:104E7000436F6F6C646F776E007B5B4552523A00F4
:104E8000332E31342E31005D5B4657523A005D5B64
:104E900054494D3A005D5B464E4D3A005D5B4645D8
:104EA0004D3A005D5B5043443A005B5446553A002E
:104EB0005B50524E3A005B50464E3A305D005B44C8
:104EC00049413A005D5B4154423A005D5B415430D8
:104ED0003A005D5B5354423A005B5354303A007BD6
:104EE0005B50524E3A355D007B5B50524E3A305D1E
:104EF000007B5B50524E3A395D007B5B50524E3A1C
:104F0000385D007B5B5245533A305D5B46494C3A15
:104F1000007B5B5245533A315D5B46494C3A000099
:104F2000002110422063308440A550C660E770081D
:104F30008129914AA16BB18CC1ADD1CEE1EFF131A4
:104F400012100273325222B5529442F772D662396D
:104F50009318837BB35AA3BDD39CC3FFF3DEE362F4
:104F600024433420040114E664C774A44485546ABD
:104F7000A54BB528850995EEE5CFF5ACC58DD55384
:104F800036722611163006D776F6669556B4465B0D
:104F9000B77AA719973887DFF7FEE79DD7BCC7C454
:104FA00048E5588668A7784008611802282338CC5D
:104FB000C9EDD98EE9AFF9488969990AA92BB9F5E4
:104FC0005AD44AB77A966A711A500A333A122AFDAD
:104FD000DBDCCBBFFB9EEB799B588B3BBB1AABA6B4
:104FE0006C877CE44CC55C222C033C600C411CAEFD
:104FF000ED8FFDECCDCDDD2AAD0BBD688D499D97C4
:105000007EB66ED55EF44E133E322E511E700E9F4C
:10501000FFBEEFDDDFFCCF1BBF3AAF599F788F8813
:1050200091A981CAB1EBA10CD12DC14EF16FE180E4
:1050300010A100C230E3200450254046706760B9DB
:10504000839893FBA3DAB33DC31CD37FE35EF3B134
:10505000029012F322D2323542145277625672EA2B
:10506000B5CBA5A89589856EF54FE52CD50DC5E284
:1050700034C324A01481046674476424540544DBBB
:10508000A7FAB79987B8975FE77EF71DC73CD7D3D4
:1050900026F2369106B01657667676154634564C8B
:1050A000D96DC90EF92FE9C899E9898AB9ABA94424
:1050B00058654806782768C018E1088238A3287D1B
:1050C000CB5CDB3FEB1EFBF98BD89BBBAB9ABB7574
:1050D0004A545A376A167AF10AD01AB32A923A2EEB
:1050E000FD0FED6CDD4DCDAABD8BADE89DC98D26C4
:1050F0007C076C645C454CA23C832CE01CC10C1FFB
:10510000EF3EFF5DCF7CDF9BAFBABFD98FF89F1713
:105110006E367E554E745E932EB23ED10EF01E7CDE
:105120003C3E3F2F2A225C0024F4D43050C38E2012
:10513000C2A24017828B7011127A910D816CD90A2C
:10514000A861E108C7586607615143061E4B5D051B
:10515000C145A7041A411104093D9803713931036F
:105160004036DB0265339102D4305402802E1D029A
:10517000632CEE01752AC501B028A001102781011A
:105180008F2564012B244B01E0223401AC211F0147
:105190008D200D01801FFC00841EED00971DDF0097
:1051A000B81CD200E61BC600201BBC00641AB2006B
:1051B000B219A8000A19A0006A189900D117910025
:1051C00040178B00B516840031167E00B3157900A8
:1051D0003A157300C7146F0058146A00EE13660086
:1051E0008813630025135E00C7125B006C12570022
:1051F00015125400C111510070114F0021114B00C4
:10520000D61049008D10470046104400021042009D
:10521000C00F4000800F3E00420F3C00060F3B00D5
:10522000CB0E3800930E37005C0E3500270E34008D
:10523000F30D3200C10D3100900D3000600D2E00D5
:10524000320D2D00050D2C00D90C2B00AE0C2900C1
:10525000850C29005C0C2700350C27000E0C26005D
:10526000E80B2400C40B2400A00B23007D0B2300BB
:105270005A0B2100390B2100180B2000F80A1F00DF
:10528000D90A1E00BB0A1E009D0A1D00800A1D00CF
:10529000630A1C00470A1B002C0A1B00110A1A0093
:1052A000F7091A00DD091900C4091900AB09190032
:1052B000920917007B091800630917004C091600B2
:1052C00036091600200916000A091500F508150010
:1052D000E0081400CC081400B8081400A408140056
:1052E000900813007D0812006B0813005808120084
:1052F000460812003408110023081100120811009A
:1053000001081100F0071000E0071000D00710009E
:10531000C0071000B0070F00A107100091070E0092
:1053200083070F0074070F0065070E0057070E0074
:1053300049070E003B070D002E070E0020070D0049
:1053400013070D0006070D00F9060C00ED060D0011
:10535000E0060C00D4060C00C8060C00BC060C00CD
:10536000B0060C00A4060B0099060C008D060B007D
:1053700082060B0077060B006C060B0061060A0024
:1053800057060B004C060A0042060A0038060A00BF
:105390002E060A0024060A001A060A001006090052
:1053A00007060A00FD050900F4050900EB050900E0
:1053B000E2050900D9050900D0050900C705090063
:1053C000BE050900B5050800AD050800A5050900E2
:1053D0009C050800940508008C0508008405080059
:1053E0007C050800740508006C05070065050800C9
:1053F0005D050700560508004E0507004705070034
:105400004005080038050700310507002A05070098
:10541000230507001C050600160507000F050700F9
:105420000805060002050700FB040600F504070056
:10543000EE040600E8040600E2040700DB040600B0
:10544000D5040600CF040600C9040600C304060004
:10545000BD040600B7040600B1040500AC04060054
:10546000A6040600A00405009B04060095040500A0
:10547000900406008A0405008504050080040600E7
:105480007A04050075040500700405006B0405002E
:1054900066040500610405005C040500570405006E
:1054A000520405004D0405004804050043040500AE
:1054B0003E0404003A0405003504050030040400ED
:1054C0002C04050027040400230405001E04040026
:1054D0001A04040016040500110404000D0404005D
:1054E000090405000404040000040400FC03040093
:1054F000F8030400F4030400F0030400EC030400C8
:10550000E8030400E4030400E0030400DC030400F7
:10551000D8030400D4030400D0030400CC03040027
:10552000C8030300C503030024F404D9201BC40CE2
:105530005C0E9804C4095F0265077101F405F90067
:10554000FB04B30048048700C103690058035500F9
:1055500003034500BE023A008402310053022A00D0
:105560002902250004022000E4011C00C8011900E2
:10557000AF0117009801140084011300710110009D
:105580006101100051010E0043010D0036010B00B6
:105590002B010B0020010B00150109000C01090073
:1055A00003010800FB000800F3000800EB000700FF
:1055B000E4000600DE000600D8000600D200060067
:1055C000CC000500C7000500C2000500BD000400B6
:1055D000B9000400B5000400B1000400AD000400EF
:1055E000A9000400A5000300A20003009F0004001E
:1055F0009B00030098000300950002009300030045
:10560000900003008D0002008B0003008800020060
:105610008600020084000300810002007F00020077
:105620007D0002007B00020079000200770001008B
:105630007600020074000200720001007100020096
:105640006F0002006D0001006C0002006A000100A2
:1056500069000200670001006600010065000100AA
:1056600064000200620001006100010060000100AE
:105670005F0002005D0001005C0001005B000100B2
:105680005A000100590001005800010057000100B4
:1056900056000100550001005400010053000000B5
:1056A00053000100520001005100010050000100B0
:1056B0004F0001004E0000004E0001004D000100AF
:1056C0004C0001004B0000004B0001004A000100AB
:1056D00049000100480000004800010047000100A7
:1056E00046000000460001004500000045000100A2
:1056F000440001004300000043000100420000009C
:105700004200010041000000410001004000010092
:105710003F0000003F0001003E0000003E0001008D
:105720003D0000003D0001003C0000003C00000086
:105730003C0001003B0000003B0001003A0000007B
:105740003A00010039000000390001003800000073
:105750003800000038000100370000003700010069
:105760003600000036000000360001003500000061
:105770003500000035000100340000003400000056
:10578000340001003300000033000000330001004A
:105790003200000032000000320001003100000041
:1057A0003100000031000100300000003000000036
:1057B000300001002F0000002F0000002F0000002B
:1057C0002F0001002E0000002E0000002E0001001E
:1057D0002D0000002D0000002D0000002D00010014
:1057E0002C0000002C0000002C0000002C00010008
:1057F0002B0000002B0000002B0000002B000100FC
:105800002A0000002A0000002A0000002A000100EF
:1058100029000000290000002900000029000000E4
:1058200029000100280000002800000028000000D6
:1058300028000000280001002700000027000000C9
:1058400027000000270000002700010026000000BC
:1058500026000000260000002600000026000100AF
:1058600025000000250000002500000025000000A4
:105870002500000025000100240000002400000095
:105880002400000024000000240001002300000088
:10589000230000002300000023000000230000007C
:1058A000230000002300010022000000220000006D
:1058B000220000002200000022000000220001005F
:1058C0002100000021000000210000002100000054
:1058D0002100000021000000210001002000000044
:1058E0002000000020000000200000002000000038
:1058F0002000000020000000200001001F00000028
:105900001F0000001F0000001F0000001F0000001B
:105910001F0000001F0001001E0000001E0000000C
:105920001E0000001E000000504944204175746FA5
:1059300074756E652066696E6973686564212050B0
:10594000757420746865206C617374204B702C2012
:105950004B6920616E64204B6420636F6E737461C9
:105960006E74732066726F6D2061626F7665206958
:105970006E746F20436F6E66696775726174696FCC
:105980006E2E6800504944204175746F74756E65C1
:10599000206661696C6564212074696D656F75743A
:1059A0000020403A00543A00423A00504944204115
:1059B00075746F74756E65206661696C656421200D
:1059C00054656D706572617475726520746F6F20B7
:1059D0006869676800204B643A2000204B693A20D0
:1059E00000204B703A200020436C61737369632080
:1059F00050494420002054753A2000204B753A202D
:105A000000206D61783A2000206D696E3A200020F8
:105A1000643A200020626961733A200050494420B2
:105A20004175746F74756E65207374617274005083
:105A30004944204175746F74756E65206661696CA8
:105A400065642E20426164206578747275646572A5
:105A5000206E756D6265722E00544D4C20256420B9
:105A6000256420257820256C7820256C780A004D47
:105A7000494E54454D50004D494E54454D502042DD
:105A80004544004D494E54454D5020414D42004D36
:105A9000415854454D50004D415854454D502042B9
:105AA0004544004D415854454D5020414D4200540D
:105AB0004D3A206572726F7220636C656172656425
:105AC00000544D3A206572726F7220747269676774
:105AD000657265642100544D3A206572726F7220C0
