:100000000C94AD3A0C94DE3A0C94DE3A0C94DE3A41
:100010000C94DE3A0D94E7650C94DE3A0C94DE3ACB
:100020000C94FA6B0C94DE3A0C94DE3A0C94DE3AA3
:100030000C9481570C94DE3A0D944B290D94D822E0
:100040000C94DE3A0D944D300C94DE3A0C94DE3A6A
:100050000C94DE3A0C94DE3A0C94DE3A0C942E6B3F
:100060000C94DE3A0C94FE530C94DE3A0C94DE3A77
:100070000C94DE3A0C94F18C0C94DE3A0C94DE3A3B
:100080000C94DE3A0C94DE3A0C94DE3A0C94DE3A90
:100090000C94BA530C94DE3A0C94DE3A0C94DE3A8B
:1000A0000C94DE3A0C94DE3A0D94CA1A0C94DE3AA3
:1000B0000C94DE3A0D94AC1A0C94DE3A0D94952E05
:1000C0000C94DE3A0C94DE3A0C94DE3A0D946C1AE1
:1000D0000C94DE3A0C94DE3A0C94DE3A0C94DE3A40
:1000E0000C94DE3A084AD73B3BCE016E84BCBFFD80
:1000F000C12F3D6C74319ABD56833DDA3D00C77FF8
:1001000011BED9E4BB4C3E916BAAAABE0000008090
:100110003F05A84CCDB2D44EB93836A9020C50B91F
:10012000918688083CA6AAAA2ABE000000803F0744
:10013000634236B79BD8A71A39685618AEBAAB5582
:100140008C1D3CB7CC5763BD6DEDFD753EF6177247
:1001500031BF000000803F08000000BE9224491219
:100160003EABAAAA2ABECDCCCC4C3E00000080BE3D
:10017000ABAAAAAA3E00000000BF000000803F001A
:1001800000000000084178D3BB4387D1133D190E0E
:100190003CC3BD4282AD2B3E68EC8276BED98FE176
:1001A000A93E4C80EFFFBE01C4FF7F3F000000006E
:1001B00000000D9445790C94B1C90C94F0DC0D94B9
:1001C00022140D94B33C0C946FDB0C94BBCD0D94B6
:1001D0003E160C94C8DC0D9417090C94F9C90C94C4
:1001E000DFDC0C94BCCA0C9495F60C940BC70C94F1
:1001F00030C70D94C3210D94340E0C94D1E50C94AA
:100200000CCA0C9428D10C94D8CA0D9496090C945D
:1002100026C70C9486E50D94540E0C94C3F90C94E7
:1002200061F30C9474E50D94623C0C94D4C80D9465
:10023000E8A90D94A2250D947B150C94D46B0C9415
:10024000AECB0C943EEA0D94B0210C94F0D50C94F6
:10025000776D0C9432FA0C940BDF0C941CC70C9441
:10026000EDF30D9406220D9492080C94136A0C94ED
:10027000D7EE0C946FF20C94E2C80D9480130C949A
:10028000E9C80C94966B0C94A9E50C944FDA0D9484
:10029000230E0D9402180C94BF6A0C9483CD0C9419
:1002A000676B0D9475A90C9491C90C94726B0C94A6
:1002B00001C80C949DD60C949BC90D94CD0B0D9444
:1002C00095190C94B0DB0C9445C90D9461220C94E3
:1002D000D4DC0C94B5CA0C94A7F80D94C1AD0C9461
:1002E000806B0C94596F0D94D63B0C94CDF90D9402
:1002F00058130D94BEB30D94F7150C9412C70C94BB
:10030000FDC60D94BBB30C943DC70C940BDB0C9451
:1003100065CD0D949E090D94DCA90D94A4AD0C94AB
:1003200007C80D94560A0D94FC140D9448220C94A1
:1003300066EF0C94BDE50D94500B0D94C4AD0C9478
:100340001CFA0C94F7CD0C9442FA0C9426C90C9428
:10035000E2C90D948A480C944EE50C949F6B0D9461
:10036000B4090D94C3130C9443E00C9491CC0C94F9
:1003700057C90C94B9DB0C9404EF0C9489F90D94D3
:1003800027080C9450D10C947FF90C945BCC0D94FD
:10039000D9A90D94CBB30C94B6DC0C947DC90C9404
:1003A0003DDD0D949A090D94933C0C9442C70C9436
:1003B0009FEA0D94CB3C0D94C7AD0D94FE3B0D947C
:1003C000F70E0C94DDD10D94D00B0D949B3C0D9445
:1003D000BB3C0C9405DB0D9406180D94A2150C94EF
:1003E00046C70C9490F20D9459B30D9462AD0C94E1
:1003F0004AC70D94C2B30C9491F90D9490A90C9432
:10040000EEDC0C949AE50C9484DD0C946CE50D9470
:10041000D90B0C9418C70D9491140C94F8CF0D942B
:100420007EA90D94AB3C0D94383C0C947FDB0C946E
:1004300032C90D9439220C94A5C90C94BCDC0C94DF
:100440000FC70C94D7C90D94D30B0C9425ED0D94C4
:10045000733C0D94B7060C943EC70C946E540C94E8
:1004600062E50C9448DC0C9466C90C941CF90D945C
:10047000053C0C946FCD0C9414DF0C94F0CF0D94CC
:100480006B3C0C94DBC80C94DBE50D947B3C0D9429
:10049000653C0D94BE3B0C94BBC90D94F1A90C9422
:1004A000C26B0C9449E50C9479CD0C9434C70C9430
:1004B000F0C80C94C2DC0C941BEE0C9490E50C94E8
:1004C00058E50D9449AD0D94C70B0C94FEF90C94AE
:1004D0006ACF0C9422C70C94FAF90C9459F90C9435
:1004E0007CE50D94DF0E0C9407C70C94D2D50D94C7
:1004F000833C0C9460CD0D94B7130D948E080D942D
:1005000092090D9444150C943FF70C944FC70C942A
:10051000E6D30C942ACC0D94DC180C94C5C90D9428
:10052000C33C0C9441E50D94E5170C9472C90C94EE
:10053000E5F90C94CAEB0D948B3C0C941FCB0D94F5
:10054000D4130C944D6B0D948C090C946ACD0D94BE
:10055000BD060C9445DA0C9487EE0C9474CD0D9482
:10056000DF1F0D94D6A90C9438C70D94A33C0C94AE
:10057000D8680D94083C0D9453140C947ECD0C94C3
:1005800059D10D9446130D94CA0B0C9420D50D949B
:10059000D60B0C94B3E50C945DCE0C9478EC0C94D3
:1005A00003C70C94E0C70D94DFA90D94FB3B0D9499
:1005B000D0B30C9442DD0D949FB30C9487C90D9475
:1005C000683C0C9487CD0C94F4F90D94A60D0C9412
:1005D0001DDF0D94CDA90C9402DF0C942AC70C9456
:1005E000C7E50D941E1A0C941CC96E616E00696EED
:1005F000660000407A10F35A00A0724E18090010ED
:10060000A5D4E80000E87648170000E40B54020087
:1006100000CA9A3B000000E1F505000080969800B2
:10062000000040420F000000A086010000001027DB
:1006300000000000E803000000006400000000006B
:100640000A00000000000100000000002C76D8889D
:10065000DC674F0823DFC1DFAE59E1B1B796E5E3B0
:10066000E453C63AE651997696E8E6C28426EB89C9
:100670008C9B62ED407C6FFCEFBC9C9F40F2BAA566
:100680006FA5F490055A2AF75C936B6CF9676DC1FE
:100690001BFCE0E40D47FEF520E6B500D0ED902E02
:1006A0000300943577050080841E080000204E0A60
:1006B000000000C80C333333330F986E128311419E
:1006C000EF8D2114893BE65516CFFEE6DB18D18469
:1006D0004B381BF77C1D901DA4BBE4242032847290
:1006E0005E228100C9F124ECA1E53D27556E6578B5
:1006F000706563746564206572726F72206F6363E6
:1007000075727265642E004D3630302046696C611A
:100710006D656E74204368616E67652E204C6F6155
:10072000642061206E65772066696C616D656E740A
:10073000206F7220656A65637420746865206F6C31
:1007400064206F6E652E0052656D6F76652074684B
:100750006520656A65637465642066696C616D65B2
:100760006E742066726F6D207468652066726F6E9D
:1007700074206F6620746865204D4D552E004669C3
:100780006C616D656E742064657465637465642066
:10079000756E65787065637465646C792E20456E3E
:1007A00073757265206E6F2066696C616D656E741D
:1007B000206973206C6F616465642E2043686563F3
:1007C0006B207468652073656E736F727320616E41
:1007D0006420776972696E672E00496E7465726E67
:1007E000616C2072756E74696D65206572726F72CE
:1007F0002E2054727920726573657474696E672057
:10080000746865204D4D55206F7220757064617459
:10081000696E6720746865206669726D77617265BC
:100820002E004D4D552046572076657273696F6EC8
:1008300020697320696E636F6D70617469626C65A5
:100840002077697468207072696E746572204657EB
:100850002E55706461746520746F207665727369BB
:100860006F6E20332E302E332E004D4D55204669AD
:10087000726D7761726520696E7465726E616C204D
:100880006572726F722C20706C6561736520726581
:1008900073657420746865204D4D552E0052657146
:1008A0007565737465642066696C616D656E74202E
:1008B000746F6F6C206973206E6F7420617661694C
:1008C0006C61626C65206F6E20746869732068616A
:1008D0007264776172652E20436865636B2074686B
:1008E0006520472D636F646520666F7220746F6F9B
:1008F0006C20696E646578206F7574206F66207255
:10090000616E6765202854302D5434292E004361D0
:100910006E6E6F7420706572666F726D207468659C
:1009200020616374696F6E2C2066696C616D656E01
:100930007420697320616C7265616479206C6F61E9
:100940006465642E20556E6C6F6164206974206646
:10095000697273742E004D4D55206E6F7420726550
:1009600073706F6E64696E6720636F727265637413
:100970006C792E20436865636B2074686520776905
:1009800072696E6720616E6420636F6E6E6563745A
:100990006F72732E004D4D55206E6F74207265730B
:1009A000706F6E64696E672E20436865636B207498
:1009B000686520776972696E6720616E6420636F75
:1009C0006E6E6563746F72732E004D6F7265206476
:1009D000657461696C73206F6E6C696E652E00546E
:1009E00068652049646C65722063616E6E6F742067
:1009F000686F6D652070726F7065726C792E204320
:100A00006865636B20666F7220616E797468696EC9
:100A10006720626C6F636B696E6720697473206D09
:100A20006F76656D656E742E0043616E2774206D60
:100A30006F76652053656C6563746F72206F7220EA
:100A400049646C65722E005468652053656C65635B
:100A5000746F722063616E6E6F7420686F6D6520B5
:100A600070726F7065726C792E20436865636B20BD
:100A7000666F7220616E797468696E6720626C6F50
:100A8000636B696E6720697473206D6F76656D6541
:100A90006E742E004C6F6164696E6720746F206500
:100AA00078747275646572206661696C65642E2065
:100AB000496E7370656374207468652066696C6143
:100AC0006D656E74207469702073686170652E2086
:100AD000526566696E65207468652073656E736F14
:100AE000722063616C6962726174696F6E2C206937
:100AF00066206E65656465642E0053656C6563747D
:100B00006F722063616E2774206D6F766520647547
:100B10006520746F2046494E4441206465746563C6
:100B200074696E6720612066696C616D656E742EF4
:100B3000204D616B652073757265206E6F2066694C
:100B40006C616D656E7420697320696E2053656CED
:100B50006563746F7220616E642046494E44412083
:100B6000776F726B732070726F7065726C792E0084
:100B700046696C616D656E742073656E736F72206B
:100B800074726967676572656420746F6F20656150
:100B9000726C79207768696C65206C6F6164696E2E
:100BA0006720746F2065787472756465722E2043B7
:100BB0006865636B2074686572652069736E27745D
:100BC00020616E797468696E6720737475636B2039
:100BD000696E205054464520747562652E20436826
:100BE00065636B20746861742073656E736F722027
:100BF00072656164732070726F7065726C792E001B
:100C000050756C6C6579206D6F746F7220737461B0
:100C10006C6C65642E20456E737572652074686512
:100C20002070756C6C65792063616E206D6F7665E0
:100C300020616E6420636865636B2074686520774B
:100C40006972696E672E0046696C616D656E74200D
:100C500073656E736F72206469646E277420737796
:100C600069746368206F6666207768696C652075B3
:100C70006E6C6F6164696E672066696C616D656E2C
:100C8000742E20456E737572652066696C616D65A2
:100C90006E742063616E206D6F766520616E6420D6
:100CA0007468652073656E736F7220776F726B73F3
:100CB0002E0046696C616D656E742073656E736F8E
:100CC00072206469646E2774207472696767657244
:100CD000207768696C65206C6F6164696E67207449
:100CE00068652066696C616D656E742E20456E7353
:100CF000757265207468652073656E736F72206904
:100D0000732063616C6962726174656420616E64F2
:100D1000207468652066696C616D656E742072650B
:100D200061636865642069742E0046494E44412021
:100D30006469646E277420737769746368206F66D2
:100D400066207768696C6520756E6C6F6164696E8A
:100D5000672066696C616D656E742E20547279200F
:100D6000756E6C6F6164696E67206D616E75616C24
:100D70006C792E20456E737572652066696C616DA5
:100D8000656E742063616E206D6F766520616E64A0
:100D90002046494E444120776F726B732E004649BE
:100DA0004E4441206469646E2774207472696767D9
:100DB0006572207768696C65206C6F6164696E6725
:100DC000207468652066696C616D656E742E2045BF
:100DD0006E73757265207468652066696C616D65F7
:100DE0006E742063616E206D6F766520616E642085
:100DF00046494E444120776F726B732E00446973ED
:100E000061626C650053746F70004C6F61640055D3
:100E10006E6C6F61640052657365744D4D55005280
:100E200065747279004372617368206465746563E8
:100E30007465642E00536F6D652070726F626C650F
:100E40006D20656E636F756E74657265642C205AD3
:100E50002D6C6576656C696E6720656E666F726372
:100E60006564202E2E2E004D657368206265642017
:100E70006C6576656C696E67206661696C65642E69
:100E8000205072696E742063616E63656C65642EB8
:100E90000048656174696E672064697361626C659E
:100EA00064206279207361666574792074696D6568
:100EB000722E0053544F505045442E00504155530C
:100EC000454420544845524D414C204552524F52C2
:100ED00000472D636F646520736C696365642066E9
:100EE0006F72206120646966666572656E74206C3D
:100EF0006576656C2E20506C656173652072652D7A
:100F0000736C69636520746865206D6F64656C201F
:100F1000616761696E2E205072696E742063616E24
:100F200063656C6C65642E00472D636F6465207388
:100F30006C6963656420666F72206120646966660F
:100F40006572656E74206C6576656C2E20436F6EDD
:100F500074696E75653F00472D636F646520736C1F
:100F60006963656420666F722061206E65776572C3
:100F7000206669726D776172652E20506C656173B1
:100F80006520757064617465207468652066697297
:100F90006D776172652E205072696E742063616E88
:100FA00063656C6C65642E00472D636F6465207308
:100FB0006C6963656420666F722061206E65776579
:100FC00072206669726D776172652E20436F6E7450
:100FD000696E75653F00472D636F646520736C69AA
:100FE00063656420666F722061206469666665725D
:100FF000656E74207072696E7465722074797065A4
:101000002E20506C656173652072652D736C696369
:101010006520746865206D6F64656C206167616927
:101020006E2E205072696E742063616E63656C6C05
:1010300065642E00472D636F646520736C6963657A
:101040006420666F72206120646966666572656EF1
:1010500074207072696E74657220747970652E20C8
:10106000436F6E74696E75653F00507265737320CF
:10107000746865206B6E6F6220746F207072656893
:10108000656174206E6F7A7A6C6520616E6420638E
:101090006F6E74696E75652E00506C6561736520A6
:1010A000707265737320746865206B6E6F62207454
:1010B0006F20756E6C6F61642066696C616D656E22
:1010C0007400616E642070726573732074686520AB
:1010D0006B6E6F6200496E736572742066696C6135
:1010E0006D656E7400436F6C6F72206E6F74206359
:1010F0006F72726563740046696C616D656E742011
:101100006E6F74206C6F61646564004368616E6724
:10111000656420636F72726563746C79004C6F61F3
:1011200064696E6720636F6C6F72004368616E67FD
:101130006520737563636573732100506C6561731B
:1011400065206F70656E2069646C657220616E64E5
:101150002072656D6F76652066696C616D656E7471
:10116000206D616E75616C6C792E0057617320661D
:10117000696C616D656E7420756E6C6F616420734F
:1011800075636365737366756C3F00506C6561735E
:101190006520757067726164652E004E6577206604
:1011A00069726D776172652076657273696F6E2002
:1011B000617661696C61626C653A00576169746956
:1011C0006E6720666F722050494E44412070726FE6
:1011D000626520636F6F6C696E6700506C65617348
:1011E000652077616974004E6F206D6F76652E0003
:1011F0005761697420666F7220757365722E2E2E8A
:1012000000537461626C6520616D6269656E742063
:1012100074656D70657261747572652032312D323E
:101220003643206973206E656564656420612072B1
:1012300069676964207374616E64206973207265E4
:101240007175697265642E00506C656173652072FA
:10125000756E2058595A2063616C696272617469B5
:101260006F6E2066697273742E00426564206C652F
:1012700076656C696E67206661696C65642E2053C3
:10128000656E736F72206469646E2774207472696E
:10129000676765722E20446562726973206F6E20E5
:1012A0006E6F7A7A6C653F2057616974696E67204A
:1012B000666F722072657365742E0053656E736974
:1012C00074697669747900446F6E65002200656EFA
:1012D000717565696E67202200446F6E65207072BB
:1012E000696E74696E672066696C65004E6F204C8C
:1012F000696E65204E756D6265722077697468202D
:10130000636865636B73756D2C204C617374204C3E
:10131000696E653A20004E6F20436865636B737594
:101320006D2077697468206C696E65206E756D62DA
:1013300065722C204C617374204C696E653A2000F4
:10134000636865636B73756D206D69736D6174633C
:10135000682C204C617374204C696E653A20004CF7
:10136000696E65204E756D626572206973206E6FBF
:1013700074204C617374204C696E65204E756D62EB
:1013800065722B312C204C617374204C696E653A68
:101390002000256C752062797465732077726974FA
:1013A00074656E20746F202553206174206164641D
:1013B000726573732030782530346C780A004425C8
:1013C00064202D20526561642F5772697465202551
:1013D000530A0020436F756E7420583A2000453040
:1013E0003A25642052504D2050524E313A25642007
:1013F00052504D204530403A25752050524E3140D4
:101400003A25750A00526573656E640025533A20CB
:10141000256C640A25530A002F2F616374696F6E6F
:101420003A6E6F74696669636174696F6E202553E3
:101430000A0046696C616D656E742072756E6F7519
:101440007420646574656374656421005072696E0C
:101450007465722073746F707065642064756520A4
:10146000746F206572726F72732E2053757065727F
:10147000766973696F6E2072657175697265642E25
:101480000064756D7020636C65617265640A006E3E
:101490006F2064756D7020617661696C61626C6546
:1014A0000A00443231202D2072656164206372612C
:1014B00073682064756D700A006E6F2064756D70BE
:1014C00020617661696C61626C650A0064756D709B
:1014D00020636F6D706C6574656420696E20256C87
:1014E000756D730A0058464C4153480045455052AB
:1014F0004F4D005352414D00442D31202D20456E5B
:10150000646C657373206C6F6F700A00416374695B
:1015100076652045787472756465723A20300049AA
:101520006E76616C696420657874727564657200AA
:10153000746D63323133305F7072696E745F6375DE
:101540007272656E747328290A094809520A58098B
:1015500025640925640A590925640925640A5A097C
:1015600025640925640A450925640925640A005390
:1015700044207072696E74696E67206279746520A8
:1015800000257500556E6B6E6F776E20636F6D6D05
:10159000616E643A2022004D32303020496E76610F
:1015A0006C696420657874727564657220007A5F76
:1015B0006D61783A20007A5F6D696E3A2000795F3C
:1015C0006D61783A2000795F6D696E3A2000785F2E
:1015D0006D61783A200054524947474552454400CE
:1015E0006F70656E00785F6D696E3A2000526570AD
:1015F0006F7274696E6720656E6473746F702073A8
:101600007461747573004D3131322063616C6C65A7
:10161000642E20456D657267656E63792053746F23
:10162000702E002F2F616374696F6E3A75766C6F40
:101630005F7265636F766572795F72656164790068
:101640002F2F616374696F6E3A75766C6F5F617589
:10165000746F5F7265636F766572795F72656164DE
:10166000790053494C454E54004E4F524D414C0069
:101670002553204D4F44453A2050657263656E7482
:1016800020646F6E653A20256868643B207072693B
:101690006E742074696D652072656D61696E696E26
:1016A0006720696E206D696E733A2025643B204384
:1016B00068616E676520696E206D696E733A2025DA
:1016C000640A005072696E74657253746174653A8D
:1016D0002025640A00456E642066696C65206C698B
:1016E000737400426567696E2066696C65206C6979
:1016F000737400556E6B6E6F776E20256320636F79
:1017000064653A2025730A000A50494E444120740A
:10171000656D70657261747572653A20252E31664B
:10172000205A20736869667420286D6D293A202537
:101730002E3366000A537465703A2025642F360AEA
:10174000000A537465703A2025642F362028736B85
:101750006970706564290A50494E44412074656D72
:1017600070657261747572653A202564205A207321
:101770006869667420286D6D293A300A000A5A4556
:10178000524F3A20252E33660A007374617274201A
:1017900074656D70657261747572653A20252E31BD
:1017A000660A0025642020252E3266002553205825
:1017B0003A20252E356620593A20252E3566205AA6
:1017C0003A20252E35660A00536C6565702E2E2E44
:1017D0000045303A25642052504D0A50524E303A5E
:1017E00025642052504D0A00312F39008800002016
:1017F00045535000204E535000204F464600204F86
:101800004E005056303100205B4D505D2000256960
:1018100020686F757273202569206D696E75746517
:10182000730052582074696D656F7574004D3331C3
:1018300030004D313132004D3131300046756C6C25
:10184000205258204275666665720053657474694B
:101850006E67732053746F72656400544D3A207341
:10186000746F7265642063616C6962726174696F20
:101870006E20696E76616C69642C20726573657484
:1018800074696E670053746F726564207365747455
:10189000696E677320726574726965766564004865
:1018A000617264636F6465642044656661756C741D
:1018B0002053657474696E6773204C6F616465644E
:1018C00000563200000000C8420000C8420000C8B4
:1018D0004300008C430000484300004843000040A0
:1018E000410000F042E8030000E8030000C80000E7
:1018F000008813000000409C4400409C440000000D
:101900000000000000204E000000002041000020E8
:1019100041CDCCCC3E000090400000000000000013
:101920000000000000CDCCCC3E000070410745F324
:101930003E0160EA428F42FC42E65A343F4C62B0BC
:10194000450000000000404000003442000000005C
:101950000000000000000041000000E03F0000C85F
:10196000420000C842000040410000F042C00300B5
:1019700000C0030000C80000008813000010101011
:101980002000409C440000803F0000003F191400EC
:101990000000437573746F6D004E796C6F6E50412B
:1019A00000536174696E202000546578747572006C
:1019B000536D6F6F746800486F74656E6420666164
:1019C0006E207370656564206973206C6F77657233
:1019D000207468616E20657870656374656400507A
:1019E00072696E742066616E20737065656420692B
:1019F00073206C6F776572207468616E20657870F3
:101A0000656374656400312E3000312E3500554E0B
:101A10004B4E4F574E004C413130433A204C696E8B
:101A200065617220416476616E6365206D6F6465E7
:101A30003A20004C413130433A2041646A75737456
:101A4000656420452D4A65726B3A20003E0FA8AFB1
:101A500000480069960000DF602555588768042714
:101A6000F2E0005E3403CC1960F33C0EF88F00DB2B
:101A700008029492003E1C079A8700E524008528FE
:101A8000527E06001BE4007E781270787061F812B6
:101A9000788F8841784270787061782570787061AD
:101AA000F850788F88D1F02527078761F025278F98
:101AB00088412C0D27AA50D1BC0707871161BE7839
:101AC0008F881141785270787061F852788F884110
:101AD0002012788870632052788870634852788822
:101AE0008743031117997064181278F870654412CF
:101AF000F8F8F045184278F87065182578F87065A0
:101B0000185278F87065185078F870650C078F8750
:101B10002365A20F8F8F11450012062270690012F3
:101B20000722274900250622706900250722274938
:101B300000120622276C026236A2706C40456C448B
:101B4000704C03622222706C43888888F04C7812B3
:101B5000BC88806E7852BC88806E38127888706F2E
:101B600078127888874F38427888706F382578885F
:101B7000706F3A0079AC786F3D079AAC786F785007
:101B8000788887EF39497888706F0852BC888072EE
:101B90009852F88F985220127870F0734812786338
:101BA000875320527870F073485278638753100738
:101BB000870F247312786387245360699A988BE2A5
:101BC0002304E4443074104E444324747C12888906
:101BD00060753C50888870557825288960757949EA
:101BE000088960753C12887070790C1288522259ED
:101BF0004412F124F07A4452F124F07A8C52F036F7
:101C00008F5A4420F124F07A00401454CDCCCC3DBE
:101C10000AD7233C17B7D13877CC2B329595E624D9
:101C20001FB14F0A000020410000C84200401C467E
:101C300020BCBE4CCA1B0E5AAEC59D744E414E49C7
:101C40004E46627573793A207061757365642066DB
:101C50006F7220696E70757400627573793A2070C6
:101C6000617573656420666F7220757365720062BA
:101C70007573793A2070726F63657373696E67006C
:101C800000007F43008054430000524300000000E6
:101C9000000080C09A99193E00000000000080C03A
:101CA0009A99193E0000A0400000A04000000040AA
:101CB00025336420737465703D253264206D736331
:101CC0006E743D2534640A0000007F430080584351
:101CD0009AD95143FFFFFF20413A0020503A00209B
:101CE00042403A0020403A00202F002054303A0071
:101CF000202F0020423A00202F00543A002553455F
:101D0000786365737369766520626564206C6576B7
:101D1000656C696E6720636F7272656374696F6E5C
:101D20003A202569206D6963726F6E730A004265FF
:101D300064206C6576656C696E67206661696C65A8
:101D4000642E20546F6F206D756368207661726910
:101D50006174696F6E2066726F6D20656570726F59
:101D60006D206D65736800426564206C6576656CF6
:101D7000696E67206661696C65642E2053656E73B9
:101D80006F722074726967676572656420746F6F23
:101D900020736F6F6E002020004D65617375726552
:101DA0006420706F696E74733A005A2073656172B3
:101DB0006368206865696768743A20352E3066006C
:101DC0004E756D20582C593A20372C37004D6573CD
:101DD0006820626564206C6576656C696E67206E4C
:101DE0006F74206163746976652E0020453A002087
:101DF0005A3A0020593A0020453A00205A3A002029
:101E0000593A00583A00202D3E200053706F6F6CF5
:101E10004A6F696E3A20002C2000496E6163746934
:101E2000766974792053687574646F776E004B49D6
:101E30004C4C45442E005072696E74657220686186
:101E40006C7465642E206B696C6C28292063616C4E
:101E50006C656421005A206C6976652061646A753E
:101E60007374206F7574206F662072616E67652EC3
:101E70002053657474696E6720746F20302E204380
:101E80006C69636B20746F20636F6E74696E756527
:101E90002E005A206C6976652061646A757374201F
:101EA0006F7574206F662072616E67652E205365B2
:101EB0007474696E6720746F20300020453A3020BA
:101EC000423A00543A004731205A252D2E336620DD
:101ED00046252D2E336600496E76616C6964205468
:101EE00020636F64652E004475706C69636174656E
:101EF00020542D636F64652069676E6F7265642E70
:101F000000416476616E6365204B3D004B206F7528
:101F100074206F6620616C6C6F7765642072616EEF
:101F2000676521004D4B33004D4B334D4D5533000C
:101F30005C762C012533642F25336400253364003F
:101F4000200A200A200A200025534172632053658D
:101F50007474696E67733A20503A4D6178206C65ED
:101F60006E677468286D6D2920533A4D696E206C38
:101F7000656E67746820286D6D29204E3A436F7234
:101F800072656374696F6E7320523A4D696E207387
:101F900065676D656E747320463A5365676D656E4F
:101FA00074732F7365632E0A255320204D3231340C
:101FB0002050252E32662053252E3266204E256471
:101FC00020522564204625640A00255346696C6129
:101FD0006D656E742073657474696E67733A20441E
:101FE000697361626C65640A00255346696C616DB2
:101FF000656E742073657474696E67733A0A25534D
:102000002020204D3230302044252E32660A002513
:1020100053526574726163743A20533D4C656E6728
:10202000746820286D6D2920463A537065656420D8
:10203000286D6D2F6D29205A3A205A4C69667420FC
:10204000286D6D290A25532020204D32303720532A
:10205000252E32662046252E3266205A252E3266DF
:102060000A25535265636F7665723A20533D457871
:10207000747261206C656E67746820286D6D29200C
:10208000463A537065656420286D6D2F6D290A25C9
:10209000532020204D3230382053252E32662046E2
:1020A000252E32660A25534175746F2D5265747260
:1020B0006163743A20533D3020746F20646973610A
:1020C000626C652C203120746F20696E74657270AB
:1020D00072657420657874727564652D6F6E6C79A5
:1020E000206D6F7665732061732072657472616311
:1020F0007473206F72207265636F766572696573A1
:102100000A25532020204D323039205325640A00FF
:102110002553504944206865617462656420736585
:102120007474696E67733A0A25532020204D33304A
:10213000342050252E32662049252E326620442533
:102140002E32660A00255350494420736574746921
:102150006E67733A0A25532020204D3330312050CA
:10216000252E32662049252E32662044252E3266E1
:102170000A00255353746570732070657220756E64
:1021800069743A0A255320204D39322058252E32C1
:10219000662059252E3266205A252E326620452586
:1021A0002E32660A25535553746570207265736F1D
:1021B0006C7574696F6E3A200A2553204D333530A3
:1021C0002058256420592564205A2564204525641B
:1021D0000A25534D6178696D756D20666565647279
:1021E00061746573202D206E6F726D616C20286D97
:1021F0006D2F73293A0A255320204D323033205851
:10220000252E32662059252E3266205A252E32661A
:102210002045252E32660A25534D6178696D756D0E
:1022200020666565647261746573202D2073746522
:10223000616C746820286D6D2F73293A0A2553202C
:10224000204D3230332058252E32662059252E322B
:1022500066205A252E32662045252E32660A2553E1
:102260004D6178696D756D20616363656C65726140
:1022700074696F6E202D206E6F726D616C20286DF9
:102280006D2F7332293A0A255320204D32303120E8
:1022900058256C752059256C75205A256C7520457C
:1022A000256C750A25534D6178696D756D206163E4
:1022B00063656C65726174696F6E202D207374653F
:1022C000616C746820286D6D2F7332293A0A25538A
:1022D00020204D3230312058256C752059256C75E1
:1022E000205A256C752045256C750A25534163637A
:1022F000656C65726174696F6E3A20503D707269E9
:102300006E742C20523D726574726163742C20547B
:102310003D74726176656C0A255320204D3230344D
:102320002050252E32662052252E32662054252E2E
:1023300032660A2553416476616E63656420766176
:10234000726961626C65733A20533D4D696E206617
:102350006565647261746520286D6D2F73292C206A
:10236000543D4D696E2074726176656C20666565BA
:10237000647261746520286D6D2F73292C20423D95
:102380006D696E696D756D207365676D656E74201E
:1023900074696D6520287573292C20583D6D61780E
:1023A000696D756D205859206A65726B20286D6DB6
:1023B0002F73292C20205A3D6D6178696D756D2031
:1023C0005A206A65726B20286D6D2F73292C20208E
:1023D000453D6D6178696D756D2045206A65726B4C
:1023E00020286D6D2F73290A255320204D3230355A
:1023F0002053252E32662054252E32662042256C2D
:10240000752058252E32662059252E3266205A25F1
:102410002E32662045252E32660A2553486F6D659B
:10242000206F666673657420286D6D293A0A2553FE
:1024300020204D3230362058252E32662059252E48
:102440003266205A252E32660A00544D3A20525BDD
:1024500025755D20657374696D6174652E00544D3A
:102460003A20255320522025644300544D3A20251C
:10247000532043206573742E00544D3A20636F6FD0
:102480006C20646F776E203C25644300726566693A
:102490006E6500696E697469616C00544D3A206321
:1024A000616C6962722E206661696C6564210054FA
:1024B0004D3A2063616C6962726174696F6E20735A
:1024C0007461727400544D3A2043616C2E204E4F5B
:1024D000542049444C45004361703A25533A2563E2
:1024E0000A0050525553415F4D4D553200455854E6
:1024F000454E4445445F4D3230004155544F52459E
:10250000504F52545F504F534954494F4E0041551C
:10251000544F5245504F52545F46414E530041551F
:10252000544F5245504F52545F54454D5000004453
:10253000656C6574696F6E206661696C65642C20DA
:1025400046696C653A200046696C652064656C6577
:102550007465643A004E6F74205344207072696E43
:1025600074696E67005072696E7420736176656479
:10257000005344207072696E7420706175736564D5
:10258000002533642F253364004F4B004241440043
:1025900052414D426F2046414E20006676007468DD
:1025A000780050524E0043524153485F43414E43DE
:1025B000454C0043524153485F5245434F564552A4
:1025C0000043524153485F5245434F564552002203
:1025D0002832290025533A2025530A002C204D3952
:1025E000303720452069676E6F726564006E6F201A
:1025F00076616C696420636F6D6D616E64007A65ED
:10260000726F72697A656400666163746F727920B3
:10261000726573746F72656400696E6465782C20EE
:1026200074656D702C2075737465702C20756D0049
:1026300050494E44412063616C207374617475731A
:102640003A2000503A005761697420666F7220503A
:10265000494E4441207461726765742074656D70E1
:10266000657261747572653A002041002050002047
:102670004200204C00205200205A00204E4F54208F
:10268000494E495449414C495A454400536865658F
:10269000742000205A2056414C5545204F55542057
:1026A0004F462052414E474500496E76616C696441
:1026B0002073686565742049442E20416C6C6F77E7
:1026C00065643A20302E2E004155544F004C414E47
:1026D000472053454C20464F524345440020643A1E
:1026E0000020693A0020703A0020643A0020693ADC
:1026F0000020703A00256925250A00256925250A4C
:102700000022283129002F2F00002045585452550F
:102710004445525F434F554E543A3100204D41439A
:1027200048494E455F545950453A00312E300020FB
:102730006261736564206F6E204D61726C696E20FA
:102740004649524D574152455F55524C3A68747450
:1027500070733A2F2F6769746875622E636F6D2FDF
:10276000707275736133642F50727573612D466991
:10277000726D776172652050524F544F434F4C5FDA
:1027800056455253494F4E3A003136353532663749
:102790006264005F0038323530002B004649524DEC
:1027A000574152455F4E414D453A50727573612D08
:1027B0004669726D7761726520004D313133205367
:1027C000006F6B200020636D2E00206D696E20006D
:1027D000535441545320006E2F61003F546F73686F
:1027E00069626120466C6173684169722047657453
:1027F0004950206661696C65640A00000125311D3D
:102800000C4024301C0B45232F1B0A17FF04062203
:102810002B1A03363735382569206D696E2C202533
:10282000692073656300496E76616C6964204D2090
:10283000636F64653A2025730A0050494E44412075
:1028400070726F62652063616C6962726174696F36
:102850006E207374617274004E6F2050494E444173
:1028600020746865726D6973746F720073657400AB
:102870006E6F7A7A6C65004D424C004652004C7A7D
:10288000004C616E6700315F37356D6D5F4D4B33C6
:102890002D45494E53795F3130612D4533445245C2
:1028A000564F5F48465F3630570052657600332EEC
:1028B00031342E312D383235300046697200534E96
:1028C00020696E76616C696400534E005245534531
:1028D00054004D4D555245530075766C6F0046417E
:1028E0004E0046414E50494E545354005052555399
:1028F00041005345545F43484F505F005345545F78
:10290000535445505F005345545F574156455F004F
:10291000544D435F0043524153485F43414E43454A
:102920004C0043524153485F5245434F5645520075
:1029300043524153485F4445544543544544004342
:10294000524153485F00252E313053200025346416
:1029500000457872656D65207370616E206F66202A
:10296000746865205A2076616C7565732100256452
:102970002F39004D4D55323A0025336400180104BB
:1029800019020A9E0D2A0DB20C470C000C700BFAAE
:102990000A940A470A290ADF09290ACA09CA09CA80
:1029A00009CA09CA09CA09CA09CA09CA09CA09CA8F
:1029B00009CA09CA09CA09CA09CA09CA09CA09CA7F
:1029C00009CA09CA09CA09950956090E099D086A62
:1029D000082208DA077E0747070707EC060101010E
:1029E000010101010271017101323232030303035B
:1029F0000303030303030303030303030303039317
:102A000093243803930301025603650066006700B0
:102A1000680069006A006B006C00730074007D0040
:102A20007E00C900D300DD00CA00D400DE002D0105
:102A3000370141012E01380142012F0139014301C3
:102A400030013A01440131013B014501320191015C
:102A50009201F501F601F701F801F901FA01FB0114
:102A6000FC0184031F0EC712160E0F0E0A0E05304E
:102A70001F3D050EFD0D252E3230530A7072757301
:102A8000612E696F2F30342568750020557067728C
:102A90006164696E672078666C6173680A20446FB0
:102AA000206E6F7420646973636F6E6E656374214A
:102AB00000773235783230636C5F63666D0A007779
:102AC0003235783230636C5F656E7465720A0073FC
:102AD000746172740A0047312058313020593138FE
:102AE00030204634303030004731205A31302046D3
:102AF00031333030004D313430205330004D3130DF
:102B00003420533000473120452D302E30373520CA
:102B10004632313030004731204634303030004DBD
:102B2000323034205331303030004731205A352094
:102B3000463732303000473120452D312E35204682
:102B40003231303000473930004731205835204588
:102B500034204631303030004731205A302E322078
:102B60004631303030004731205835352045323538
:102B700020463134303000473120592D3220463143
:102B80003030300047312058323430204532352043
:102B9000204632323030004731205A302E33204622
:102BA0003130303000473120583535204538204607
:102BB00032303030004731205835204532392046F8
:102BC00031383030004731205835352045323920F2
:102BD00046313037330047393220453000473238EC
:102BE000004D313039004D313930004D3130370032
:102BF00025533A0A2531382E32666D200A25533A7C
:102C00000A2531306C646820253032646D2025300F
:102C10003264730025533A0A2531382E32666D200E
:102C20000A25533A0A2531306C6464202530326419
:102C30006820253032646D0025362E32666D6D00B9
:102C400025530A25530A25533A0A25533A002533BA
:102C50002E32668100252D31342E3134533A0A2527
:102C6000530A252D31342E3134533A25332E326612
:102C7000810A252D31342E3134533A25332E3266D4
:102C800081002020300020203100423A202533648A
:102C9000202020202058643A2536640A533A202503
:102CA0003364202020202059643A253664004649A8
:102CB0004E44410050494E44410057697A61726464
:102CC00020656E642073746174653A2025640A007F
:102CD00053706F6F6C4A6F696E004669726D7761F1
:102CE00072650048426564206F6E206C6F616400FD
:102CF000466C61736841697200546865726D616CFD
:102D0000204D6F64656C2063616C2E004572723AD1
:102D10005052494E542046414E204552524F520087
:102D20004572723A484F54454E442046414E204524
:102D300052524F52002F2F616374696F6E3A726561
:102D400073756D6564002F2F616374696F6E3A72DD
:102D50006573756D65002F2F616374696F6E3A72CC
:102D600065616479002F2F616374696F6E3A6E6FCD
:102D7000745F7265616479002F2F616374696F6E8F
:102D80003A63616E63656C0041786973206C656EAF
:102D900067746820646966666572656E63653A2566
:102DA0002E33660A004D6561737572656420617823
:102DB0006973206C656E6774683A252E33660A0065
:102DC0004F4B004C434420737461747573206368E7
:102DD000616E6765640053442063617264207265AC
:102DE0006C65617365640046616B6520736572692B
:102DF000616C206E756D62657200452D636F6F6C3E
:102E0000206D6F6465002F2F616374696F6E3A7374
:102E100074617274004D3834004D373032004D38D3
:102E200033004732382057004D3530300045787434
:102E300065726E616C2053504920666C6173680A3C
:102E400058464C415348206973206E6F7420726558
:102E5000732D0A706F6E64696E672E204C616E6709
:102E6000756167650A73776974636820756E61764A
:102E700061696C61626C652E0058464C4153482074
:102E80006E6F7420726573706F6E64696E672E006A
:102E90004657206372617368206465746563746566
:102EA000642120596F752063616E20636F6E7469B1
:102EB0006E7565207072696E74696E672E20446548
:102EC000627567206461746120617661696C61621A
:102ED0006C6520666F7220616E616C797369732E08
:102EE00020436F6E7461637420737570706F7274B9
:102EF00020746F207375626D6974206465746169F4
:102F00006C732E002F2F616374696F6E3A64756D58
:102F1000705F617661696C61626C650043726173B8
:102F2000684465746563742044495341424C454488
:102F300000437261736844657465637420454E4153
:102F4000424C454421002020506C616E6E657242F7
:102F5000756666657242797465733A200020467220
:102F60006565204D656D6F72793A2000207C2041A7
:102F70007574686F723A2000204C6173742055702C
:102F800064617465643A200020536F6674776172DF
:102F90006520526573657400205761746368646FBF
:102FA00067205265736574002042726F776E206FE0
:102FB0007574205265736574002045787465726E6F
:102FC000616C20526573657400506F77657255703F
:102FD000006572726F722077726974696E6720740F
:102FE0006F2066696C6500446F6E65207361766959
:102FF0006E672066696C652E006F6B0046696C61B8
:103000006D656E7400456A6563740046696C616D38
:10301000656E7420657874727564696E6720262009
:103020007769746820636F727265637420636F6C74
:103030006F723F004175746F6C6F6164696E6720D9
:1030400066696C616D656E74206973206163746973
:1030500076652C206A7573742070726573732074A2
:103060006865206B6E6F6220616E6420696E7365A7
:1030700072742066696C616D656E742E2E2E005020
:1030800072696E742074696D650046696C616D6566
:103090006E74207573656400546F74616C20707277
:1030A000696E742074696D6500546F74616C20667C
:1030B000696C616D656E740050726568656174203D
:1030C000746865206E6F7A7A6C6521004552524FA4
:1030D000523A005269676874004C65667400592062
:1030E00064697374616E63652066726F6D206D69CB
:1030F0006E0053657665726520736B657700536C5F
:103100006967687420736B6577004D6561737572CC
:10311000656420736B6577005B303B305D20706FBA
:10312000696E74206F66667365740041646A7573B6
:1031300074696E67205A0052656172207369646514
:10314000205BE46D5D0046726F6E74207369646588
:103150005BE46D5D00526967687420736964655B48
:10316000E46D5D004C6566742073696465205BE402
:103170006D5D005365742074656D70657261747562
:1031800072653A0050494E44412063616C69627235
:103190006174696F6E206661696C65640050494EA8
:1031A00044412063616C6962726174696F6E206969
:1031B000732066696E697368656420616E6420615E
:1031C00063746976652E2049742063616E206265A0
:1031D0002064697361626C656420696E206D656E40
:1031E000752053657474696E67732D3E50494E4463
:1031F000412063616C2E00457874727564657200BD
:103200004D6F7665205A004D6F76652059004D6FE1
:103210007665205800437261736820646574656345
:1032200074696F6E2063616E0A6265207475726ED8
:103230006564206F6E206F6E6C7920696E0A4E6F28
:10324000726D616C206D6F6465005741524E494E3E
:10325000473A0A43726173682064657465637469F0
:103260006F6E0A64697361626C656420696E0A53EB
:103270007465616C7468206D6F6465004D6F646582
:10328000206368616E676520696E2070726F677277
:103290006573732E2E2E00536865657420252E37B6
:1032A000730A5A206F66667365743A20252B312E97
:1032B00033666D6D0A2563436F6E74696E75650ABA
:1032C0002563526573657400506C65617365206C8D
:1032D0006F61642066696C616D656E7420666972E9
:1032E00073742E003E43616E63656C0052756E6EA2
:1032F000696E672057697A6172642077696C6C2007
:1033000064656C6574652063757272656E742063A4
:10331000616C6962726174696F6E20726573756C3D
:10332000747320616E642073746172742066726FAE
:103330006D2074686520626567696E6E696E672EC0
:1033400020436F6E74696E75653F005072656865E5
:103350006174696E67206E6F7A7A6C652E20506C8E
:103360006561736520776169742E00506C656173C7
:103370006520696E736572742066696C616D656E37
:103380007420696E746F2074686520657874727536
:103390006465722C207468656E207072657373208A
:1033A000746865206B6E6F6220746F206C6F61644F
:1033B0002069742E00506C6561736520696E7365B9
:1033C00072742066696C616D656E7420696E746FCD
:1033D0002074686520666972737420747562652054
:1033E0006F6620746865204D4D552C207468656E9D
:1033F00020707265737320746865206B6E6F622035
:10340000746F206C6F61642069742E005A206361B0
:103410006C6962726174696F6E207265636F6D6D45
:10342000656E6465642E2052756E206974206E6F1F
:10343000773F00546865207072696E7465722077FA
:10344000696C6C207374617274207072696E746937
:103450006E672061207A69672D7A6167206C696EDA
:10346000652E20526F7461746520746865206B6EE0
:103470006F6220756E74696C20796F75207265615A
:10348000636820746865206F7074696D616C206872
:1034900065696768742E20436865636B207468658E
:1034A00020706963747572657320696E2074686535
:1034B0002068616E64626F6F6B202843616C696283
:1034C000726174696F6E2063686170746572292E11
:1034D0000053656C6563742074656D70657261740A
:1034E000757265207768696368206D6174636865CB
:1034F0007320796F7572206D6174657269616C2ECD
:103500000053656C65637420612066696C616D654C
:103510006E7420666F7220746865204669727374D9
:10352000204C617965722043616C696272617469D3
:103530006F6E20616E642073656C656374206974BE
:1035400020696E20746865206F6E2D7363726565E7
:103550006E206D656E752E004E6F7720492077695D
:103560006C6C2063616C696272617465206469735C
:1035700074616E6365206265747765656E20746939
:1035800070206F6620746865206E6F7A7A6C652093
:10359000616E64206865617462656420737572662B
:1035A0006163652E00506C656173652063686563B7
:1035B0006B206F75722068616E64626F6F6B206143
:1035C0006E6420666978207468652070726F626C22
:1035D000656D2E205468656E20726573756D65206B
:1035E0007468652057697A61726420627920726517
:1035F000626F6F74696E6720746865207072696E9F
:103600007465722E00416C6C20697320646F6E6566
:103610002E204861707079207072696E74696E67CF
:103620002100596F752063616E20616C7761797339
:1036300020726573756D65207468652057697A61BD
:1036400072642066726F6D2043616C69627261748E
:10365000696F6E202D3E2057697A6172642E004991
:103660006620796F7520686176652061646469748D
:10367000696F6E616C20737465656C207368656535
:1036800074732C2063616C69627261746520746864
:10369000656972207072657365747320696E20535A
:1036A000657474696E6773202D20485720536574C4
:1036B0007570202D20537465656C20736865657482
:1036C000732E00506C6561736520636C65616E20BC
:1036D0006865617462656420616E64207468656EFB
:1036E00020707265737320746865206B6E6F622E34
:1036F00000446F20796F752077616E7420746F209D
:10370000726570656174206C617374207374657088
:1037100020746F20726561646A75737420646973C4
:1037200074616E6365206265747765656E206E6F87
:103730007A7A6C6520616E64206865617462656484
:103740003F0053656C656374206E6F7A7A6C6520F8
:10375000707265686561742074656D7065726174FE
:10376000757265207768696368206D617463686548
:103770007320796F7572206D6174657269616C2E4A
:103780000049732066696C616D656E74206C6F61B1
:103790006465643F00546865726D616C206D6F6490
:1037A000656C2063616C2E2074616B6573206170A1
:1037B00070726F782E203132206D696E732E205317
:1037C00065650A70727573612E696F2F746D2D6354
:1037D000616C004E6F7720492077696C6C207072A5
:1037E0006568656174206E6F7A7A6C6520666F72A9
:1037F00020504C412E00492077696C6C2072756E08
:10380000207A2063616C6962726174696F6E206EE8
:103810006F772E004E6F772072656D6F766520741E
:1038200068652074657374207072696E74206672A6
:103830006F6D20737465656C2073686565742E0008
:10384000506C656173652072656D6F766520736875
:10385000697070696E672068656C70657273206648
:10386000697273742E00492077696C6C2072756ED2
:103870002078797A2063616C6962726174696F6E15
:10388000206E6F772E2049742077696C6C207461EC
:103890006B6520757020746F203234206D696E73F3
:1038A0002E0046697273742C20492077696C6C2055
:1038B00072756E207468652073656C6674657374C8
:1038C00020746F20636865636B206D6F7374206371
:1038D0006F6D6D6F6E20617373656D626C792070B2
:1038E000726F626C656D732E0048692C20492061EF
:1038F0006D20796F7572204F726967696E616C20F7
:103900005072757361206933207072696E746572CC
:103910002E20576F756C6420796F75206C696B650C
:10392000206D6520746F20677569646520796F75F7
:10393000207468726F756768207468652073657499
:1039400075702070726F636573733F0048692C2037
:103950004920616D20796F7572204F726967696EB9
:10396000616C205072757361206933207072696ECA
:103970007465722E20492077696C6C2067756964C4
:103980006520796F75207468726F75676820612093
:1039900073686F72742073657475702070726F63D2
:1039A0006573732C20696E2077686963682074687A
:1039B00065205A2D617869732077696C6C20626587
:1039C0002063616C696272617465642E205468655D
:1039D0006E2C20796F752077696C6C20626520727F
:1039E0006561647920746F207072696E742E004571
:1039F0002D636F7272656374005A2D636F72726506
:103A0000637400592D636F727265637400582D637F
:103A10006F727265637400506175736500436F6EF9
:103A2000742E00465320416374696F6E00462E2049
:103A30006A616D2064657465637400462E2061754B
:103A4000746F6C6F616400462E2072756E6F7574B2
:103A5000004D4D55204D6F6465004375747465725B
:103A60000046616E207370656564004265640046BF
:103A7000616E7320636865636B004D6F64656C00F5
:103A80004E6F7A7A6C6500506C6561736520756E57
:103A90006C6F6164207468652066696C616D656E29
:103AA000742066697273742C207468656E20726568
:103AB00070656174207468697320616374696F6EE6
:103AC0002E00436865636B7300416C7068616265CA
:103AD000740054696D6500536F7274005344206321
:103AE0006172640052506920706F7274004C696E8C
:103AF0002E20636F7272656374696F6E004E6F7A09
:103B00007A6C65206368616E67650048572053656D
:103B1000747570004C6F6164696E672054657374CE
:103B20000044697361626C652073746570706572BE
:103B300073004D6F766520617869730054656D7010
:103B4000657261747572650050494E44412063612D
:103B50006C2E0052657365742058595A2063616C4D
:103B60006962722E005049442063616C696272611F
:103B700074696F6E00426564206C6576656C2063C5
:103B80006F7272656374004D6573682042656420CE
:103B90004C6576656C696E670043616C6962726141
:103BA0007465205A0043616C6962726174652058C3
:103BB000595A0053656C66746573740042656C7481
:103BC00020746573740057697A617264004C6F6188
:103BD0006420416C6C00506C656173652070756C7D
:103BE0006C206F75742066696C616D656E742069F8
:103BF0006D6D6564696174656C7900526573657497
:103C00000052656E616D65004669727374206C6167
:103C10007965722063616C2E0053656C6563740076
:103C2000537465656C2073686565747300537570B3
:103C3000706F7274004661696C20737461747320D4
:103C40004D4D55004661696C207374617473005367
:103C50007461746973746963730043616C6962723F
:103C60006174696F6E004175746F4C6F616420669A
:103C7000696C616D656E74004C6F61642066696C7F
:103C8000616D656E7400556E6C6F61642066696C61
:103C9000616D656E74004C6F616420746F206E6F8F
:103CA0007A7A6C65005072656C6F616420746F2065
:103CB0004D4D55004E6F7A7A6C6520642E004E6F24
:103CC0002053442063617264005072696E742066F0
:103CD000726F6D20534400436C65617220544D2017
:103CE0006572726F7200526573756D6520707269CE
:103CF0006E74005061757365207072696E74005344
:103D0000657420526561647900536574206E6F7428
:103D10002052656164790050726568656174005471
:103D2000756E65004C6976652061646A75737420F0
:103D30005A0052657072696E7400496E666F207326
:103D4000637265656E004272696768746E6573734D
:103D5000004173736973740053696C656E74004F2E
:103D60006E6365004C6F756400536F756E6400463A
:103D7000696C2E2073656E736F72004368616E67A5
:103D8000652066696C616D656E7400466C6F7700C6
:103D90005370656564004E2F41004D61676E657418
:103DA0007320636F6D702E005A2D70726F626520E4
:103DB0006E722E004D6573680044696D0042726931
:103DC000676874004175746F0054696D656F757430
:103DD000004C6576656C2044696D6D6564004C65CA
:103DE00076656C2042726967687400536574746903
:103DF0006E67730053746F70207072696E74004345
:103E00006865636B696E672066696C650046696CFE
:103E10006520696E636F6D706C6574652E20436FED
:103E20006E74696E756520616E797761793F008483
:103E300052656672657368004D61696E005761690D
:103E400074696E6720666F72206E6F7A7A6C652077
:103E5000616E642062656420636F6F6C696E6700D9
:103E600053656C6674657374204F4B0053656C66C4
:103E700074657374207374617274005072696E7427
:103E80002066616E3A00486F74656E642066616EEC
:103E90003A0043616C6962726174696E6720686F91
:103EA0006D6500416C6C20636F72726563740043D2
:103EB0006865636B696E672073656E736F727300FC
:103EC000436865636B696E6720686F74656E640034
:103ED000436865636B696E6720626564004368656B
:103EE000636B696E67205A20617869730043686567
:103EF000636B696E67205920617869730043686558
:103F0000636B696E67205820617869730043686548
:103F1000636B696E6720656E6473746F70730043C2
:103F20006172642072656D6F766564004261636BD7
:103F300000537465616C7468004372617368206437
:103F400065742E004E6F726D616C004D6F6465007C
:103F5000537472696374005761726E004E6F6E65C0
:103F6000004E6F7A7A6C65206368616E6765643FA6
:103F7000004E6F7A7A6C6520697320686F74212017
:103F80005761697420666F7220636F6F6C646F771E
:103F90006E2E005049442063616C2E2066696E6964
:103FA00073686564005049442063616C2E00507250
:103FB000696E7420706175736564005072696E7407
:103FC0002061626F72746564004E6F7A7A6C65204E
:103FD0006469616D65746572206469666665727393
:103FE0002066726F6D2074686520472D636F64656D
:103FF0002E20506C6561736520636865636B207467
:1040000068652076616C756520696E2073657474CF
:10401000696E67732E205072696E742063616E63DF
:10402000656C6C65642E004E6F7A7A6C65206469ED
:10403000616D657465722064696666657273206679
:10404000726F6D2074686520472D636F64652E2044
:10405000436F6E74696E75653F00546865726520C4
:104060006973206E6F2066696C616D656E74206C7B
:104070006F616465642E205072696E742063616E96
:1040800063656C6C65642E005468657265206973A5
:10409000206E6F2066696C616D656E74206C6F6157
:1040A0006465642E20436F6E74696E75653F004DC4
:1040B0004B33206669726D77617265206465746543
:1040C00063746564206F6E204D4B335320707269AA
:1040D0006E74657200426C61636B6F7574206F6300
:1040E0006375727265642E205265636F7665722007
:1040F0007072696E743F00546865726D616C206DFA
:104100006F64656C206E6F742063616C69627261AC
:10411000746564207965742E005468657265206941
:1041200073207374696C6C2061206E656564207403
:104130006F206D616B65205A2063616C69627261EA
:1041400074696F6E2E20506C6561736520666F6CAC
:104150006C6F7720746865206D616E75616C2C20C2
:104160006368617074657220466972737420737439
:104170006570732C2073656374696F6E2043616C86
:104180006962726174696F6E20666C6F772E005081
:1041900072696E74657220686173206E6F7420623C
:1041A00065656E2063616C69627261746564207913
:1041B00065742E20506C6561736520666F6C6C6F42
:1041C0007720746865206D616E75616C2C20636862
:1041D00061707465722046697273742073746570BF
:1041E000732C2073656374696F6E2043616C696220
:1041F000726174696F6E20666C6F772E0053656C08
:1042000066746573742077696C6C206265207275C2
:104210006E20746F2063616C6962726174652061E5
:10422000636375726174652073656E736F726C651C
:104230007373207265686F6D696E672E004F6C64D2
:104240002073657474696E677320666F756E642E73
:104250002044656661756C74205049442C20457378
:1042600074657073206574632E2077696C6C2062AE
:1042700065207365742E005761726E696E673A200F
:10428000626F7468207072696E74657220747970E0
:104290006520616E64206D6F74686572626F617213
:1042A000642074797065206368616E6765642E00B0
:1042B0005761726E696E673A207072696E746572CA
:1042C0002074797065206368616E6765642E00579D
:1042D00061726E696E673A206D6F74686572626FA5
:1042E0006172642074797065206368616E676564CB
:1042F0002E0054657374696E672066696C616D6524
:104300006E740053686565740053656C6563742052
:1043100066696C616D656E743A00252D31322E31FF
:104320003253252B382E31660045787472756465DA
:10433000723A0025632531372E32666D6D00583A8A
:1043400000593A005A3A002563252D31332E313376
:1043500053252B352E3366002533750050494E44C6
:10436000412063616C6962726174696F6E2066617D
:10437000696C65642E20436F6E74696E7565207775
:10438000697468207072657373696E6720746865FC
:10439000206B6E6F622E0050494E44412063616C69
:1043A0006962726174696F6E20646F6E652E20435E
:1043B0006F6E74696E7565207769746820707265B8
:1043C0007373696E6720746865206B6E6F622E0070
:1043D000473830004D3435004D3435205A004737CA
:1043E00036004D3730312050300057697A617264A1
:1043F0002073746174653A2025640A0045787065FD
:1044000072696D656E74616C00302E383000302E2C
:10441000363000302E343000302E3235004469738F
:1044200061626C65206661726D206D6F646500521B
:1044300065736574204D4D55004D4D55004D343418
:10444000004739390044697361626C6520666172A6
:104450006D206D6F64653F00302E383000302E3691
:104460003000302E343000302E32350047323820C4
:104470005859004D20383400852E2E00593A2025F9
:1044800075202D3E202E2E2E00583A202575202DE9
:104490003E202E2E2E002533642F30002533642F2E
:1044A000300025632041584953205347313D25644E
:1044B0000A00486F74656E6400426564005A0059D2
:1044C0000058002D2D2D2D2D2D2D2D2D2D2D2D2D4B
:1044D0002D2D2D2D2D2D2D00435A5058496E7661CE
:1044E0006C696453657269616C4E72004D39313488
:1044F000004D39313500EB2B052BFD2AF52AE82A32
:10450000D62A473120582564205925642045252D79
:104510002E35660047312046313038300047312093
:104520005A252D2E33662046373230300047312051
:10453000583530205931353500D62B452B1E2E36B7
:104540002B2A2B1F2B162B4731205825642045255D
:104550002D2E336620463130303000C52BB52BA5CB
:104560002B972BD62B842B772B662B582B492B5430
:104570002564004731205A302E3420463130303007
:1045800000473120592D3320463130303000EB2B9D
:10459000E62BE12BDD2BD62B4D3834205859004724
:1045A000312058313235205A3230302046313030C7
:1045B00030004D3331302041204631004731205802
:1045C0003132352059313035205A3120463830309B
:1045D0003000496E76616C69642050494420636103
:1045E0006C2E20726573756C74732E204E6F742060
:1045F00073746F72656420746F20454550524F4D3F
:104600002E004D3330312050252E32662049252E84
:1046100032662044252E3266004D3330332045303B
:1046200020532533750052430044455600424554FB
:104630004100414C50484100000021002400270067
:104640002A002D00300033000101000004010701A1
:104650000A0100002200250028002B002E00310056
:10466000340002010000050108010B0100002000D8
:104670002300260029002C002F003200000100003A
:1046800003010601090105050505070508080808D5
:10469000020202020A0A08080404040401010101DA
:1046A00001010101030303030303030304070707D5
:1046B0000C0C0C0C0C0C0C0C02020202060606067A
:1046C000060606060B0B0B0B0B0B0B0B07070A0A58
:1046D0000A0A0A0A05050504040408080102102054
:1046E0002008081020401020408002010201080428
:1046F00002010102040810204080804020100804BC
:104700000201800402018040201008040201080414
:104710000201010204081020408001020408102058
:104720004080100804088010204004408010204081
:10473000048000000A0B02090C0D0E080703040197
:104740000000000000000000000000000000000069
:104750000000000000000000000000000000121136
:104760001000000000000000000000000000000039
:104770000000000000000000000000000000000039
:104780000000000000000000332E31342E31000AFA
:10479000204F726967696E616C2050727573612079
:1047A00069330A2020205072757361205265736549
:1047B000617263680A2532302E32305300435A50FA
:1047C00058003B530053706F6F6C4A6F696E2069DD
:1047D0007320006164635F696E697400200A200AB7
:1047E000200A2000416C6C204461746100536572A2
:1047F00076696365207072657000536869707069CE
:104800006E672070726570005374617469737469A7
:104810006373004C616E6775616765004552415373
:10482000494E4720616C6C2064617461004661638D
:10483000746F72792052455345540050525553417C
:104840003344465700494E54340003000E00010023
:1048500040000300020000000400556E6B6E6F778D
:104860006E00323032362D30342D32342030393A29
:1048700035313A35370020332E31342E312D383250
:1048800035305F31363535326637626400737461B6
:10489000727400534E20757064617465206661699E
:1048A0006C656400534E20757064617465640043E8
:1048B0005A50580043524153485F4445544543546D
:1048C000454458590043524153485F444554454379
:1048D000544544590043524153485F44455445436D
:1048E00054454458004D323900252D392E39535B3B
:1048F00000544D20657374696D6174696F6E206436
:104900006964206E6F7420636F6E766572676500F0
:10491000544D20697465723A257520763A252E32F9
:104920006620653A252E33660A00200A200A2000F8
:1049300000004842000058419A998D41333353405A
:104940004D4D55323A004D494E54454D502042454B
:1049500044206669786564004D494E54454D5020A9
:10496000484F54454E442066697865640020746F52
:104970006F206C6F6E6720657874727573696F6EE7
:104980002070726576656E7465640020636F6C6478
:1049900020657874727573696F6E207072657665C4
:1049A0006E746564004D6F76652061626F72746528
:1049B0006400504F5745522050414E4943204445D2
:1049C0005445435445440055564C4F202D20656EA8
:1049D000642025640A0055564C4F5F54494E5920B7
:1049E0002D20656E642025640A00776F726C642048
:1049F000636F6F7264696E617465733A2028252E47
:104A000033662C20252E33662C20252E3366290A6A
:104A1000004D3232302053256400446F6E652072A1
:104A2000656164696E6720454550524F4D0A0054D8
:104A3000656D706572617475726520526573746F0F
:104A40007265640A0047312045252D2E33662046C5
:104A50003237303000544D4320445249564552209D
:104A60004F56455254454D5000486F6C6420637555
:104A70007272656E74207472756E63617465642001
:104A8000746F2052756E2063757272656E740025A6
:104A9000632533642F256481005A25362E3266251E
:104AA00063005A2020202D2D2D20008625336425DB
:104AB00025002D2D2D252500253364252500205387
:104AC00044002020200020484F002046524D200066
:104AD0008725337568202563256300872530327567
:104AE0003A2530327525632563002F2F6163746981
:104AF0006F6E3A706175736564002F2F616374691E
:104B00006F6E3A70617573650044756D70206D65E8
:104B10006D6F72790068656C702E70727573613399
:104B2000642E636F6D00666F72756D2E7072757393
:104B30006133642E636F6D00707275736133642E20
:104B4000636F6D004D373031007265636F7665724B
:104B50005F6D616368696E655F73746174655F61E1
:104B6000667465725F706F7765725F70616E69639E
:104B70002C20696E697469616C2000505255534154
:104B80002075766C6F004734205330004D31313042
:104B9000204E256C75004D32362053256C75004D26
:104BA0003130362053257500473120462564004DAD
:104BB0003832004739322045252D2E3366004D32DC
:104BC00030342050252D2E31662052252D2E316671
:104BD0002054252D2E3166004731205A252D2E33A5
:104BE00066005052555341204D424C2056310047EB
:104BF000312058252D2E33662059252D2E33662041
:104C00004633303030002C20666565646D756C74F9
:104C100069706C793A0046656564726174653A0042
:104C200047312045352046313230004D3130392072
:104C3000532564004D31343020532564004D31300C
:104C4000342053256400473238205820590047311A
:104C5000205A252E33662046383030005265636F67
:104C6000766572696E67207072696E74005448458B
:104C7000524D414C20414E4F4D414C5900526573AD
:104C8000756D696E67207072696E740050494E448C
:104C9000412048656174696E670043616C696272A6
:104CA0006174696F6E20646F6E650043616C696248
:104CB000726174696E67205A0042656420646F6E89
:104CC00065004265642048656174696E67004865E7
:104CD0006174696E6720646F6E652E00486561744B
:104CE000696E67004D4D5520706F77657220666163
:104CF000696C73004D4D55206C6F6164206661696D
:104D00006C73004D4D55206661696C73004D617484
:104D1000657269616C206368616E67657300546FCA
:104D200074616C206661696C7572657300437261B1
:104D300073680046696C2E2072756E6F757473000F
:104D4000506F776572206661696C75726573004C8F
:104D5000617374207072696E74206661696C75721B
:104D6000657300546F74616C004C617374207072D1
:104D7000696E7400416D6269656E7400566F6C7483
:104D8000616765730054656D7065726174757265F5
:104D9000730042656C74207374617475730053659D
:104DA0006E736F7220696E666F00457874727564F9
:104DB000657220696E666F0058595A2063616C2EC7
:104DC0002064657461696C73005072696E746572F9
:104DD00020495020416464723A00756E6B6E6F77A3
:104DE0006E004D4D5520636F6E6E65637465640093
:104DF000446174653A00746F20756E6C6F61642055
:104E000066696C616D656E7400746F206C6F6164AF
:104E10002066696C616D656E7400507265737320F5
:104E2000746865206B6E6F620050726568656174AE
:104E3000696E6720746F20637574005072656865D1
:104E40006174696E6720746F20656A6563740050D1
:104E5000726568656174696E6720746F20756E6C29
:104E60006F61640050726568656174696E67207473
:104E70006F206C6F616400436F6F6C646F776E00BE
:104E80007B5B4552523A00332E31342E31005D5B4C
:104E90004657523A005D5B54494D3A005D5B464EC1
:104EA0004D3A005D5B46454D3A005D5B5043443AE8
:104EB000005B5446553A005B50524E3A005B5046F8
:104EC0004E3A305D005B4449413A005D5B415442DB
:104ED0003A005D5B4154303A005D5B5354423A0006
:104EE0005B5354303A007B5B50524E3A355D007B49
:104EF0005B50524E3A305D007B5B50524E3A395D0A
:104F0000007B5B50524E3A385D007B5B5245533A12
:104F1000305D5B46494C3A007B5B5245533A315D0C
:104F20005B46494C3A000000211042206330844027
:104F3000A550C660E770088129914AA16BB18CC168
:104F4000ADD1CEE1EFF13112100273325222B552DF
:104F50009442F772D662399318837BB35AA3BDD3B8
:104F60009CC3FFF3DEE36224433420040114E664AF
:104F7000C774A44485546AA54BB528850995EEE508
:104F8000CFF5ACC58DD55336722611163006D776BF
:104F9000F6669556B4465BB77AA719973887DFF758
:104FA000FEE79DD7BCC7C448E5588668A778400887
:104FB000611802282338CCC9EDD98EE9AFF94889A8
:104FC00069990AA92BB9F55AD44AB77A966A711A1F
:104FD000500A333A122AFDDBDCCBBFFB9EEB799BF8
:104FE000588B3BBB1AABA66C877CE44CC55C222C6F
:104FF000033C600C411CAEED8FFDECCDCDDD2AAD48
:105000000BBD688D499D977EB66ED55EF44E133EFE
:10501000322E511E700E9FFFBEEFDDDFFCCF1BBF97
:105020003AAF599F788F8891A981CAB1EBA10CD171
:105030002DC14EF16FE18010A100C230E320045079
:10504000254046706760B9839893FBA3DAB33DC3EC
:105050001CD37FE35EF3B1029012F322D2323542C9
:10506000145277625672EAB5CBA5A89589856EF57C
:105070004FE52CD50DC5E234C324A0148104667419
:10508000476424540544DBA7FAB79987B8975FE7CC
:105090007EF71DC73CD7D326F2369106B016576669
:1050A0007676154634564CD96DC90EF92FE9C89954
:1050B000E9898AB9ABA94458654806782768C018B9
:1050C000E1088238A3287DCB5CDB3FEB1EFBF98B2C
:1050D000D89BBBAB9ABB754A545A376A167AF10A09
:1050E000D01AB32A923A2EFD0FED6CDD4DCDAABD3C
:1050F0008BADE89DC98D267C076C645C454CA23C59
:10510000832CE01CC10C1FEF3EFF5DCF7CDF9BAF0B
:10511000BABFD98FF89F176E367E554E745E932EA8
:10512000B23ED10EF01E7C3C3E3F2F2A225C002472
:10513000F4D43050C38E20C2A24017828B7011125B
:105140007A910D816CD90AA861E108C75866076198
:105150005143061E4B5D05C145A7041A41110409C0
:105160003D9803713931034036DB0265339102D437
:10517000305402802E1D02632CEE01752AC501B049
:1051800028A001102781018F2564012B244B01E009
:10519000223401AC211F018D200D01801FFC0084F1
:1051A0001EED00971DDF00B81CD200E61BC60020D4
:1051B0001BBC00641AB200B219A8000A19A0006A48
:1051C000189900D117910040178B00B51684003153
:1051D000167E00B31579003A157300C7146F005896
:1051E000146A00EE1366008813630025135E00C77F
:1051F000125B006C12570015125400C1115100705F
:10520000114F0021114B00D61049008D1047004668
:1052100010440002104200C00F4000800F3E0042C8
:105220000F3C00060F3B00CB0E3800930E37005C9E
:105230000E3500270E3400F30D3200C10D31009001
:105240000D3000600D2E00320D2D00050D2C00D903
:105250000C2B00AE0C2900850C29005C0C270035B6
:105260000C27000E0C2600E80B2400C40B2400A021
:105270000B23007D0B23005A0B2100390B21001852
:105280000B2000F80A1F00D90A1E00BB0A1E009D51
:105290000A1D00800A1D00630A1C00470A1B002C1F
:1052A0000A1B00110A1A00F7091A00DD091900C4C7
:1052B000091900AB091900920917007B091800634E
:1052C0000917004C09160036091600200916000AB5
:1052D000091500F5081500E0081400CC081400B802
:1052E000081400A4081400900813007D0812006B35
:1052F0000813005808120046081200340811002351
:105300000811001208110001081100F0071000E058
:10531000071000D0071000C0071000B0070F00A151
:1053200007100091070E0083070F0074070F006538
:10533000070E0057070E0049070E003B070D002E11
:10534000070E0020070D0013070D0006070D00F9DA
:10535000060C00ED060D00E0060C00D4060C00C89B
:10536000060C00BC060C00B0060C00A4060B00994D
:10537000060C008D060B0082060B0077060B006CF6
:10538000060B0061060A0057060B004C060A004295
:10539000060A0038060A002E060A0024060A001A29
:1053A000060A001006090007060A00FD050900F4B8
:1053B000050900EB050900E2050900D9050900D03F
:1053C000050900C7050900BE050900B5050800ADBF
:1053D000050800A50509009C050800940508008C37
:1053E000050800840508007C050800740508006CA9
:1053F000050700650508005D050700560508004E15
:10540000050700470507004005080038050700317B
:105410000507002A050700230507001C05060016DE
:105420000507000F0507000805060002050700FB39
:10543000040600F5040700EE040600E8040600E296
:10544000040700DB040600D5040600CF040600C9EB
:10545000040600C3040600BD040600B7040600B13C
:10546000040500AC040600A6040600A00405009B89
:1054700004060095040500900406008A04050085D2
:10548000040500800406007A040500750405007018
:105490000405006B04050066040500610405005C5A
:1054A00004050057040500520405004D040500489A
:1054B000040500430405003E0404003A04050035D9
:1054C000040500300404002C040500270404002314
:1054D0000405001E0404001A04040016040500114B
:1054E0000404000D04040009040500040404000081
:1054F000040400FC030400F8030400F4030400F0B7
:10550000030400EC030400E8030400E4030400E0E7
:10551000030400DC030400D8030400D4030400D017
:10552000030400CC030400C8030300C503030024E4
:10553000F404D9201BC40C5C0E9804C4095F0265F6
:10554000077101F405F900FB04B30048048700C1AA
:105550000369005803550003034500BE023A008466
:1055600002310053022A002902250004022000E42F
:10557000011C00C8011900AF011700980114008434
:10558000011300710110006101100051010E004370
:10559000010D0036010B002B010B0020010B001543
:1055A0000109000C01090003010800FB000800F3D9
:1055B000000800EB000700E4000600DE000600D84B
:1055C000000600D2000600CC000500C7000500C29E
:1055D000000500BD000400B9000400B5000400B1DE
:1055E000000400AD000400A9000400A5000300A20F
:1055F0000003009F0004009B000300980003009537
:1056000000020093000300900003008D0002008B55
:10561000000300880002008600020084000300816D
:105620000002007F0002007D0002007B0002007982
:105630000002007700010076000200740002007290
:10564000000100710002006F0002006D0001006C9B
:105650000002006A000100690002006700010066A4
:1056600000010065000100640002006200010061A9
:10567000000100600001005F0002005D0001005CAD
:105680000001005B0001005A0001005900010058B0
:1056900000010057000100560001005500010054B0
:1056A00000010053000000530001005200010051AE
:1056B000000100500001004F0001004E0000004EAC
:1056C0000001004D0001004C0001004B0000004BA8
:1056D0000001004A000100490001004800000048A4
:1056E000000100470001004600000046000100459F
:1056F0000000004500010044000100430000004399
:105700000001004200000042000100410000004191
:10571000000100400001003F0000003F0001003E8A
:105720000000003E0001003D0000003D0001003C83
:105730000000003C0000003C0001003B0000003B7A
:105740000001003A0000003A000100390000003971
:105750000001003800000038000000380001003768
:10576000000000370001003600000036000000365F
:105770000001003500000035000000350001003454
:10578000000000340000003400010033000000334A
:10579000000000330001003200000032000000323F
:1057A0000001003100000031000000310001003034
:1057B00000000030000000300001002F0000002F2A
:1057C0000000002F0000002F0001002E0000002E1E
:1057D0000000002E0001002D0000002D0000002D13
:1057E0000000002D0001002C0000002C0000002C07
:1057F0000000002C0001002B0000002B0000002BFB
:105800000000002B0001002A0000002A0000002AEE
:105810000000002A000100290000002900000029E2
:1058200000000029000000290001002800000028D5
:1058300000000028000000280000002800010027C8
:1058400000000027000000270000002700000027BC
:1058500000010026000000260000002600000026AF
:1058600000000026000100250000002500000025A2
:105870000000002500000025000000250001002494
:105880000000002400000024000000240000002488
:10589000000100230000002300000023000000237B
:1058A000000000230000002300000023000100226C
:1058B0000000002200000022000000220000002260
:1058C0000000002200010021000000210000002152
:1058D0000000002100000021000000210000002144
:1058E0000001002000000020000000200000002037
:1058F0000000002000000020000000200000002028
:105900000001001F0000001F0000001F0000001F1A
:105910000000001F0000001F0000001F0001001E0B
:105920000000001E0000001E0000001E00000050CD
:105930004944204175746F74756E652066696E699F
:1059400073686564212050757420746865206C61EB
:105950007374204B702C204B6920616E64204B6463
:1059600020636F6E7374616E74732066726F6D2046
:1059700061626F766520696E746F20436F6E666931
:105980006775726174696F6E2E68005049442041DA
:1059900075746F74756E65206661696C656421202D
:1059A00074696D656F75740020403A00543A004286
:1059B0003A00504944204175746F74756E652066D5
:1059C00061696C6564212054656D706572617475E0
:1059D000726520746F6F206869676800204B643AB5
:1059E0002000204B693A2000204B703A20002043D1
:1059F0006C61737369632050494420002054753AE8
:105A00002000204B753A2000206D61783A2000205C
:105A10006D696E3A200020643A200020626961734B
:105A20003A2000504944204175746F74756E6520AA
:105A3000737461727400504944204175746F7475B9
:105A40006E65206661696C65642E20426164206524
:105A500078747275646572206E756D6265722E0061
:105A6000544D4C20256420256420257820256C7811
:105A700020256C780A004D494E54454D50004D4943
:105A80004E54454D5020424544004D494E54454DDD
:105A90005020414D42004D415854454D50004D411C
:105AA0005854454D5020424544004D415854454DB1
:105AB0005020414D4200544D3A206572726F722061
:105AC000636C656172656400544D3A206572726F53
:105AD00072207472696767657265642100544D3A7B
