:100000000C94C43B0C94F53B0C94F53B0C94F53BE1
:100010000C94F53B0D94D3980C94F53B0C944C58F0
:100020000C9469580C94F53B0C94F53B0C94F53BFF
:100030000C94A44C0C94F53B0D9424270D94AC2007
:100040000C94F53B0D942D380C94F53B0C94F53B3A
:100050000C94F53B0C94F53B0C94F53B0C945357E6
:100060000C94F53B0D940BB50C94F53B0C94F53BBF
:100070000C94F53B0C949F760C94F53B0C94F53B5B
:100080000C94F53B0C94F53B0C94F53B0C94F53B30
:100090000D94C7B40C94F53B0C94F53B0C94F53BD4
:1000A0000C94F53B0C94F53B0D946A160C94F53BBF
:1000B0000C94F53B0D944C160C94F53B0D946E2C62
:1000C0000C94F53B0C94F53B0C94F53B0D940C16FD
:1000D0000C94F53B0C94F53B0C94F53B0C94F53BE0
:1000E0000C94F53B084AD73B3BCE016E84BCBFFD68
:1000F000C12F3D6C74319ABD56833DDA3D00C77FF8
:1001000011BED9E4BB4C3E916BAAAABE0000008090
:100110003F05A84CCDB2D44EB93836A9020C50B91F
:10012000918688083CA6AAAA2ABE000000803F0744
:10013000634236B79BD8A71A39685618AEBAAB5582
:100140008C1D3CB7CC5763BD6DEDFD753EF6177247
:1001500031BF000000803F08000000BE9224491219
:100160003EABAAAA2ABECDCCCC4C3E00000080BE3D
:10017000ABAAAAAA3E00000000BF000000803F001A
:1001800000000000084178D3BB4387D1133D190E0E
:100190003CC3BD4282AD2B3E68EC8276BED98FE176
:1001A000A93E4C80EFFFBE01C4FF7F3F000000006E
:1001B00000000C9420B30D948E090C9497570D9465
:1001C00069440C94C4570D94841F0C94AFFB0C9499
:1001D000ADBB0C94ADB00C9496B00D947E0E0C9407
:1001E000D6ED0D94A2050C94BBB00C94A5EA0C942A
:1001F0009BEE0C94B3BB0D944D1A0D94CD130D943E
:1002000011140D94C3130C947FB30C94A2EA0C94B4
:1002100088B00D9496090D94CE430C94C5F70C94B8
:100220008EB50D94767C0C949FEA0C943DC40D948D
:100230006C0B0C9470C40C9492B00C9482C40C940B
:10024000D7F70C9429B60C9493F10D94CB430C94EE
:1002500060B30C94AFC40D94B30B0D94D5130D94EF
:1002600074100C9481B10D94A7090D94B31D0C94D6
:100270007AB50C94A7B00C9400B80D9486040D9434
:10028000DA1F0D946C440D9497040D9438140C945B
:100290006DBC0D946C760C9496EA0D9435080D9413
:1002A00031100D9429330C945ACB0C944AC40D94FC
:1002B0004A7C0D943D050C94A3B00D947B7C0C946A
:1002C000BB570C94C3B00C9457BA0C9472570C944F
:1002D000FAF10D94A4050D940D200D94A80D0D9424
:1002E0004F760D9460130D94D8430C94525B0D948B
:1002F000F1330D94BB080D94D70A0C9445BC0C94B3
:1003000075B50D949D130D94DD070D9462050C9445
:1003100050410D94C5040D94091B0C94C3C40C9456
:1003200001B50C948EB00C9478C40C9465B00C9408
:10033000C8B00C9433BC0C94A5B50C9493B50D9433
:10034000C7440D9476140D94C6490C9484B50C944E
:10035000E2B70D94667C0C943ACB0D94F4750C9432
:10036000C5BB0C94B5B00C948CC40C9468C40C94AC
:1003700021F80C947FB50C94BCBB0C9489B50C94FB
:100380007AFF0D9479050C9461BA0C948C570D94F6
:10039000B7440D946F760D94310D0C9463B70C94A3
:1003A00045C40C9483F20C94C9B00D9465040D946B
:1003B0006E050C947BB10D945B040C94D1B00C943D
:1003C000A6490C948CBA0C94D3FE0D9451040C9451
:1003D000A8EA0C94FEF20D9441050C94BDEA0C942D
:1003E0006A5A0C94F0BA0C9433FE0D9460140D9478
:1003F00047AE0C94C2F30D94F60D0D9445AC0C94DD
:100400009CB50C94BFB00C9498B50C9492FF0D94CD
:100410007A490C9466B10C94A5FE0D9473080D9462
:1004200031040D947B100C94A5570C94FEF10C94A0
:10043000F9570D9477440C943C570D94CF440D9488
:1004400066100C94A5C40D94AD060D9456050C943D
:100450003BB40D9486140C945EC40D94181D0C943A
:10046000BCF40D946F440C943EEA0D94D5430C9467
:1004700002F30C945CBC0D9435200D94430D0D9447
:100480008E430C9406F30C94C6EA0D9485060D94E5
:100490009B050D946D100D9408440C949DB00D9423
:1004A00010090C94CDB00D941D070C9447EA0C94E0
:1004B000AFB90C9439BC0D943B040D9457090C94BE
:1004C00059EA0D941D150D94AE4F0C94D5B00C94B3
:1004D000B7B30D9487440C9402F90D94971F0D94B3
:1004E0003A0D0C947CBB0C94C1B40D94047C0D9417
:1004F0008F440C9429F00D94D6150C9496C40D9449
:1005000072760C94B0BB0C94BAEA0D9435440D94F9
:100510001C200D94CB070C94B9BB0D9451060C9480
:1005200023F00D945F100D947F440C943FBC0D9408
:1005300007140D9427040D9432440C94B9C40C9400
:100540000AF30C9454C40D94BF440D941D040D94EF
:100550006D7C0C9420F30D94A7440C94B6BB0C94C2
:1005600051BC0C946CB30C946BBC0D94A6430D94CD
:10057000697C0D9476230C94B1EA0D9438440C9464
:100580009AB00D9442140C94B1B00D946F040D9474
:100590000E080C94F8F20D94ED1B0D943E140C947F
:1005A000A0B30D94E1030C94D7C40D94AF440D9403
:1005B00097440C94CDC40D9429140D94AA140C9452
:1005C000E7570C949EFB0D940D760C9491B30D940B
:1005D0009F440D9445040C9400BB0D9466440D9407
:1005E000EB370C9431C90D94660B0C94ACB30D949D
:1005F000710B0D944E106E616E00696E66000040C6
:100600007A10F35A00A0724E18090010A5D4E80021
:1006100000E87648170000E40B54020000CA9A3B39
:10062000000000E1F50500008096980000004042BF
:100630000F000000A086010000001027000000004D
:10064000E803000000006400000000000A00000051
:1006500000000100000000002C76D888DC674F08FD
:1006600023DFC1DFAE59E1B1B796E5E3E453C63A03
:10067000E651997696E8E6C28426EB898C9B62ED7A
:10068000407C6FFCEFBC9C9F40F2BAA56FA5F49034
:10069000055A2AF75C936B6CF9676DC11BFCE0E4AB
:1006A0000D47FEF520E6B500D0ED902E0300943501
:1006B00077050080841E080000204E0A000000C854
:1006C0000C333333330F986E12831141EF8D2114A5
:1006D000893BE65516CFFEE6DB18D1844B381BF775
:1006E0007C1D901DA4BBE424203284725E22810014
:1006F000C9F124ECA1E53D272200656E717565699D
:100700006E67202200446F6E65207072696E746996
:100710006E672066696C65004E6F204C696E6520BF
:100720004E756D62657220776974682063686563D1
:100730006B73756D2C204C617374204C696E653A37
:1007400020004E6F20436865636B73756D20776979
:100750007468206C696E65206E756D6265722C2000
:100760004C617374204C696E653A20006368656360
:100770006B73756D206D69736D617463682C204CAB
:10078000617374204C696E653A20004C696E652077
:100790004E756D626572206973206E6F74204C61B6
:1007A0007374204C696E65204E756D6265722B31D5
:1007B0002C204C617374204C696E653A2000256CC6
:1007C00075206279746573207772697474656E2020
:1007D000746F2025532061742061646472657373A3
:1007E0002030782530346C780A00442564202D2090
:1007F000526561642F57726974652025530A002081
:10080000436F756E7420583A200045303A256420B5
:1008100052504D2050524E313A25642052504D20B6
:100820004530403A25752050524E31403A25750AE0
:1008300000526573656E640025533A20256C640A86
:1008400025530A002F2F616374696F6E3A6E6F74BF
:10085000696669636174696F6E2025530A00466991
:100860006C616D656E742072756E6F757420646551
:1008700074656374656421005072696E74657220DA
:1008800073746F707065642064756520746F206583
:1008900072726F72732E2053757065727669736908
:1008A0006F6E2072657175697265642E0064756D76
:1008B0007020636C65617265640A006E6F206475F8
:1008C0006D7020617661696C61626C650A0044320A
:1008D00031202D2072656164206372617368206429
:1008E000756D700A006E6F2064756D7020617661A1
:1008F000696C61626C650A0064756D7020636F6D70
:10090000706C6574656420696E20256C756D730A62
:100910000058464C41534800454550524F4D0053F6
:1009200052414D00442D31202D20456E646C65737D
:1009300073206C6F6F700A0041637469766520459F
:10094000787472756465723A203000496E76616C15
:10095000696420657874727564657200746D6332C1
:100960003133305F7072696E745F63757272656E79
:10097000747328290A094809520A58092564092567
:10098000640A590925640925640A5A092564092558
:10099000640A450925640925640A005344207072DD
:1009A000696E74696E672062797465200025750030
:1009B000556E6B6E6F776E20636F6D6D616E643A0E
:1009C0002022004D32303020496E76616C696420FF
:1009D000657874727564657220007A5F6D61783A2B
:1009E00020007A5F6D696E3A2000795F6D61783A18
:1009F0002000795F6D696E3A2000785F6D61783A0A
:100A00002000545249474745524544006F70656E77
:100A100000785F6D696E3A20005265706F7274697C
:100A20006E6720656E6473746F7020737461747583
:100A300073004D3131322063616C6C65642E20454A
:100A40006D657267656E63792053746F702E002F29
:100A50002F616374696F6E3A75766C6F5F72656350
:100A60006F766572795F7265616479002F2F6163BB
:100A700074696F6E3A75766C6F5F6175746F5F72D3
:100A800065636F766572795F726561647900534959
:100A90004C454E54004E4F524D414C002553204D75
:100AA0004F44453A2050657263656E7420646F6EE2
:100AB000653A20256868643B207072696E74207402
:100AC000696D652072656D61696E696E6720696E1A
:100AD000206D696E733A2025643B204368616E6720
:100AE0006520696E206D696E733A2025640A005096
:100AF00072696E74657253746174653A2025640A74
:100B000000456E642066696C65206C6973740042F0
:100B10006567696E2066696C65206C697374005541
:100B20006E6B6E6F776E20256320636F64653A206D
:100B300025730A000A50494E44412074656D706562
:100B40007261747572653A20252E3166205A2073C1
:100B50006869667420286D6D293A20252E33660059
:100B60000A537465703A2025642F360A000A5374BC
:100B700065703A2025642F362028736B6970706584
:100B800064290A50494E44412074656D7065726154
:100B9000747572653A202564205A207368696674FA
:100BA00020286D6D293A300A000A5A45524F3A20E2
:100BB000252E33660A0073746172742074656D703B
:100BC000657261747572653A20252E31660A0025BA
:100BD000642020252E326600255320583A20252EE9
:100BE000356620593A20252E3566205A3A20252E82
:100BF00035660A00536C6565702E2E2E0045303A1E
:100C000025642052504D0A50524E303A25642052ED
:100C1000504D0A00002045535000204E53500020F4
:100C20004F464600204F4E005056303100205B4D5D
:100C3000505D2000256920686F757273202569203A
:100C40006D696E757465730052582074696D656FB7
:100C50007574004D333130004D313132004D31313A
:100C6000300046756C6C205258204275666665727D
:100C70000053657474696E67732053746F72656492
:100C800000544D3A2073746F7265642063616C691F
:100C900062726174696F6E20696E76616C69642C32
:100CA00020726573657474696E670053746F726542
:100CB000642073657474696E6773207265747269F9
:100CC000657665640048617264636F64656420449E
:100CD000656661756C742053657474696E67732002
:100CE0004C6F6164656400563200000000C8420029
:100CF00000C8420000C84300008C43000048430085
:100D0000004843000040410000F042E8030000E8D2
:100D1000030000C80000008813000000409C44004D
:100D2000409C440000000000000000204E00000035
:100D300000204100002041CDCCCC3E00009040007E
:100D40000000000000000000000000CDCCCC3E0000
:100D50000070410745F33E0160EA428F42FC42E6E3
:100D60005A343F4C62B04500000000004040000093
:100D700034420000000000000000000000410000BC
:100D800000E03F0000C8420000C8420000404100AF
:100D900000F042C0030000C0030000C8000000884B
:100DA0001300001010102000409C440000803F0001
:100DB00000003F1914000000437573746F6D004EFE
:100DC000796C6F6E504100536174696E202000543D
:100DD000657874757200536D6F6F746800486F7436
:100DE000656E642066616E2073706565642069734A
:100DF000206C6F776572207468616E20657870650D
:100E000063746564005072696E742066616E20734D
:100E100070656564206973206C6F776572207468F3
:100E2000616E20657870656374656400312E3000F2
:100E3000312E3500554E4B4E4F574E004C41313000
:100E4000433A204C696E65617220416476616E633D
:100E500065206D6F64653A20004C413130433A2083
:100E600041646A757374656420452D4A65726B3AF6
:100E700020003E0FA8AF00480069960000DF602503
:100E8000555887680427F2E0005E3403CC1960F3FC
:100E90003C0EF88F00DB08029492003E1C079A87F4
:100EA00000E524008528527E06001BE4007E7812AF
:100EB00070787061F812788F88417842707870612C
:100EC000782570787061F850788F88D1F0252707E1
:100ED0008761F025278F88412C0D27AA50D1BC07A8
:100EE00007871161BE788F881141785270787061E0
:100EF000F852788F88412012788870632052788861
:100F000070634852788887430311179970641812E8
:100F100078F870654412F8F8F045184278F8706572
:100F2000182578F87065185278F87065185078F8B8
:100F300070650C078F872365A20F8F8F11450012F4
:100F400006227069001207222749002506227069CF
:100F500000250722274900120622276C026236A2CA
:100F6000706C40456C44704C03622222706C438864
:100F70008888F04C7812BC88806E7852BC88806E6D
:100F800038127888706F78127888874F384278885E
:100F9000706F38257888706F3A0079AC786F3D07AC
:100FA0009AAC786F7850788887EF39497888706F75
:100FB0000852BC8880729852F88F9852201278702C
:100FC000F07348127863875320527870F073485258
:100FD000786387531007870F24731278638724532D
:100FE00060699A988BE22304E4443074104E4443C1
:100FF00024747C12888960753C50888870557825E7
:10100000288960757949088960753C128870707903
:101010000C12885222594412F124F07A4452F124DD
:10102000F07A8C52F0368F5A4420F124F07A004046
:101030001454CDCCCC3D0AD7233C17B7D13877CC4C
:101040002B329595E6241FB14F0A00002041000085
:10105000C84200401C4620BCBE4CCA1B0E5AAEC53E
:101060009D744E414E494E464372617368206465DB
:101070007465637465642E00536F6D652070726FC4
:10108000626C656D20656E636F756E746572656404
:101090002C205A2D6C6576656C696E6720656E66CE
:1010A0006F72636564202E2E2E004D65736820627A
:1010B0006564206C6576656C696E67206661696C35
:1010C00065642E205072696E742063616E63656C76
:1010D00065642E0048656174696E67206469736198
:1010E000626C65642062792073616665747920742E
:1010F000696D65722E0053544F505045442E005078
:10110000415553454420544845524D414C20455289
:10111000524F5200472D636F646520736C6963659D
:101120006420666F72206120646966666572656E10
:1011300074206C6576656C2E20506C65617365203B
:1011400072652D736C69636520746865206D6F64CA
:10115000656C20616761696E2E205072696E742023
:1011600063616E63656C6C65642E00472D636F640C
:101170006520736C6963656420666F72206120640A
:101180006966666572656E74206C6576656C2E2086
:10119000436F6E74696E75653F00472D636F6465BC
:1011A00020736C6963656420666F722061206E65D0
:1011B000776572206669726D776172652E20506C5A
:1011C000656173652075706461746520746865205D
:1011D0006669726D776172652E205072696E742037
:1011E00063616E63656C6C65642E00472D636F648C
:1011F0006520736C6963656420666F722061206E80
:1012000065776572206669726D776172652E20431D
:101210006F6E74696E75653F00472D636F6465205E
:10122000736C6963656420666F722061206469660F
:10123000666572656E74207072696E746572207472
:101240007970652E20506C656173652072652D7311
:101250006C69636520746865206D6F64656C2061DE
:101260006761696E2E205072696E742063616E63CF
:10127000656C6C65642E00472D636F646520736C2C
:101280006963656420666F722061206469666665C3
:1012900072656E74207072696E74657220747970F4
:1012A000652E20436F6E74696E75653F00507265E0
:1012B000737320746865206B6E6F6220746F20708A
:1012C000726568656174206E6F7A7A6C6520616EF4
:1012D0006420636F6E74696E75652E00506C656175
:1012E000736520707265737320746865206B6E6F10
:1012F0006220746F20756E6C6F61642066696C612A
:101300006D656E7400616E64207072657373207415
:101310006865206B6E6F6200496E7365727420663B
:10132000696C616D656E7400436F6C6F72206E6FD7
:101330007420636F72726563740046696C616D65D9
:101340006E74206E6F74206C6F6164656400436816
:10135000616E67656420636F72726563746C790097
:101360004C6F6164696E6720636F6C6F72004368D5
:10137000616E676520737563636573732100506CDC
:1013800065617365206F70656E2069646C6572209D
:10139000616E642072656D6F76652066696C616D43
:1013A000656E74206D616E75616C6C792E0057618D
:1013B000732066696C616D656E7420756E6C6F610B
:1013C00064207375636365737366756C3F00506C5E
:1013D0006561736520757067726164652E004E6586
:1013E00077206669726D77617265207665727369C0
:1013F0006F6E20617661696C61626C653A0057615D
:101400006974696E6720666F722050494E444120AE
:1014100070726F626520636F6F6C696E6700506CED
:10142000656173652077616974004E6F206D6F761A
:10143000652E005761697420666F7220757365723E
:101440002E2E2E00537461626C6520616D62696599
:101450006E742074656D706572617475726520328A
:10146000312D323643206973206E656564656420D2
:1014700061207269676964207374616E64206973A6
:101480002072657175697265642E00506C656173B8
:10149000652072756E2058595A2063616C696272BA
:1014A0006174696F6E2066697273742E0062757361
:1014B000793A2070617573656420666F7220696E79
:1014C00070757400627573793A2070617573656424
:1014D00020666F72207573657200627573793A20A9
:1014E00070726F63657373696E670000007F4300FD
:1014F0008054430000524300000000000080C09A66
:1015000099193E00000000000080C09A99193E0021
:1015100000A0400000A0400000004025336420737C
:101520007465703D253264206D73636E743D25349F
:10153000640A0000007F43008058439AD95143FF5A
:10154000FFFF20413A0020503A002042403A00205C
:10155000403A00202F002054303A00202F00204233
:101560003A00202F00543A00255345786365737381
:1015700069766520626564206C6576656C696E6766
:1015800020636F7272656374696F6E3A20256920FB
:101590006D6963726F6E730A00426564206C6576D4
:1015A000656C696E67206661696C65642E20546F96
:1015B0006F206D75636820766172696174696F6E02
:1015C0002066726F6D20656570726F6D206D65733A
:1015D0006800426564206C6576656C696E6720669C
:1015E00061696C65642E2053656E736F722074722E
:1015F0006967676572656420746F6F20736F6F6EC3
:10160000002020004D6561737572656420706F69FC
:101610006E74733A005A207365617263682068655E
:10162000696768743A20352E3066004E756D205813
:101630002C593A20372C37004D6573682062656459
:10164000206C6576656C696E67206E6F74206163CF
:10165000746976652E0020453A00205A3A002059D8
:101660003A0020453A00205A3A0020593A00583AA8
:1016700000202D3E200053706F6F6C4A6F696E3AE8
:1016800020002C20006673656E736F722076302EFA
:101690003420696E206661756C742072616E6765B6
:1016A00020342E362D3556202D20756E636F6E6ECC
:1016B0006563746564006673656E736F7220696E2E
:1016C00020666F7262696464656E2072616E676520
:1016D00020312E352D3356202D20636865636B2015
:1016E00073656E736F7200496E61637469766974B5
:1016F000792053687574646F776E004B494C4C4584
:10170000442E005072696E7465722068616C746555
:10171000642E206B696C6C28292063616C6C656495
:1017200021005A206C6976652061646A75737420A3
:101730006F7574206F662072616E67652E20536529
:101740007474696E6720746F20302E20436C696357
:101750006B20746F20636F6E74696E75652E005A0E
:10176000206C6976652061646A757374206F757486
:10177000206F662072616E67652E205365747469F0
:101780006E6720746F20300020453A3020423A00C6
:10179000543A004731205A252D2E33662046252DF8
:1017A0002E336600496E76616C6964205420636F45
:1017B00064652E004475706C696361746520542DF6
:1017C000636F64652069676E6F7265642E004164A3
:1017D00076616E6365204B3D004B206F7574206F02
:1017E0006620616C6C6F7765642072616E6765213D
:1017F000004D4B3353004D4B33534D4D5533005E2D
:10180000762E012533642F253364002533640020B0
:101810000A200A200A200025534172632053657470
:1018200074696E67733A20503A4D6178206C656E2A
:10183000677468286D6D2920533A4D696E206C6578
:101840006E67746820286D6D29204E3A436F72725E
:10185000656374696F6E7320523A4D696E207365CB
:10186000676D656E747320463A5365676D656E7477
:10187000732F7365632E0A255320204D3231342097
:1018800050252E32662053252E3266204E256420A8
:10189000522564204625640A00255346696C616D13
:1018A000656E742073657474696E67733A20446959
:1018B0007361626C65640A00255346696C616D65ED
:1018C0006E742073657474696E67733A0A255320C9
:1018D00020204D3230302044252E32660A00255318
:1018E000526574726163743A20533D4C656E67743F
:1018F0006820286D6D2920463A537065656420285C
:101900006D6D2F6D29205A3A205A4C696674202833
:101910006D6D290A25532020204D32303720532564
:101920002E32662046252E3266205A252E32660A31
:1019300025535265636F7665723A20533D4578743E
:101940007261206C656E67746820286D6D29204671
:101950003A537065656420286D6D2F6D290A2553F3
:101960002020204D3230382053252E326620462547
:101970002E32660A25534175746F2D52657472615B
:1019800063743A20533D3020746F20646973616240
:101990006C652C203120746F20696E7465727072D2
:1019A000657420657874727564652D6F6E6C79202E
:1019B0006D6F7665732061732072657472616374F4
:1019C00073206F72207265636F7665726965730A42
:1019D00025532020204D323039205325640A00251C
:1019E000535049442068656174626564207365746E
:1019F00074696E67733A0A25532020204D333034C2
:101A00002050252E32662049252E32662044252E70
:101A100032660A0025535049442073657474696E18
:101A200067733A0A25532020204D3330312050254A
:101A30002E32662049252E32662044252E32660A33
:101A400000255353746570732070657220756E693C
:101A5000743A0A255320204D39322058252E3266FB
:101A60002059252E3266205A252E32662045252EF5
:101A700032660A25535553746570207265736F6C16
:101A80007574696F6E3A200A2553204D3335302026
:101A900058256420592564205A2564204525640A68
:101AA00025534D6178696D756D2066656564726159
:101AB000746573202D206E6F726D616C20286D6DC2
:101AC0002F73293A0A255320204D323033205825D0
:101AD0002E32662059252E3266205A252E32662057
:101AE00045252E32660A25534D6178696D756D2046
:101AF000666565647261746573202D207374656119
:101B00006C746820286D6D2F73293A0A25532020A4
:101B10004D3230332058252E32662059252E32661C
:101B2000205A252E32662045252E32660A25534D31
:101B30006178696D756D20616363656C6572617450
:101B4000696F6E202D206E6F726D616C20286D6D37
:101B50002F7332293A0A255320204D323031205834
:101B6000256C752059256C75205A256C75204525E6
:101B70006C750A25534D6178696D756D20616363DD
:101B8000656C65726174696F6E202D207374656178
:101B90006C746820286D6D2F7332293A0A25532002
:101BA000204D3230312058256C752059256C752018
:101BB0005A256C752045256C750A2553416363656C
:101BC0006C65726174696F6E3A20503D7072696E17
:101BD000742C20523D726574726163742C20543DE4
:101BE00074726176656C0A255320204D32303420A2
:101BF00050252E32662052252E32662054252E3254
:101C0000660A2553416476616E636564207661726D
:101C10006961626C65733A20533D4D696E2066655B
:101C200065647261746520286D6D2F73292C2054B2
:101C30003D4D696E2074726176656C2066656564E1
:101C40007261746520286D6D2F73292C20423D6DC3
:101C5000696E696D756D207365676D656E7420744E
:101C6000696D6520287573292C20583D6D61786950
:101C70006D756D205859206A65726B20286D6D2F27
:101C800073292C20205A3D6D6178696D756D205A3D
:101C9000206A65726B20286D6D2F73292C202045DA
:101CA0003D6D6178696D756D2045206A65726B20A8
:101CB000286D6D2F73290A255320204D3230352091
:101CC00053252E32662054252E32662042256C750F
:101CD0002058252E32662059252E3266205A252E70
:101CE00032662045252E32660A2553486F6D6520E1
:101CF0006F666673657420286D6D293A0A25532036
:101D0000204D3230362058252E32662059252E326D
:101D100066205A252E32660A00544D3A20525B2521
:101D2000755D20657374696D6174652E00544D3A5C
:101D300020255320522025644300544D3A2025533A
:101D40002043206573742E00544D3A20636F6F6CEE
:101D500020646F776E203C25644300726566696E6F
:101D60006500696E697469616C00544D3A20636165
:101D70006C6962722E206661696C65642100544D45
:101D80003A2063616C6962726174696F6E2073746A
:101D900061727400544D3A2043616C2E204E4F54B2
:101DA0002049444C45004361703A25533A25630A63
:101DB0000050525553415F4D4D55320045585445E2
:101DC0004E4445445F4D3230004155544F524550CA
:101DD0004F52545F504F534954494F4E0041555450
:101DE0004F5245504F52545F46414E530041555457
:101DF0004F5245504F52545F54454D50000044657A
:101E00006C6574696F6E206661696C65642C204630
:101E1000696C653A200046696C652064656C657480
:101E200065643A004E6F74205344207072696E747A
:101E3000696E67005072696E742073617665640024
:101E40005344207072696E7420706175736564000C
:101E50002533642F253364004F4B00424144005228
:101E6000414D426F2046414E2000667600746878EE
:101E70000050524E0043524153485F43414E434548
:101E80004C0043524153485F5245434F5645520020
:101E900043524153485F5245434F56455200222812
:101EA00032290025533A2025530A002C204D393081
:101EB0003720452069676E6F726564006E6F20760B
:101EC000616C696420636F6D6D616E64007A657228
:101ED0006F72697A656400666163746F72792072EB
:101EE0006573746F72656400696E6465782C207424
:101EF000656D702C2075737465702C20756D0050A5
:101F0000494E44412063616C207374617475733A67
:101F10002000503A005761697420666F7220504962
:101F20004E4441207461726765742074656D7065FC
:101F30007261747572653A002041002050002042A1
:101F400000204C00205200205A00204E4F542049BF
:101F50004E495449414C495A45440053686565749B
:101F60002000205A2056414C5545204F5554204FB3
:101F7000462052414E474500496E76616C696420A7
:101F800073686565742049442E20416C6C6F7765D9
:101F9000643A20302E2E004155544F004C414E479C
:101FA0002053454C20464F524345440020643A009C
:101FB00020693A0020703A0020643A0020693A0013
:101FC00020703A00256925250A00256925250A0083
:101FD00022283129002F2F00002045585452554403
:101FE00045525F434F554E543A3100204D414348CE
:101FF000494E455F545950453A00312E3000206219
:1020000061736564206F6E204D61726C696E20464D
:1020100049524D574152455F55524C3A687474705D
:10202000733A2F2F6769746875622E636F6D2F7016
:102030007275736133642F50727573612D466972C6
:102040006D776172652050524F544F434F4C5F562D
:10205000455253494F4E3A00313635353266376274
:1020600064005F0038323530002B004649524D572E
:102070004152455F4E414D453A50727573612D4650
:1020800069726D7761726520004D313133205300E4
:102090006F6B200020636D2E00206D696E20005351
:1020A0005441545320006E2F61003F546F73686990
:1020B000626120466C6173684169722047657449AA
:1020C00050206661696C65640A00000125311D0CB1
:1020D0004024301C0B45232F1B0A17FF0406222B1C
:1020E0001A03363735382569206D696E2C2025692D
:1020F0002073656300496E76616C6964204D2063CE
:102100006F64653A2025730A0050494E444120709F
:10211000726F62652063616C6962726174696F6E6F
:10212000207374617274004E6F2050494E444120F8
:10213000746865726D6973746F7200736574006E94
:102140006F7A7A6C65004D424C004652004C7A0022
:102150004C616E6700315F37356D6D5F4D4B3353AA
:102160002D45494E53795F3130612D4533445245F9
:10217000564F5F48465F3630570052657600332E23
:1021800031342E312D383235300046697200534ECD
:1021900020696E76616C696400534E005245534568
:1021A00054004D4D555245530075766C6F004641B5
:1021B0004E0046414E50494E5453540050525553D0
:1021C00041005345545F43484F505F005345545FAF
:1021D000535445505F005345545F574156455F0087
:1021E000544D435F0043524153485F43414E434582
:1021F0004C0043524153485F5245434F56455200AD
:1022000043524153485F4445544543544544004379
:10221000524153485F0047312058313020593138FE
:1022200030204634303030004731205A313020469B
:1022300031333030004D313430205330004D3130A7
:102240003420533000473120452D302E3037352093
:102250004632313030004731204634303030004D86
:10226000323034205331303030004731205A35205D
:10227000463732303000473120452D312E3520464B
:102280003231303000473930004731205835204551
:1022900034204631303030004731205A302E322041
:1022A0004631303030004731205835352045323501
:1022B00020463134303000473120592D322046310C
:1022C000303030004731205832343020453235200C
:1022D000204632323030004731205A302E332046EB
:1022E00031303030004731205835352045382046D0
:1022F00032303030004731205835204532392046C1
:1023000031383030004731205835352045323920BA
:1023100046313037330047393220453000473238B4
:10232000004D313039004D313930004D31303700FA
:1023300048426564206F6E206C6F616400466C617A
:10234000736841697200546865726D616C204D6FED
:1023500064656C2063616C2E004572723A5052497C
:102360004E542046414E204552524F520045727203
:102370003A484F54454E442046414E204552524F14
:1023800052002F2F616374696F6E3A726573756DB9
:102390006564002F2F616374696F6E3A726573759F
:1023A0006D65002F2F616374696F6E3A72656164A9
:1023B00079002F2F616374696F6E3A6E6F745F726C
:1023C00065616479002F2F616374696F6E3A636190
:1023D0006E63656C0041786973206C656E67746824
:1023E00020646966666572656E63653A252E33669C
:1023F0000A004D65617375726564206178697320A8
:102400006C656E6774683A252E33660A004F4B0080
:102410004C434420737461747573206368616E6704
:10242000656400534420636172642072656C656169
:102430007365640046616B652073657269616C2029
:102440006E756D62657200452D636F6F6C206D6FE8
:10245000646500414C5446414E206465742E002F43
:102460002F616374696F6E3A7374617274004D38D2
:1024700034004D373032004D383300473238205762
:10248000004D3530300045787465726E616C2053B4
:10249000504920666C6173680A58464C4153482085
:1024A0006973206E6F74207265732D0A706F6E648D
:1024B000696E672E204C616E67756167650A737778
:1024C0006974636820756E617661696C61626C65C0
:1024D0002E0058464C415348206E6F74207265732D
:1024E000706F6E64696E672E004657206372617369
:1024F000682064657465637465642120596F752074
:1025000063616E20636F6E74696E756520707269A9
:102510006E74696E672E204465627567206461740D
:102520006120617661696C61626C6520666F722002
:10253000616E616C797369732E20436F6E74616391
:102540007420737570706F727420746F207375626D
:102550006D69742064657461696C732E002F2F613E
:102560006374696F6E3A64756D705F617661696CF2
:1025700061626C650043726173684465746563747D
:102580002044495341424C454400437261736844BE
:10259000657465637420454E41424C4544210048B2
:1025A0006F74656E642066616E20747970653A2080
:1025B000002020506C616E6E6572427566666572B1
:1025C00042797465733A20002046726565204D6536
:1025D0006D6F72793A2000207C20417574686F72AB
:1025E0003A2000204C6173742055706461746564F6
:1025F0003A200020536F66747761726520526573CC
:10260000657400205761746368646F672052657356
:102610006574002042726F776E206F75742052656A
:10262000736574002045787465726E616C20526524
:1026300073657400506F7765725570006572726FC4
:10264000722077726974696E6720746F2066696C96
:102650006500446F6E6520736176696E67206669F8
:102660006C652E006F6B0046696C616D656E740061
:102670004D6561737572656420736B6577733A207D
:1026800025662025660A0046697474696E672066AF
:1026900061696C6564203D3E2063616C69627261B2
:1026A00074696F6E206661696C65642E0A0043610F
:1026B0006C6962726174696F6E20737563636573B0
:1026C000732E0A00416C6C20342063616C69627265
:1026D0006174696F6E20706F696E747320666F75B8
:1026E0006E642E0A00312F3400312F3400312F391F
:1026F000001000C90210012C0140012201700118D4
:1027000001B0010E01F00104015002FA00B002F024
:10271000003003E600D003DC009004D2007005C84E
:1027200000A006BE000008B400B009AA00D00BA0AB
:1027300000600E960060118C000015820020197850
:1027400000C01D6E00A0226400B0275A00902C50DB
:102750000000314600E0343C0010383200903A2846
:1027600000603C1E00A03D1400803E0A00203F0097
:102770000058595A2063616C6962726174696F6EA6
:1027800020616C6C2072696768742E20536B6577CA
:102790002077696C6C20626520636F727265637468
:1027A0006564206175746F6D61746963616C6C79C7
:1027B0002E0058595A2063616C6962726174696FA6
:1027C0006E20616C6C2072696768742E20582F59D6
:1027D00020617865732061726520736C6967687425
:1027E0006C7920736B657765642E20476F6F64206A
:1027F0006A6F62210058595A2063616C6962726184
:1028000074696F6E206F6B2E20582F592061786588
:1028100073206172652070657270656E646963759E
:102820006C61722E20436F6E67726174756C617497
:10283000696F6E732100436865636B7300416C7050
:1028400068616265740054696D6500536F7274004D
:10285000534420636172640052506920706F727437
:10286000004C696E2E20636F7272656374696F6EBF
:10287000004E6F7A7A6C65206368616E6765004808
:1028800057205365747570004C6F6164696E6720E2
:10289000546573740044697361626C652073746578
:1028A0007070657273004D6F766520617869730092
:1028B00054656D70657261747572650050494E445F
:1028C000412063616C2E0052657365742058595A1B
:1028D0002063616C6962722E005049442063616C10
:1028E0006962726174696F6E00426564206C65761E
:1028F000656C20636F7272656374004D6573682048
:10290000426564204C6576656C696E670043616C56
:10291000696272617465205A0043616C6962726118
:1029200074652058595A0053656C66746573740059
:1029300042656C7420746573740057697A617264BF
:10294000004C6F616420416C6C00506C6561736574
:102950002070756C6C206F75742066696C616D6594
:102960006E7420696D6D6564696174656C7900527F
:10297000657365740052656E616D650046697273BA
:1029800074206C617965722063616C2E0053656CF4
:1029900065637400537465656C2073686565747352
:1029A00000537570706F7274004661696C207374A7
:1029B000617473204D4D55004661696C20737461DC
:1029C0007473005374617469737469637300436151
:1029D0006C6962726174696F6E004175746F4C6FDF
:1029E00061642066696C616D656E74004C6F616432
:1029F0002066696C616D656E7400556E6C6F616404
:102A00002066696C616D656E74004C6F6164207442
:102A10006F206E6F7A7A6C65005072656C6F6164BE
:102A200020746F204D4D55004E6F7A7A6C6520648E
:102A30002E004E6F2053442063617264005072690F
:102A40006E742066726F6D20534400436C65617232
:102A500020544D206572726F7200526573756D65FA
:102A6000207072696E7400506175736520707269B0
:102A70006E74005365742052656164790053657407
:102A8000206E6F74205265616479005072656865CC
:102A900061740054756E65004C6976652061646AE6
:102AA000757374205A0052657072696E7400496EB5
:102AB000666F2073637265656E0042726967687441
:102AC0006E657373004173736973740053696C6549
:102AD0006E74004F6E6365004C6F756400536F75C4
:102AE0006E640046696C2E2073656E736F720043CE
:102AF00068616E67652066696C616D656E7400461D
:102B00006C6F77005370656564004E2F41004D6116
:102B1000676E65747320636F6D702E005A2D70722E
:102B20006F6265206E722E004D6573680044696D9A
:102B300000427269676874004175746F0054696D72
:102B4000656F7574004C6576656C2044696D6D65C4
:102B500064004C6576656C20427269676874005346
:102B6000657474696E67730053746F702070726956
:102B70006E7400436865636B696E672066696C6597
:102B80000046696C6520696E636F6D706C65746575
:102B90002E20436F6E74696E756520616E79776162
:102BA000793F008452656672657368004D61696E95
:102BB00000496E73657274207468652066696C6183
:102BC0006D656E742028646F206E6F74206C6F6169
:102BD000642069742920696E746F207468652065AB
:102BE0007874727564657220616E64207468656EB5
:102BF00020707265737320746865206B6E6F622E2F
:102C00000053656E736F72207665726966696564DC
:102C10002C2072656D6F7665207468652066696C1E
:102C2000616D656E74206E6F772E005665726966F1
:102C300069636174696F6E206661696C65642C20DC
:102C400072656D6F7665207468652066696C616D6C
:102C5000656E7420616E64207472792061676169A9
:102C60006E2E00506C6561736520636865636B2030
:102C70007468652049522073656E736F7220636FAC
:102C80006E6E656374696F6E2C20756E6C6F616417
:102C90002066696C616D656E74206966207072656E
:102CA00073656E742E00506C6561736520756E6C73
:102CB0006F6164207468652066696C616D656E740F
:102CC0002066697273742C207468656E207265705A
:102CD000656174207468697320616374696F6E2E16
:102CE0000057616974696E6720666F72206E6F7A33
:102CF0007A6C6520616E642062656420636F6F6C1E
:102D0000696E670053656C6674657374204F4B0081
:102D100053656C66746573742073746172740050CB
:102D200072696E742066616E3A00486F74656E64F5
:102D30002066616E3A0043616C6962726174696E0B
:102D40006720686F6D6500416C6C20636F727265FF
:102D5000637400436865636B696E672073656E73A7
:102D60006F727300436865636B696E6720686F7488
:102D7000656E6400436865636B696E6720626564B5
:102D800000436865636B696E67205A2061786973D8
:102D900000436865636B696E6720592061786973C9
:102DA00000436865636B696E6720582061786973BA
:102DB00000436865636B696E6720656E6473746F4A
:102DC000707300436172642072656D6F7665640094
:102DD0004261636B00537465616C74680043726197
:102DE0007368206465742E004E6F726D616C004DC7
:102DF0006F646500537472696374005761726E008A
:102E00004E6F6E65004E6F7A7A6C65206368616EF6
:102E10006765643F004E6F7A7A6C6520697320683D
:102E20006F7421205761697420666F7220636F6F21
:102E30006C646F776E2E005049442063616C2E20C5
:102E400066696E6973686564005049442063616C0B
:102E50002E005072696E7420706175736564005045
:102E600072696E742061626F72746564004E6F7A6D
:102E70007A6C65206469616D657465722064696649
:102E8000666572732066726F6D2074686520472DC9
:102E9000636F64652E20506C65617365206368659F
:102EA000636B207468652076616C756520696E209F
:102EB00073657474696E67732E205072696E742026
:102EC00063616E63656C6C65642E004E6F7A7A6C1C
:102ED00065206469616D6574657220646966666504
:102EE00072732066726F6D2074686520472D636F62
:102EF00064652E20436F6E74696E75653F0054687B
:102F0000657265206973206E6F2066696C616D65FE
:102F10006E74206C6F616465642E205072696E74EB
:102F20002063616E63656C6C65642E005468657225
:102F300065206973206E6F2066696C616D656E74C3
:102F4000206C6F616465642E20436F6E74696E75CA
:102F5000653F004D4B3353206669726D7761726532
:102F6000206465746563746564206F6E204D4B3317
:102F7000207072696E74657200426C61636B6F756C
:102F800074206F636375727265642E205265636F7F
:102F9000766572207072696E743F00546865726D58
:102FA000616C206D6F64656C206E6F742063616C62
:102FB00069627261746564207965742E0054686575
:102FC0007265206973207374696C6C2061206E6572
:102FD000656420746F206D616B65205A2063616C9D
:102FE0006962726174696F6E2E20506C65617365E1
:102FF00020666F6C6C6F7720746865206D616E75EC
:10300000616C2C206368617074657220466972730C
:10301000742073746570732C2073656374696F6EAC
:103020002043616C6962726174696F6E20666C6FB7
:10303000772E005072696E74657220686173206E1D
:103040006F74206265656E2063616C696272617481
:103050006564207965742E20506C65617365206607
:103060006F6C6C6F7720746865206D616E75616C34
:103070002C206368617074657220466972737420D5
:1030800073746570732C2073656374696F6E20436D
:10309000616C6962726174696F6E20666C6F772E05
:1030A0000053656C66746573742077696C6C20627C
:1030B000652072756E20746F2063616C6962726145
:1030C00074652061636375726174652073656E73E6
:1030D0006F726C657373207265686F6D696E672EB1
:1030E000004F6C642073657474696E677320666F3B
:1030F000756E642E2044656661756C742050494479
:103100002C20457374657073206574632E20776975
:103110006C6C206265207365742E005761726E6955
:103120006E673A20626F7468207072696E7465729F
:10313000207479706520616E64206D6F74686572AB
:10314000626F6172642074797065206368616E6774
:1031500065642E005761726E696E673A20707269FD
:103160006E7465722074797065206368616E67653E
:10317000642E005761726E696E673A206D6F7468D5
:103180006572626F61726420747970652063686132
:103190006E6765642E0054657374696E6720666996
:1031A0006C616D656E74005368656574004E6F7474
:1031B000207370696E6E696E67005370696E6E6918
:1031C0006E670046616E20746573740053656C66AB
:1031D00074657374206661696C6564002573206C86
:1031E0006576656C2065787065637465640046611A
:1031F0006C73652074726967676572696E670046F3
:10320000696C616D656E742073656E736F720053C7
:103210007761707065640046726F6E742F6C6566BE
:10322000742066616E730041786973004178697338
:10323000206C656E677468004C6F6F7365207075E5
:103240006C6C6579004C65667420686F74656E649B
:103250002066616E3F0046726F6E74207072696EF8
:10326000742066616E3F00456E6473746F70206EEB
:103270006F742068697400456E6473746F70004DDC
:103280006F746F7200456E6473746F70730057696A
:1032900072696E67206572726F72004265642F48B2
:1032A0006561746572004E6F7420636F6E6E656346
:1032B000746564004865617465722F546865726D49
:1032C0006973746F7200506C656173652063686523
:1032D000636B3A0053656C66746573742065727233
:1032E0006F72210053656C6563742066696C616D53
:1032F000656E743A0058595A2063616C6962726154
:1033000074696F6E206661696C65642E205269670E
:1033100068742066726F6E742063616C696272619A
:1033200074696F6E20706F696E74206E6F74207296
:103330006561636861626C652E0058595A2063614B
:103340006C6962726174696F6E206661696C656434
:103350002E2046726F6E742063616C6962726174B4
:10336000696F6E20706F696E7473206E6F74207257
:103370006561636861626C652E0058595A2063610B
:103380006C6962726174696F6E206661696C6564F4
:103390002E20506C6561736520636F6E73756C745D
:1033A00020746865206D616E75616C2E0058595AE5
:1033B0002063616C6962726174696F6E20636F6D06
:1033C00070726F6D697365642E205269676874202E
:1033D00066726F6E742063616C6962726174696F8A
:1033E0006E20706F696E74206E6F742072656163F9
:1033F0006861626C652E0058595A2063616C69627D
:10340000726174696F6E20636F6D70726F6D697336
:1034100065642E2046726F6E742063616C696272FF
:103420006174696F6E20706F696E7473206E6F7453
:1034300020726561636861626C652E0058595A207C
:1034400063616C6962726174696F6E206661696C38
:1034500065642E204265642063616C6962726174E8
:10346000696F6E20706F696E7420776173206E6F64
:103470007420666F756E642E00506C6561736520F4
:1034800072656D6F766520737465656C2073686511
:1034900065742066726F6D20686561746265642E64
:1034A00000506C6561736520706C61636520737496
:1034B00065656C207368656574206F6E2068656152
:1034C000746265642E00497320737465656C2073A3
:1034D00068656574206F6E20686561746265643F1D
:1034E0000044697374616E63652062657477656515
:1034F0006E20746970206F6620746865206E6F7A24
:103500007A6C6520616E6420746865206265642051
:103510007375726661636520686173206E6F7420D5
:103520006265656E20736574207965742E20506C19
:103530006561736520666F6C6C6F772074686520B9
:103540006D616E75616C2C206368617074657220AA
:1035500046697273742073746570732C207365638D
:1035600074696F6E204669727374206C617965723C
:103570002063616C6962726174696F6E2E00506CB9
:103580006163652061207368656574206F662070D3
:103590006170657220756E64657220746865206E56
:1035A0006F7A7A6C6520647572696E6720746865DD
:1035B0002063616C6962726174696F6E206F66204E
:1035C0006669727374203420706F696E74732E2074
:1035D000496620746865206E6F7A7A6C6520636135
:1035E0007463686573207468652070617065722CFF
:1035F00020706F776572206F666620746865207032
:1036000072696E74657220696D6D65646961746557
:103610006C792E00536561726368696E672062651C
:10362000642063616C6962726174696F6E20706F8F
:10363000696E74004D6561737572696E672072659D
:10364000666572656E636520686569676874206F7A
:10365000662063616C6962726174696F6E20706F5D
:10366000696E7400506C6561736520636C65616E92
:1036700020746865206E6F7A7A6C6520666F7220A0
:1036800063616C6962726174696F6E2E20436C694C
:10369000636B207768656E20646F6E652E004175E0
:1036A000746F20686F6D65004578706572696D652F
:1036B0006E74616C004673656E736F72204465743E
:1036C000656374696F6E00302E383000302E3630EE
:1036D00000302E343000302E323500446973616280
:1036E0006C65206661726D206D6F64650052657354
:1036F0006574204D4D55004D4D55004D34340047F7
:1037000039390044697361626C65206661726D20AD
:103710006D6F64653F00302E383000302E3630003B
:10372000302E343000302E32350047323820585990
:10373000004D20383400852E2E00593A2025752062
:103740002D3E202E2E2E00583A202575202D3E206D
:103750002E2E2E0046696C616D656E742073656E49
:10376000736F7220626F617264206368616E676557
:103770002064657465637465643A20726576697364
:10378000696F6E25530A004D65617375726564201B
:1037900066696C616D656E742073656E736F7220FF
:1037A0006C6F77206C6576656C3A2025342E326616
:1037B000560A004D656173757265642066696C61B7
:1037C0006D656E742073656E736F722068696768CB
:1037D000206C6576656C3A2025342E3266560A00D8
:1037E0002533642F30002533642F300025632041BA
:1037F000584953205347313D25640A00486F74658A
:103800006E6400426564005A00590058002D2D2D49
:103810002D2D2D2D2D2D2D2D2D2D2D2D2D2D2D2DD8
:103820002D00435A5058496E76616C696453657235
:1038300069616C4E72004D393134004D39313500BB
:103840002B2345223D22352228221622473120589B
:103850002564205925642045252D2E3566004731E5
:10386000204631303830004731205A252D2E33661E
:10387000204637323030004731205835302059311A
:1038800035350016238522772476226A225F225658
:10389000224731205825642045252D2E33662046A9
:1038A00031303030000523F522E522D7221623C41B
:1038B00022B722A62298228922542564004731206B
:1038C0005A302E3420463130303000473120592DC7
:1038D00033204631303030002B23262321231D2373
:1038E00016234D383420585900473120583132358D
:1038F000205A323030204631303030004D333130B4
:10390000204120463100473120583132352059318D
:103910003035205A3120463830303000496E7661DB
:103920006C6964205049442063616C2E2072657379
:10393000756C74732E204E6F742073746F7265648F
:1039400020746F20454550524F4D2E004D3330317D
:103950002050252E32662049252E32662044252E01
:103960003266004D33303320453020532533750007
:10397000524300444556004245544100414C504892
:10398000410000002100240027002A002D00300003
:10399000330001010000040107010A0100002200B8
:1039A000250028002B002E00310034000201000009
:1039B000050108010B01000020002300260029005A
:1039C0002C002F0032000001000003010601090154
:1039D00005050505070508080808020202020A0A8B
:1039E00008080404040401010101010101010303A9
:1039F000030303030303040707070C0C0C0C0C0C54
:103A00000C0C0202020206060606060606060B0B50
:103A10000B0B0B0B0B0B07070A0A0A0A0A0A050510
:103A200005040404080801021020200808102040A2
:103A30001020408002010201080402010102040872
:103A40001020408080402010080402018004020100
:103A50008040201008040201080402010102040849
:103A60001020408001020408102040801008040843
:103A700080102040044080102040048000000A0B89
:103A800002090C0D0E0807030401000000000000ED
:103A90000000000000000000000000000000000026
:103AA00000000000000000001211100000000000E3
:103AB0000000000000000000000000000000000006
:103AC00000000000000000000000000000000000F6
:103AD0000000332E31342E31000A204F726967699D
:103AE0006E616C2050727573612069330A2020204A
:103AF00050727573612052657365617263680A253F
:103B000032302E32305300435A5058003B5300534A
:103B1000706F6F6C4A6F696E206973200061646317
:103B20005F696E697400200A200A200A2000416C37
:103B30006C2044617461005365727669636520701E
:103B4000726570005368697070696E672070726585
:103B5000700053746174697374696373004C616EAF
:103B600067756167650045524153494E4720616C56
:103B70006C206461746100466163746F72792052D5
:103B8000455345540050525553413344465700491C
:103B90004E54340003000E000100400003000200F8
:103BA000000004004E4F4354554100414C544641DF
:103BB0004E00556E6B6E6F776E00323032362D30A0
:103BC000342D32342030393A35313A35370020330C
:103BD0002E31342E312D383235305F313635353295
:103BE0006637626400737461727400534E2075709E
:103BF00064617465206661696C656400534E20756C
:103C000070646174656400435A50580043524153D4
:103C1000485F444554454354454458590043524134
:103C200053485F4445544543544544590043524129
:103C300053485F444554454354454458004D323938
:103C400000252D392E39535B00544D20657374695E
:103C50006D6174696F6E20646964206E6F74206397
:103C60006F6E766572676500544D20697465723AAF
:103C7000257520763A252E326620653A252E336644
:103C80000A0033332942000058419A998D41333359
:103C90005340200A200A20004D4D55323A004D6510
:103CA00061737572652063656E746572202000789B
:103CB000797A63616C5F6D6561737572655F656E5E
:103CC0007465720A0078797A63616C5F73706972E7
:103CD000616C382063783D25642063793D2564203C
:103CE0007A303D256420647A3D25642072616469E0
:103CF00075733D25642061643D25640A0078797AF6
:103D000063616C5F7365617263685A206E6F2073C4
:103D100069676E616C0A20783D256C6420793D25C9
:103D20006C64207A3D256C640A00204F4E2D534967
:103D3000474E414C20617420783D256420793D2513
:103D400064207A3D25642061643D25640A00787909
:103D50007A63616C5F7365617263685A20783D2590
:103D60006C6420793D256C64207A3D256C640A00E2
:103D70002530327800205B25662025665D206D6D3C
:103D8000207061747465726E2063656E7465720A6A
:103D900000205B25662025665D5B25665D206D6DD8
:103DA00020646976657267656E63650A000000F0DD
:103DB00000F801FC03FE07FE07FE07FE07FC03F800
:103DC00001F000000000000000F000F801FC03FC1E
:103DD00003FC03FC03F801F0000000000078797A8E
:103DE00063616C5F6D6561737572655F6C6561764B
:103DF000650A00203C20005741524E494E473A2068
:103E000046726F6E7420706F696E74206E6F7420CE
:103E1000726561636861626C652E205920636F6F03
:103E20007264696E6174653A0000000040410000F0
:103E3000C04000005C430000C04000005C43000044
:103E40004643000040410000464325642F340049AA
:103E50007465726174696F6E3A200043616C6962C7
:103E6000726174696F6E206661696C6564212043BC
:103E70006865636B20746865206178657320616E86
:103E8000642072756E20616761696E2E004D494E27
:103E900054454D5020424544206669786564004D84
:103EA000494E54454D5020484F54454E4420666974
:103EB0007865640024F4D43050C38E20C2A2401729
:103EC000828B7011127A910D816CD90AA861E10878
:103ED000C7586607615143061E4B5D05C145A704DF
:103EE0001A411104093D9803713931034036DB0250
:103EF00065339102D4305402802E1D02632CEE01F2
:103F0000752AC501B028A001102781018F25640101
:103F10002B244B01E0223401AC211F018D200D0127
:103F2000801FFC00841EED00971DDF00B81CD2002E
:103F3000E61BC600201BBC00641AB200B219A80020
:103F40000A19A0006A189900D117910040178B0038
:103F5000B516840031167E00B31579003A1573004A
:103F6000C7146F0058146A00EE13660088136300CC
:103F700025135E00C7125B006C1257001512540027
:103F8000C111510070114F0021114B00D610490092
:103F90008D1047004610440002104200C00F400040
:103FA000800F3E00420F3C00060F3B00CB0E380056
:103FB000930E37005C0E3500270E3400F30D3200EF
:103FC000C10D3100900D3000600D2E00320D2D001E
:103FD000050D2C00D90C2B00AE0C2900850C2900F6
:103FE0005C0C2700350C27000E0C2600E80B240083
:103FF000C40B2400A00B23007D0B23005A0B2100CF
:10400000390B2100180B2000F80A1F00D90A1E00E6
:10401000BB0A1E009D0A1D00800A1D00630A1C00C9
:10402000470A1B002C0A1B00110A1A00F7091A0084
:10403000DD091900C4091900AB091900920917001C
:104040007B091800630917004C0916003609160091
:10405000200916000A091500F5081500E0081400EB
:10406000CC081400B8081400A40814009008130029
:104070007D0812006B081300580812004608120051
:104080003408110023081100120811000108110062
:10409000F0071000E0071000D0071000C007100064
:1040A000B0070F00A107100091070E0083070F0053
:1040B00074070F0065070E0057070E0049070E0032
:1040C0003B070D002E070E0020070D0013070D0003
:1040D00006070D00F9060C00ED060D00E0060C00C9
:1040E000D4060C00C8060C00BC060C00B0060C0080
:1040F000A4060B0099060C008D060B0082060B002F
:1041000077060B006C060B0061060A0057060B00D1
:104110004C060A0042060A0038060A002E060A006B
:1041200024060A001A060A001006090007060A00FB
:10413000FD050900F4050900EB050900E205090089
:10414000D9050900D0050900C7050900BE05090009
:10415000B5050800AD050800A50509009C05080087
:10416000940508008C050800840508007C050800FB
:10417000740508006C050700650508005D0507006B
:10418000560508004E0507004705070040050800D2
:1041900038050700310507002A0507002305070039
:1041A0001C050600160507000F0507000805060098
:1041B00002050700FB040600F5040700EE040600F4
:1041C000E8040600E2040700DB040600D50406004C
:1041D000CF040600C9040600C3040600BD0406009F
:1041E000B7040600B1040500AC040600A6040600EE
:1041F000A00405009B040600950405009004060039
:104200008A04050085040500800406007A04050080
:1042100075040500700405006B04050066040500C4
:10422000610405005C040500570405005204050004
:104230004D04050048040500430405003E04040045
:104240003A04050035040500300404002C04050080
:1042500027040400230405001E0404001A040400BB
:1042600016040500110404000D04040009040500EF
:104270000404040000040400FC030400F803040028
:10428000F4030400F0030400EC030400E80304005A
:10429000E4030400E0030400DC030400D80304008A
:1042A000D4030400D0030400CC030400C8030300BB
:1042B000C503030024F404D9201BC40C5C0E98042D
:1042C000C4095F0265077101F405F900FB04B3003E
:1042D00048048700C10369005803550003034500E3
:1042E000BE023A008402310053022A00290225004E
:1042F00004022000E4011C00C8011900AF011700EE
:104300009801140084011300710110006101100074
:1043100051010E0043010D0036010B002B010B0073
:1043200020010B00150109000C0109000301080020
:10433000FB000800F3000800EB000700E4000600A3
:10434000DE000600D8000600D2000600CC00050002
:10435000C7000500C2000500BD000400B90004004C
:10436000B5000400B1000400AD000400A900040081
:10437000A5000300A20003009F0004009B000300AF
:1043800098000300950002009300030090000300D2
:104390008D0002008B0003008800020086000200EE
:1043A00084000300810002007F0002007D00020003
:1043B0007B00020079000200770001007600020015
:1043C0007400020072000100710002006F00020020
:1043D0006D0001006C0002006A000100690002002B
:1043E0006700010066000100650001006400020032
:1043F0006200010061000100600001005F00020036
:104400005D0001005C0001005B0001005A0001003A
:10441000590001005800010057000100560001003A
:10442000550001005400010053000000530001003A
:104430005200010051000100500001004F00010036
:104440004E0000004E0001004D0001004C00010034
:104450004B0000004B0001004A0001004900010030
:10446000480000004800010047000100460000002D
:104470004600010045000000450001004400010025
:104480004300000043000100420000004200010020
:104490004100000041000100400001003F00000019
:1044A0003F0001003E0000003E0001003D00000012
:1044B0003D0001003C0000003C0000003C00010009
:1044C0003B0000003B0001003A0000003A00010000
:1044D00039000000390001003800000038000000F9
:1044E00038000100370000003700010036000000EE
:1044F00036000000360001003500000035000000E5
:1045000035000100340000003400000034000100D8
:1045100033000000330000003300010032000000CF
:1045200032000000320001003100000031000000C4
:1045300031000100300000003000000030000100B8
:104540002F0000002F0000002F0000002F000100AE
:104550002E0000002E0000002E0001002D000000A3
:104560002D0000002D0000002D0001002C00000097
:104570002C0000002C0000002C0001002B0000008B
:104580002B0000002B0000002B0001002A0000007F
:104590002A0000002A0000002A0001002900000073
:1045A0002900000029000000290000002900010066
:1045B000280000002800000028000000280000005B
:1045C000280001002700000027000000270000004D
:1045D0002700000027000100260000002600000040
:1045E0002600000026000000260001002500000033
:1045F0002500000025000000250000002500000027
:104600002500010024000000240000002400000018
:10461000240000002400010023000000230000000B
:1046200023000000230000002300000023000000FE
:1046300023000100220000002200000022000000F0
:1046400022000000220000002200010021000000E2
:1046500021000000210000002100000021000000D6
:1046600021000000210001002000000020000000C7
:1046700020000000200000002000000020000000BA
:1046800020000000200001001F0000001F000000AB
:104690001F0000001F0000001F0000001F0000009E
:1046A0001F0001001E0000001E0000001E00000090
:1046B0001E000000504944204175746F74756E658A
:1046C0002066696E69736865642120507574207472
:1046D0006865206C617374204B702C204B692061DD
:1046E0006E64204B6420636F6E7374616E7473200C
:1046F00066726F6D2061626F766520696E746F20DF
:10470000436F6E66696775726174696F6E2E6800BB
:10471000504944204175746F74756E6520666169F7
:104720006C6564212074696D656F75740020403A72
:1047300000543A00423A00504944204175746F7465
:10474000756E65206661696C6564212054656D70C5
:104750006572617475726520746F6F20686967682F
:1047600000204B643A2000204B693A2000204B7017
:104770003A200020436C61737369632050494420E0
:10478000002054753A2000204B753A2000206D61BE
:10479000783A2000206D696E3A200020643A2000AB
:1047A00020626961733A2000504944204175746F5A
:1047B00074756E65207374617274005049442041B1
:1047C00075746F74756E65206661696C65642E2002
:1047D000426164206578747275646572206E756DCF
:1047E0006265722E00544D4C2025642025642025DE
:1047F0007820256C7820256C780A004D494E544568
:104800004D50004D494E54454D5020424544004DB9
:10481000494E54454D5020414D42004D415854455C
:104820004D50004D415854454D5020424544004D97
:10483000415854454D5020414D4200544D3A206559
:1048400072726F7220636C656172656400544D3AD8
:10485000206572726F722074726967676572656431
:104860002100544845524D414C20414E4F4D414C42
:104870005900526573756D696E67207072696E7448
:104880000050494E44412048656174696E67004399
:10489000616C6962726174696F6E20646F6E65002D
:1048A00043616C6962726174696E67205A00426587
:1048B0006420646F6E6500426564204865617469B8
:1048C0006E670048656174696E6720646F6E652E5F
:1048D0000048656174696E67004D4D5520706F77B3
:1048E0006572206661696C73004D4D55206C6F6177
:1048F00064206661696C73004D4D55206661696C7A
:1049000073004D6174657269616C206368616E67E4
:10491000657300546F74616C206661696C757265B3
:10492000730043726173680046696C2E2072756E65
:104930006F75747300506F776572206661696C756E
:10494000726573004C617374207072696E742066B6
:1049500061696C7572657300546F74616C004C61B1
:104960007374207072696E7400416D6269656E7453
:1049700000566F6C74616765730054656D70657285
:104980006174757265730042656C74207374617430
:1049900075730053656E736F7220696E666F0045A4
:1049A0007874727564657220696E666F0058595A22
:1049B0002063616C2E2064657461696C73005072B1
:1049C000696E74657220495020416464723A0075C2
:1049D0006E6B6E6F776E004D4D5520636F6E6E651A
:1049E0006374656400446174653A00746F20756E89
:1049F0006C6F61642066696C616D656E7400746FC4
:104A0000206C6F61642066696C616D656E74005026
:104A10007265737320746865206B6E6F62005072EC
:104A20006568656174696E6720746F2063757400D2
:104A300050726568656174696E6720746F20656A7D
:104A40006563740050726568656174696E6720748F
:104A50006F20756E6C6F616400507265686561747B
:104A6000696E6720746F206C6F616400436F6F6CB8
:104A7000646F776E00456A6563740046696C616DAA
:104A8000656E7420657874727564696E672026207F
:104A90007769746820636F727265637420636F6CEA
:104AA0006F723F004175746F6C6F6164696E67204F
:104AB00066696C616D656E742069732061637469E9
:104AC00076652C206A757374207072657373207418
:104AD0006865206B6E6F6220616E6420696E73651D
:104AE00072742066696C616D656E742E2E2E005096
:104AF00072696E742074696D650046696C616D65DC
:104B00006E74207573656400546F74616C207072EC
:104B1000696E742074696D6500546F74616C2066F1
:104B2000696C616D656E74005072656865617420B2
:104B3000746865206E6F7A7A6C6521004552524F19
:104B4000523A005269676874004C656674005920D7
:104B500064697374616E63652066726F6D206D6940
:104B60006E0053657665726520736B657700536CD4
:104B70006967687420736B6577004D656173757242
:104B8000656420736B6577005B303B305D20706F30
:104B9000696E74206F66667365740041646A75732C
:104BA00074696E67205A005265617220736964658A
:104BB000205BE46D5D0046726F6E742073696465FE
:104BC0005BE46D5D00526967687420736964655BBE
:104BD000E46D5D004C6566742073696465205BE478
:104BE0006D5D005365742074656D706572617475D8
:104BF00072653A0050494E44412063616C696272AB
:104C00006174696F6E206661696C65640050494E1D
:104C100044412063616C6962726174696F6E2069DE
:104C2000732066696E697368656420616E642061D3
:104C300063746976652E2049742063616E20626515
:104C40002064697361626C656420696E206D656EB5
:104C5000752053657474696E67732D3E50494E44D8
:104C6000412063616C2E0045787472756465720032
:104C70004D6F7665205A004D6F76652059004D6F57
:104C800076652058004372617368206465746563BB
:104C900074696F6E2063616E0A6265207475726E4E
:104CA0006564206F6E206F6E6C7920696E0A4E6F9E
:104CB000726D616C206D6F6465005741524E494EB4
:104CC000473A0A4372617368206465746563746966
:104CD0006F6E0A64697361626C656420696E0A5361
:104CE0007465616C7468206D6F6465004D6F6465F8
:104CF000206368616E676520696E2070726F6772ED
:104D00006573732E2E2E00536865657420252E372B
:104D1000730A5A206F66667365743A20252B312E0C
:104D200033666D6D0A2563436F6E74696E75650A2F
:104D30002563526573657400506C65617365206C02
:104D40006F61642066696C616D656E74206669725E
:104D500073742E003E43616E63656C0052756E6E17
:104D6000696E672057697A6172642077696C6C207C
:104D700064656C6574652063757272656E7420631A
:104D8000616C6962726174696F6E20726573756CB3
:104D9000747320616E642073746172742066726F24
:104DA0006D2074686520626567696E6E696E672E36
:104DB00020436F6E74696E75653F0050726568655B
:104DC0006174696E67206E6F7A7A6C652E20506C04
:104DD0006561736520776169742E00506C6561733D
:104DE0006520696E736572742066696C616D656EAD
:104DF0007420696E746F20746865206578747275AC
:104E00006465722C207468656E20707265737320FF
:104E1000746865206B6E6F6220746F206C6F6164C4
:104E20002069742E00506C6561736520696E73652E
:104E300072742066696C616D656E7420696E746F42
:104E400020746865206669727374207475626520C9
:104E50006F6620746865204D4D552C207468656E12
:104E600020707265737320746865206B6E6F6220AA
:104E7000746F206C6F61642069742E005A20636126
:104E80006C6962726174696F6E207265636F6D6DBB
:104E9000656E6465642E2052756E206974206E6F95
:104EA000773F00546865207072696E746572207770
:104EB000696C6C207374617274207072696E7469AD
:104EC0006E672061207A69672D7A6167206C696E50
:104ED000652E20526F7461746520746865206B6E56
:104EE0006F6220756E74696C20796F7520726561D0
:104EF000636820746865206F7074696D616C2068E8
:104F000065696768742E20436865636B2074686503
:104F100020706963747572657320696E20746865AA
:104F20002068616E64626F6F6B202843616C6962F8
:104F3000726174696F6E2063686170746572292E86
:104F40000053656C6563742074656D70657261747F
:104F5000757265207768696368206D617463686540
:104F60007320796F7572206D6174657269616C2E42
:104F70000053656C65637420612066696C616D65C2
:104F80006E7420666F72207468652046697273744F
:104F9000204C617965722043616C69627261746949
:104FA0006F6E20616E642073656C65637420697434
:104FB00020696E20746865206F6E2D73637265655D
:104FC0006E206D656E752E004E6F772049207769D3
:104FD0006C6C2063616C69627261746520646973D2
:104FE00074616E6365206265747765656E207469AF
:104FF00070206F6620746865206E6F7A7A6C652009
:10500000616E6420686561746265642073757266A0
:105010006163652E00506C6561736520636865632C
:105020006B206F75722068616E64626F6F6B2061B8
:105030006E6420666978207468652070726F626C97
:10504000656D2E205468656E20726573756D6520E0
:105050007468652057697A6172642062792072658C
:10506000626F6F74696E6720746865207072696E14
:105070007465722E00416C6C20697320646F6E65DC
:105080002E204861707079207072696E74696E6745
:105090002100596F752063616E20616C77617973AF
:1050A00020726573756D65207468652057697A6133
:1050B00072642066726F6D2043616C696272617404
:1050C000696F6E202D3E2057697A6172642E004907
:1050D0006620796F75206861766520616464697403
:1050E000696F6E616C20737465656C2073686565AB
:1050F00074732C2063616C696272617465207468DA
:10510000656972207072657365747320696E2053CF
:10511000657474696E6773202D2048572053657439
:105120007570202D20537465656C207368656574F7
:10513000732E00506C6561736520636C65616E2031
:105140006865617462656420616E64207468656E70
:1051500020707265737320746865206B6E6F622EA9
:1051600000446F20796F752077616E7420746F2012
:10517000726570656174206C6173742073746570FE
:1051800020746F20726561646A757374206469733A
:1051900074616E6365206265747765656E206E6FFD
:1051A0007A7A6C6520616E642068656174626564FA
:1051B0003F0053656C656374206E6F7A7A6C65206E
:1051C000707265686561742074656D706572617474
:1051D000757265207768696368206D6174636865BE
:1051E0007320796F7572206D6174657269616C2EC0
:1051F0000049732066696C616D656E74206C6F6127
:105200006465643F00546865726D616C206D6F6405
:10521000656C2063616C2E2074616B657320617016
:1052200070726F782E203132206D696E732E20538C
:1052300065650A70727573612E696F2F746D2D63C9
:10524000616C004E6F7720492077696C6C2070721A
:105250006568656174206E6F7A7A6C6520666F721E
:1052600020504C412E00492077696C6C2072756E7D
:10527000207A2063616C6962726174696F6E206E5E
:105280006F772E004E6F772072656D6F7665207494
:1052900068652074657374207072696E742066721C
:1052A0006F6D20737465656C2073686565742E007E
:1052B000506C656173652072656D6F7665207368EB
:1052C000697070696E672068656C706572732066BE
:1052D000697273742E00492077696C6C2072756E48
:1052E0002078797A2063616C6962726174696F6E8B
:1052F000206E6F772E2049742077696C6C20746162
:105300006B6520757020746F203234206D696E7368
:105310002E0046697273742C20492077696C6C20CA
:1053200072756E207468652073656C66746573743D
:1053300020746F20636865636B206D6F73742063E6
:105340006F6D6D6F6E20617373656D626C79207027
:10535000726F626C656D732E0048692C2049206164
:105360006D20796F7572204F726967696E616C206C
:105370005072757361206933207072696E74657242
:105380002E20576F756C6420796F75206C696B6582
:10539000206D6520746F20677569646520796F756D
:1053A000207468726F75676820746865207365740F
:1053B00075702070726F636573733F0048692C20AD
:1053C0004920616D20796F7572204F726967696E2F
:1053D000616C205072757361206933207072696E40
:1053E0007465722E20492077696C6C20677569643A
:1053F0006520796F75207468726F75676820612009
:1054000073686F72742073657475702070726F6347
:105410006573732C20696E207768696368207468EF
:1054200065205A2D617869732077696C6C206265FC
:105430002063616C696272617465642E20546865D2
:105440006E2C20796F752077696C6C2062652072F4
:105450006561647920746F207072696E742E0045E6
:105460002D636F7272656374005A2D636F7272657B
:10547000637400592D636F727265637400582D63F5
:105480006F727265637400506175736500436F6E6F
:10549000742E00465320416374696F6E00462E20BF
:1054A0006175746F6C6F616400462E2072756E6F4B
:1054B0007574004D4D55204D6F64650043757474CF
:1054C00065720046616E20737065656400426564B4
:1054D0000046616E7320636865636B004D6F6465A1
:1054E0006C004E6F7A7A6C6500544D3A206572728A
:1054F0006F72207C25667C3E25660A0070012C01B7
:1055000090012701B0012201C0011D01F001180125
:105510001002130130020E01600209019002040121
:10552000C002FF000003FA004003F5008003F00012
:10553000D003EB002004E6007004E100E004DC008E
:105540004005D700C005D2004006CD00D006C800F7
:105550008007C3003008BE00F008B900C009B400DD
:10556000B00AAF00B00BAA00D00CA500000EA0003E
:10557000500F9B00C01096005012910000148C0038
:10558000C0158700B0178200B0197D00D01B7800CD
:10559000001E730040206E0090226900F024640019
:1055A00040275F0090295A00E02B5500102E500034
:1055B00020304B0010324600E033410090353C0073
:1055C0001037370070383200A0392D00B03A28006B
:1055D000A03B2300603C1E00103D1900903D1400CC
:1055E000103E0F00703E0A00C03E0500003F000064
:1055F00090137D00B0157800F0177300601A6E00EC
:10560000F01C6900A01F640050225F0020255A0092
:10561000E0275500902A5000202D4B00A02F460077
:10562000F031410010343C00F0353700A037320033
:1056300020392D00603A2800703B2300603C1E009A
:10564000203D1900C03D1400403E0F00A03E0A005E
:10565000F03E0500403F0000703FFBFF903FF6FF2B
:10566000B03FF1FFC03FECFFD03FE7FFE03FE2FF7C
:10567000F03FDDFFF03FD8FF20484F54454E442017
:10568000544845524D414C2052554E4157415900C6
:10569000204845415442454420544845524D414CD0
:1056A0002052554E4157415900544845524D414CA6
:1056B0002052554E415741590042454420544845D7
:1056C000524D414C2052554E4157415900205448AB
:1056D00045524D414C2052554E415741592028507A
:1056E00052454845415420484F54454E44290020D6
:1056F000544845524D414C2052554E415741592036
:10570000285052454845415420484541544245445B
:10571000290050524548454154204552524F5200AD
:105720004245442050524548454154204552524F2D
:10573000520020747269676765726564210048656C
:105740006174657273207377697463686564206F30
:1057500066662E20003A20004572723A200000FF53
:105760000102010002FFFFFE0001FE01FF00506C7C
:1057700065617365207265737461727400544D3A8B
:1057800020696E76616C696420706172616D657408
:105790006572732C2063616E6E6F7420656E61623A
:1057A0006C6500255320204D3331302050252E329A
:1057B000662055252E34662056252E326620432538
:1057C0002E32662044252E3466204C257520532524
:1057D00075204225752045252E32662057252E320C
:1057E000662054252E32660A00255320204D333181
:1057F00030204925752052252E32660A00546865EE
:10580000726D616C204D6F64656C20736574746992
:105810006E67733A00CDCCF4410000E8410000DC33
:10582000410000C4413333BB416666B2419A99A935
:10583000419A99A14166669E4133339B410000988D
:1058400041CDCC944166669241CDCC904133338FAB
:10585000419A998D41452D6D6F746F7220637572F9
:1058600072656E74207363616C696E6720656E612A
:10587000626C656400010808010A0A01141401122F
:1058800012746D63323133305F686F6D655F656EC2
:1058900074657228617865735F6D61736B3D3078F4
:1058A00025303278290A00746D63323133305F68F5
:1058B0006F6D655F6578697420746D633231333064
:1058C0005F73675F686F6D696E675F617865735F4F
:1058D0006D61736B3D3078253032780A00544D434A
:1058E00020445249564552204F56455254454D503A
:1058F00000486F6C642063757272656E74207472F8
:10590000756E636174656420746F2052756E2063D8
:10591000757272656E740025632533642F2564816A
:10592000005A25362E32662563005A2020202D2D60
:105930002D2000862533642525002D2D2D252500BD
:1059400025336425250020534400202020002048D2
:105950004F002046524D200087253375682025636F
:1059600025630087253032753A2530327525632549
:1059700063002F2F616374696F6E3A706175736590
:1059800064002F2F616374696F6E3A70617573657F
:105990000044756D70206D656D6F72790068656C7F
:1059A000702E707275736133642E636F6D00666F55
:1059B00072756D2E707275736133642E636F6D0036
:1059C000707275736133642E636F6D004D373031C3
:1059D0000025533A0A2531382E32666D200A2553A8
:1059E0003A0A2531306C646820253032646D2025F8
:1059F000303264730025533A0A2531382E32666DF1
:105A0000200A25533A0A2531306C6464202530324F
:105A1000646820253032646D0025362E32666D6D47
:105A20000025530A25530A25533A0A25533A0025DF
:105A3000332E32668100252D31342E3134533A0A0B
:105A400025530A252D31342E3134533A25332E3245
:105A500066810A252D31342E3134533A25332E32C6
:105A6000668100202030002020310046494E44410C
:105A70000050494E44410057697A61726420656E56
:105A8000642073746174653A2025640A0053706F52
:105A90006F6C4A6F696E004669726D77617265005E
:105AA000726573756C742076616C75653A20256437
:105AB0000A0020693D25326420636E743D253264FE
:105AC0002076616C3D2532640A00636C75737465E1
:105AD00072733A0020693D25326420737465703D0D
