:100000000C94BC3B0C94ED3B0C94ED3B0C94ED3B01
:100010000C94ED3B0D94CB980C94ED3B0C94445810
:100020000C9461580C94ED3B0C94ED3B0C94ED3B1F
:100030000C949C4C0C94ED3B0D941C270D94A42027
:100040000C94ED3B0D9425380C94ED3B0C94ED3B5A
:100050000C94ED3B0C94ED3B0C94ED3B0C944B5706
:100060000C94ED3B0D9403B50C94ED3B0C94ED3BDF
:100070000C94ED3B0C9497760C94ED3B0C94ED3B7B
:100080000C94ED3B0C94ED3B0C94ED3B0C94ED3B50
:100090000D94BFB40C94ED3B0C94ED3B0C94ED3BF4
:1000A0000C94ED3B0C94ED3B0D9462160C94ED3BDF
:1000B0000C94ED3B0D9444160C94ED3B0D94662C82
:1000C0000C94ED3B0C94ED3B0C94ED3B0D9404161D
:1000D0000C94ED3B0C94ED3B0C94ED3B0C94ED3B00
:1000E0000C94ED3B084AD73B3BCE016E84BCBFFD70
:1000F000C12F3D6C74319ABD56833DDA3D00C77FF8
:1001000011BED9E4BB4C3E916BAAAABE0000008090
:100110003F05A84CCDB2D44EB93836A9020C50B91F
:10012000918688083CA6AAAA2ABE000000803F0744
:10013000634236B79BD8A71A39685618AEBAAB5582
:100140008C1D3CB7CC5763BD6DEDFD753EF6177247
:1001500031BF000000803F08000000BE9224491219
:100160003EABAAAA2ABECDCCCC4C3E00000080BE3D
:10017000ABAAAAAA3E00000000BF000000803F001A
:1001800000000000084178D3BB4387D1133D190E0E
:100190003CC3BD4282AD2B3E68EC8276BED98FE176
:1001A000A93E4C80EFFFBE01C4FF7F3F000000006E
:1001B00000000C9418B30D9486090C948F570D947D
:1001C00061440C94BC570D947C1F0C94A7FB0C94B9
:1001D000A5BB0C94A5B00C948EB00D94760E0C9427
:1001E000CEED0D949A050C94B3B00C949DEA0C944A
:1001F00093EE0C94ABBB0D94451A0D94C5130D945E
:1002000009140D94BB130C9477B30C949AEA0C94D4
:1002100080B00D948E090D94C6430C94BDF70C94D8
:1002200086B50D946E7C0C9497EA0C9435C40D94AD
:10023000640B0C9468C40C948AB00C947AC40C942B
:10024000CFF70C9421B60C948BF10D94C3430C940E
:1002500058B30C94A7C40D94AB0B0D94CD130D940F
:100260006C100C9479B10D949F090D94AB1D0C94F6
:1002700072B50C949FB00C94F8B70D947E040D9455
:10028000D21F0D9464440D948F040D9430140C947B
:1002900065BC0D9464760C948EEA0D942D080D9433
:1002A00029100D9421330C9452CB0C9442C40D941C
:1002B000427C0D9435050C949BB00D94737C0C948A
:1002C000B3570C94BBB00C944FBA0C946A570C946F
:1002D000F2F10D949C050D9405200D94A00D0D9444
:1002E00047760D9458130D94D0430C944A5B0D94AB
:1002F000E9330D94B3080D94CF0A0C943DBC0C94D3
:100300006DB50D9495130D94D5070D945A050C9465
:1003100048410D94BD040D94011B0C94BBC40C9476
:10032000F9B40C9486B00C9470C40C945DB00C9429
:10033000C0B00C942BBC0C949DB50C948BB50D9453
:10034000BF440D946E140D94BE490C947CB50C946E
:10035000DAB70D945E7C0C9432CB0D94EC750C9452
:10036000BDBB0C94ADB00C9484C40C9460C40C94CC
:1003700019F80C9477B50C94B4BB0C9481B50C941B
:1003800072FF0D9471050C9459BA0C9484570D9416
:10039000AF440D9467760D94290D0C945BB70C94C3
:1003A0003DC40C947BF20C94C1B00D945D040D948B
:1003B00066050C9473B10D9453040C94C9B00C945D
:1003C0009E490C9484BA0C94CBFE0D9449040C9471
:1003D000A0EA0C94F6F20D9439050C94B5EA0C944D
:1003E000625A0C94E8BA0C942BFE0D9458140D9498
:1003F0003FAE0C94BAF30D94EE0D0D943DAC0C94FD
:1004000094B50C94B7B00C9490B50C948AFF0D94ED
:1004100072490C945EB10C949DFE0D946B080D9482
:1004200029040D9473100C949D570C94F6F10C94C0
:10043000F1570D946F440C9434570D94C7440D94A8
:100440005E100C949DC40D94A5060D944E050C945D
:1004500033B40D947E140C9456C40D94101D0C945A
:10046000B4F40D9467440C9436EA0D94CD430C9487
:10047000FAF20C9454BC0D942D200D943B0D0D9468
:1004800086430C94FEF20C94BEEA0D947D060D9406
:1004900093050D9465100D9400440C9495B00D9443
:1004A00008090C94C5B00D9415070C943FEA0C9400
:1004B000A7B90C9431BC0D9433040D944F090C94DE
:1004C00051EA0D9415150D94A64F0C94CDB00C94D3
:1004D000AFB30D947F440C94FAF80D948F1F0D94D4
:1004E000320D0C9474BB0C94B9B40D94FC7B0D9438
:1004F00087440C9421F00D94CE150C948EC40D9469
:100500006A760C94A8BB0C94B2EA0D942D440D9419
:1005100014200D94C3070C94B1BB0D9449060C94A0
:100520001BF00D9457100D9477440C9437BC0D9428
:10053000FF130D941F040D942A440C94B1C40C9421
:1005400002F30C944CC40D94B7440D9415040D940F
:10055000657C0C9418F30D949F440C94AEBB0C94E2
:1005600049BC0C9464B30C9463BC0D949E430D94ED
:10057000617C0D946E230C94A9EA0D9430440C9484
:1005800092B00D943A140C94A9B00D9467040D9494
:1005900006080C94F0F20D94E51B0D9436140C949F
:1005A00098B30D94D9030C94CFC40D94A7440D9423
:1005B0008F440C94C5C40D9421140D94A2140C9472
:1005C000DF570C9496FB0D9405760C9489B30D942B
:1005D00097440D943D040C94F8BA0D945E440D9428
:1005E000E3370C9429C90D945E0B0C94A4B30D94BD
:1005F000690B0D9446106E616E00696E66000040D6
:100600007A10F35A00A0724E18090010A5D4E80021
:1006100000E87648170000E40B54020000CA9A3B39
:10062000000000E1F50500008096980000004042BF
:100630000F000000A086010000001027000000004D
:10064000E803000000006400000000000A00000051
:1006500000000100000000002C76D888DC674F08FD
:1006600023DFC1DFAE59E1B1B796E5E3E453C63A03
:10067000E651997696E8E6C28426EB898C9B62ED7A
:10068000407C6FFCEFBC9C9F40F2BAA56FA5F49034
:10069000055A2AF75C936B6CF9676DC11BFCE0E4AB
:1006A0000D47FEF520E6B500D0ED902E0300943501
:1006B00077050080841E080000204E0A000000C854
:1006C0000C333333330F986E12831141EF8D2114A5
:1006D000893BE65516CFFEE6DB18D1844B381BF775
:1006E0007C1D901DA4BBE424203284725E22810014
:1006F000C9F124ECA1E53D272200656E717565699D
:100700006E67202200446F6E65207072696E746996
:100710006E672066696C65004E6F204C696E6520BF
:100720004E756D62657220776974682063686563D1
:100730006B73756D2C204C617374204C696E653A37
:1007400020004E6F20436865636B73756D20776979
:100750007468206C696E65206E756D6265722C2000
:100760004C617374204C696E653A20006368656360
:100770006B73756D206D69736D617463682C204CAB
:10078000617374204C696E653A20004C696E652077
:100790004E756D626572206973206E6F74204C61B6
:1007A0007374204C696E65204E756D6265722B31D5
:1007B0002C204C617374204C696E653A2000256CC6
:1007C00075206279746573207772697474656E2020
:1007D000746F2025532061742061646472657373A3
:1007E0002030782530346C780A00442564202D2090
:1007F000526561642F57726974652025530A002081
:10080000436F756E7420583A200045303A256420B5
:1008100052504D2050524E313A25642052504D20B6
:100820004530403A25752050524E31403A25750AE0
:1008300000526573656E640025533A20256C640A86
:1008400025530A002F2F616374696F6E3A6E6F74BF
:10085000696669636174696F6E2025530A00466991
:100860006C616D656E742072756E6F757420646551
:1008700074656374656421005072696E74657220DA
:1008800073746F707065642064756520746F206583
:1008900072726F72732E2053757065727669736908
:1008A0006F6E2072657175697265642E0064756D76
:1008B0007020636C65617265640A006E6F206475F8
:1008C0006D7020617661696C61626C650A0044320A
:1008D00031202D2072656164206372617368206429
:1008E000756D700A006E6F2064756D7020617661A1
:1008F000696C61626C650A0064756D7020636F6D70
:10090000706C6574656420696E20256C756D730A62
:100910000058464C41534800454550524F4D0053F6
:1009200052414D00442D31202D20456E646C65737D
:1009300073206C6F6F700A0041637469766520459F
:10094000787472756465723A203000496E76616C15
:10095000696420657874727564657200746D6332C1
:100960003133305F7072696E745F63757272656E79
:10097000747328290A094809520A58092564092567
:10098000640A590925640925640A5A092564092558
:10099000640A450925640925640A005344207072DD
:1009A000696E74696E672062797465200025750030
:1009B000556E6B6E6F776E20636F6D6D616E643A0E
:1009C0002022004D32303020496E76616C696420FF
:1009D000657874727564657220007A5F6D61783A2B
:1009E00020007A5F6D696E3A2000795F6D61783A18
:1009F0002000795F6D696E3A2000785F6D61783A0A
:100A00002000545249474745524544006F70656E77
:100A100000785F6D696E3A20005265706F7274697C
:100A20006E6720656E6473746F7020737461747583
:100A300073004D3131322063616C6C65642E20454A
:100A40006D657267656E63792053746F702E002F29
:100A50002F616374696F6E3A75766C6F5F72656350
:100A60006F766572795F7265616479002F2F6163BB
:100A700074696F6E3A75766C6F5F6175746F5F72D3
:100A800065636F766572795F726561647900534959
:100A90004C454E54004E4F524D414C002553204D75
:100AA0004F44453A2050657263656E7420646F6EE2
:100AB000653A20256868643B207072696E74207402
:100AC000696D652072656D61696E696E6720696E1A
:100AD000206D696E733A2025643B204368616E6720
:100AE0006520696E206D696E733A2025640A005096
:100AF00072696E74657253746174653A2025640A74
:100B000000456E642066696C65206C6973740042F0
:100B10006567696E2066696C65206C697374005541
:100B20006E6B6E6F776E20256320636F64653A206D
:100B300025730A000A50494E44412074656D706562
:100B40007261747572653A20252E3166205A2073C1
:100B50006869667420286D6D293A20252E33660059
:100B60000A537465703A2025642F360A000A5374BC
:100B700065703A2025642F362028736B6970706584
:100B800064290A50494E44412074656D7065726154
:100B9000747572653A202564205A207368696674FA
:100BA00020286D6D293A300A000A5A45524F3A20E2
:100BB000252E33660A0073746172742074656D703B
:100BC000657261747572653A20252E31660A0025BA
:100BD000642020252E326600255320583A20252EE9
:100BE000356620593A20252E3566205A3A20252E82
:100BF00035660A00536C6565702E2E2E0045303A1E
:100C000025642052504D0A50524E303A25642052ED
:100C1000504D0A00002045535000204E53500020F4
:100C20004F464600204F4E005056303100205B4D5D
:100C3000505D2000256920686F757273202569203A
:100C40006D696E757465730052582074696D656FB7
:100C50007574004D333130004D313132004D31313A
:100C6000300046756C6C205258204275666665727D
:100C70000053657474696E67732053746F72656492
:100C800000544D3A2073746F7265642063616C691F
:100C900062726174696F6E20696E76616C69642C32
:100CA00020726573657474696E670053746F726542
:100CB000642073657474696E6773207265747269F9
:100CC000657665640048617264636F64656420449E
:100CD000656661756C742053657474696E67732002
:100CE0004C6F6164656400563200000000C8420029
:100CF00000C8420000C84300008C43000048430085
:100D0000004843000040410000F042E8030000E8D2
:100D1000030000C80000008813000000409C44004D
:100D2000409C440000000000000000204E00000035
:100D300000204100002041CDCCCC3E00009040007E
:100D40000000000000000000000000CDCCCC3E0000
:100D500000C8419C53493F80F946438F42FC42E61C
:100D60005A343F4C62B04500000000004040000093
:100D700034420000000000000000000000410000BC
:100D800000E03F0000C8420000C8420000404100AF
:100D900000F042C0030000C0030000C8000000884B
:100DA0001300001010102000409C440000803F0001
:100DB00000003F1914000000437573746F6D004EFE
:100DC000796C6F6E504100536174696E202000543D
:100DD000657874757200536D6F6F746800486F7436
:100DE000656E642066616E2073706565642069734A
:100DF000206C6F776572207468616E20657870650D
:100E000063746564005072696E742066616E20734D
:100E100070656564206973206C6F776572207468F3
:100E2000616E20657870656374656400312E3000F2
:100E3000312E3500554E4B4E4F574E004C41313000
:100E4000433A204C696E65617220416476616E633D
:100E500065206D6F64653A20004C413130433A2083
:100E600041646A757374656420452D4A65726B3AF6
:100E700020003E0FA8AF00480069960000DF602503
:100E8000555887680427F2E0005E3403CC1960F3FC
:100E90003C0EF88F00DB08029492003E1C079A87F4
:100EA00000E524008528527E06001BE4007E7812AF
:100EB00070787061F812788F88417842707870612C
:100EC000782570787061F850788F88D1F0252707E1
:100ED0008761F025278F88412C0D27AA50D1BC07A8
:100EE00007871161BE788F881141785270787061E0
:100EF000F852788F88412012788870632052788861
:100F000070634852788887430311179970641812E8
:100F100078F870654412F8F8F045184278F8706572
:100F2000182578F87065185278F87065185078F8B8
:100F300070650C078F872365A20F8F8F11450012F4
:100F400006227069001207222749002506227069CF
:100F500000250722274900120622276C026236A2CA
:100F6000706C40456C44704C03622222706C438864
:100F70008888F04C7812BC88806E7852BC88806E6D
:100F800038127888706F78127888874F384278885E
:100F9000706F38257888706F3A0079AC786F3D07AC
:100FA0009AAC786F7850788887EF39497888706F75
:100FB0000852BC8880729852F88F9852201278702C
:100FC000F07348127863875320527870F073485258
:100FD000786387531007870F24731278638724532D
:100FE00060699A988BE22304E4443074104E4443C1
:100FF00024747C12888960753C50888870557825E7
:10100000288960757949088960753C128870707903
:101010000C12885222594412F124F07A4452F124DD
:10102000F07A8C52F0368F5A4420F124F07A004046
:101030001454CDCCCC3D0AD7233C17B7D13877CC4C
:101040002B329595E6241FB14F0A00002041000085
:10105000C84200401C4620BCBE4CCA1B0E5AAEC53E
:101060009D744E414E494E464372617368206465DB
:101070007465637465642E00536F6D652070726FC4
:10108000626C656D20656E636F756E746572656404
:101090002C205A2D6C6576656C696E6720656E66CE
:1010A0006F72636564202E2E2E004D65736820627A
:1010B0006564206C6576656C696E67206661696C35
:1010C00065642E205072696E742063616E63656C76
:1010D00065642E0048656174696E67206469736198
:1010E000626C65642062792073616665747920742E
:1010F000696D65722E0053544F505045442E005078
:10110000415553454420544845524D414C20455289
:10111000524F5200472D636F646520736C6963659D
:101120006420666F72206120646966666572656E10
:1011300074206C6576656C2E20506C65617365203B
:1011400072652D736C69636520746865206D6F64CA
:10115000656C20616761696E2E205072696E742023
:1011600063616E63656C6C65642E00472D636F640C
:101170006520736C6963656420666F72206120640A
:101180006966666572656E74206C6576656C2E2086
:10119000436F6E74696E75653F00472D636F6465BC
:1011A00020736C6963656420666F722061206E65D0
:1011B000776572206669726D776172652E20506C5A
:1011C000656173652075706461746520746865205D
:1011D0006669726D776172652E205072696E742037
:1011E00063616E63656C6C65642E00472D636F648C
:1011F0006520736C6963656420666F722061206E80
:1012000065776572206669726D776172652E20431D
:101210006F6E74696E75653F00472D636F6465205E
:10122000736C6963656420666F722061206469660F
:10123000666572656E74207072696E746572207472
:101240007970652E20506C656173652072652D7311
:101250006C69636520746865206D6F64656C2061DE
:101260006761696E2E205072696E742063616E63CF
:10127000656C6C65642E00472D636F646520736C2C
:101280006963656420666F722061206469666665C3
:1012900072656E74207072696E74657220747970F4
:1012A000652E20436F6E74696E75653F00507265E0
:1012B000737320746865206B6E6F6220746F20708A
:1012C000726568656174206E6F7A7A6C6520616EF4
:1012D0006420636F6E74696E75652E00506C656175
:1012E000736520707265737320746865206B6E6F10
:1012F0006220746F20756E6C6F61642066696C612A
:101300006D656E7400616E64207072657373207415
:101310006865206B6E6F6200496E7365727420663B
:10132000696C616D656E7400436F6C6F72206E6FD7
:101330007420636F72726563740046696C616D65D9
:101340006E74206E6F74206C6F6164656400436816
:10135000616E67656420636F72726563746C790097
:101360004C6F6164696E6720636F6C6F72004368D5
:10137000616E676520737563636573732100506CDC
:1013800065617365206F70656E2069646C6572209D
:10139000616E642072656D6F76652066696C616D43
:1013A000656E74206D616E75616C6C792E0057618D
:1013B000732066696C616D656E7420756E6C6F610B
:1013C00064207375636365737366756C3F00506C5E
:1013D0006561736520757067726164652E004E6586
:1013E00077206669726D77617265207665727369C0
:1013F0006F6E20617661696C61626C653A0057615D
:101400006974696E6720666F722050494E444120AE
:1014100070726F626520636F6F6C696E6700506CED
:10142000656173652077616974004E6F206D6F761A
:10143000652E005761697420666F7220757365723E
:101440002E2E2E00537461626C6520616D62696599
:101450006E742074656D706572617475726520328A
:10146000312D323643206973206E656564656420D2
:1014700061207269676964207374616E64206973A6
:101480002072657175697265642E00506C656173B8
:10149000652072756E2058595A2063616C696272BA
:1014A0006174696F6E2066697273742E0062757361
:1014B000793A2070617573656420666F7220696E79
:1014C00070757400627573793A2070617573656424
:1014D00020666F72207573657200627573793A20A9
:1014E00070726F63657373696E670000007F4300FD
:1014F0008054430000524300000000000080C09A66
:1015000099193E00000000000080C09A99193E0021
:1015100000A0400000A0400000004025336420737C
:101520007465703D253264206D73636E743D25349F
:10153000640A0000007F43008058439AD95143FF5A
:10154000FFFF20413A0020503A002042403A00205C
:10155000403A00202F002054303A00202F00204233
:101560003A00202F00543A00255345786365737381
:1015700069766520626564206C6576656C696E6766
:1015800020636F7272656374696F6E3A20256920FB
:101590006D6963726F6E730A00426564206C6576D4
:1015A000656C696E67206661696C65642E20546F96
:1015B0006F206D75636820766172696174696F6E02
:1015C0002066726F6D20656570726F6D206D65733A
:1015D0006800426564206C6576656C696E6720669C
:1015E00061696C65642E2053656E736F722074722E
:1015F0006967676572656420746F6F20736F6F6EC3
:10160000002020004D6561737572656420706F69FC
:101610006E74733A005A207365617263682068655E
:10162000696768743A20352E3066004E756D205813
:101630002C593A20372C37004D6573682062656459
:10164000206C6576656C696E67206E6F74206163CF
:10165000746976652E0020453A00205A3A002059D8
:101660003A0020453A00205A3A0020593A00583AA8
:1016700000202D3E200053706F6F6C4A6F696E3AE8
:1016800020002C20006673656E736F722076302EFA
:101690003420696E206661756C742072616E6765B6
:1016A00020342E362D3556202D20756E636F6E6ECC
:1016B0006563746564006673656E736F7220696E2E
:1016C00020666F7262696464656E2072616E676520
:1016D00020312E352D3356202D20636865636B2015
:1016E00073656E736F7200496E61637469766974B5
:1016F000792053687574646F776E004B494C4C4584
:10170000442E005072696E7465722068616C746555
:10171000642E206B696C6C28292063616C6C656495
:1017200021005A206C6976652061646A75737420A3
:101730006F7574206F662072616E67652E20536529
:101740007474696E6720746F20302E20436C696357
:101750006B20746F20636F6E74696E75652E005A0E
:10176000206C6976652061646A757374206F757486
:10177000206F662072616E67652E205365747469F0
:101780006E6720746F20300020453A3020423A00C6
:10179000543A004731205A252D2E33662046252DF8
:1017A0002E336600496E76616C6964205420636F45
:1017B00064652E004475706C696361746520542DF6
:1017C000636F64652069676E6F7265642E004164A3
:1017D00076616E6365204B3D004B206F7574206F02
:1017E0006620616C6C6F7765642072616E6765213D
:1017F000004D4B3353004D4B33534D4D5533005E2D
:10180000762E012533642F253364002533640020B0
:101810000A200A200A200025534172632053657470
:1018200074696E67733A20503A4D6178206C656E2A
:10183000677468286D6D2920533A4D696E206C6578
:101840006E67746820286D6D29204E3A436F72725E
:10185000656374696F6E7320523A4D696E207365CB
:10186000676D656E747320463A5365676D656E7477
:10187000732F7365632E0A255320204D3231342097
:1018800050252E32662053252E3266204E256420A8
:10189000522564204625640A00255346696C616D13
:1018A000656E742073657474696E67733A20446959
:1018B0007361626C65640A00255346696C616D65ED
:1018C0006E742073657474696E67733A0A255320C9
:1018D00020204D3230302044252E32660A00255318
:1018E000526574726163743A20533D4C656E67743F
:1018F0006820286D6D2920463A537065656420285C
:101900006D6D2F6D29205A3A205A4C696674202833
:101910006D6D290A25532020204D32303720532564
:101920002E32662046252E3266205A252E32660A31
:1019300025535265636F7665723A20533D4578743E
:101940007261206C656E67746820286D6D29204671
:101950003A537065656420286D6D2F6D290A2553F3
:101960002020204D3230382053252E326620462547
:101970002E32660A25534175746F2D52657472615B
:1019800063743A20533D3020746F20646973616240
:101990006C652C203120746F20696E7465727072D2
:1019A000657420657874727564652D6F6E6C79202E
:1019B0006D6F7665732061732072657472616374F4
:1019C00073206F72207265636F7665726965730A42
:1019D00025532020204D323039205325640A00251C
:1019E000535049442068656174626564207365746E
:1019F00074696E67733A0A25532020204D333034C2
:101A00002050252E32662049252E32662044252E70
:101A100032660A0025535049442073657474696E18
:101A200067733A0A25532020204D3330312050254A
:101A30002E32662049252E32662044252E32660A33
:101A400000255353746570732070657220756E693C
:101A5000743A0A255320204D39322058252E3266FB
:101A60002059252E3266205A252E32662045252EF5
:101A700032660A25535553746570207265736F6C16
:101A80007574696F6E3A200A2553204D3335302026
:101A900058256420592564205A2564204525640A68
:101AA00025534D6178696D756D2066656564726159
:101AB000746573202D206E6F726D616C20286D6DC2
:101AC0002F73293A0A255320204D323033205825D0
:101AD0002E32662059252E3266205A252E32662057
:101AE00045252E32660A25534D6178696D756D2046
:101AF000666565647261746573202D207374656119
:101B00006C746820286D6D2F73293A0A25532020A4
:101B10004D3230332058252E32662059252E32661C
:101B2000205A252E32662045252E32660A25534D31
:101B30006178696D756D20616363656C6572617450
:101B4000696F6E202D206E6F726D616C20286D6D37
:101B50002F7332293A0A255320204D323031205834
:101B6000256C752059256C75205A256C75204525E6
:101B70006C750A25534D6178696D756D20616363DD
:101B8000656C65726174696F6E202D207374656178
:101B90006C746820286D6D2F7332293A0A25532002
:101BA000204D3230312058256C752059256C752018
:101BB0005A256C752045256C750A2553416363656C
:101BC0006C65726174696F6E3A20503D7072696E17
:101BD000742C20523D726574726163742C20543DE4
:101BE00074726176656C0A255320204D32303420A2
:101BF00050252E32662052252E32662054252E3254
:101C0000660A2553416476616E636564207661726D
:101C10006961626C65733A20533D4D696E2066655B
:101C200065647261746520286D6D2F73292C2054B2
:101C30003D4D696E2074726176656C2066656564E1
:101C40007261746520286D6D2F73292C20423D6DC3
:101C5000696E696D756D207365676D656E7420744E
:101C6000696D6520287573292C20583D6D61786950
:101C70006D756D205859206A65726B20286D6D2F27
:101C800073292C20205A3D6D6178696D756D205A3D
:101C9000206A65726B20286D6D2F73292C202045DA
:101CA0003D6D6178696D756D2045206A65726B20A8
:101CB000286D6D2F73290A255320204D3230352091
:101CC00053252E32662054252E32662042256C750F
:101CD0002058252E32662059252E3266205A252E70
:101CE00032662045252E32660A2553486F6D6520E1
:101CF0006F666673657420286D6D293A0A25532036
:101D0000204D3230362058252E32662059252E326D
:101D100066205A252E32660A00544D3A20525B2521
:101D2000755D20657374696D6174652E00544D3A5C
:101D300020255320522025644300544D3A2025533A
:101D40002043206573742E00544D3A20636F6F6CEE
:101D500020646F776E203C25644300726566696E6F
:101D60006500696E697469616C00544D3A20636165
:101D70006C6962722E206661696C65642100544D45
:101D80003A2063616C6962726174696F6E2073746A
:101D900061727400544D3A2043616C2E204E4F54B2
:101DA0002049444C45004361703A25533A25630A63
:101DB0000050525553415F4D4D55320045585445E2
:101DC0004E4445445F4D3230004155544F524550CA
:101DD0004F52545F504F534954494F4E0041555450
:101DE0004F5245504F52545F46414E530041555457
:101DF0004F5245504F52545F54454D50000044657A
:101E00006C6574696F6E206661696C65642C204630
:101E1000696C653A200046696C652064656C657480
:101E200065643A004E6F74205344207072696E747A
:101E3000696E67005072696E742073617665640024
:101E40005344207072696E7420706175736564000C
:101E50002533642F253364004F4B00424144005228
:101E6000414D426F2046414E2000667600746878EE
:101E70000050524E0043524153485F43414E434548
:101E80004C0043524153485F5245434F5645520020
:101E900043524153485F5245434F56455200222812
:101EA00032290025533A2025530A002C204D393081
:101EB0003720452069676E6F726564006E6F20760B
:101EC000616C696420636F6D6D616E64007A657228
:101ED0006F72697A656400666163746F72792072EB
:101EE0006573746F72656400696E6465782C207424
:101EF000656D702C2075737465702C20756D0050A5
:101F0000494E44412063616C207374617475733A67
:101F10002000503A005761697420666F7220504962
:101F20004E4441207461726765742074656D7065FC
:101F30007261747572653A002041002050002042A1
:101F400000204C00205200205A00204E4F542049BF
:101F50004E495449414C495A45440053686565749B
:101F60002000205A2056414C5545204F5554204FB3
:101F7000462052414E474500496E76616C696420A7
:101F800073686565742049442E20416C6C6F7765D9
:101F9000643A20302E2E004155544F004C414E479C
:101FA0002053454C20464F524345440020643A009C
:101FB00020693A0020703A0020643A0020693A0013
:101FC00020703A00256925250A00256925250A0083
:101FD00022283129002F2F00002045585452554403
:101FE00045525F434F554E543A3100204D414348CE
:101FF000494E455F545950453A00312E3000206219
:1020000061736564206F6E204D61726C696E20464D
:1020100049524D574152455F55524C3A687474705D
:10202000733A2F2F6769746875622E636F6D2F7016
:102030007275736133642F50727573612D466972C6
:102040006D776172652050524F544F434F4C5F562D
:10205000455253494F4E3A00313635353266376274
:1020600064005F0038323530002B004649524D572E
:102070004152455F4E414D453A50727573612D4650
:1020800069726D7761726520004D313133205300E4
:102090006F6B200020636D2E00206D696E20005351
:1020A0005441545320006E2F61003F546F73686990
:1020B000626120466C6173684169722047657449AA
:1020C00050206661696C65640A00000125311D0CB1
:1020D0004024301C0B45232F1B0A17FF0406222B1C
:1020E0001A03363735382569206D696E2C2025692D
:1020F0002073656300496E76616C6964204D2063CE
:102100006F64653A2025730A0050494E444120709F
:10211000726F62652063616C6962726174696F6E6F
:10212000207374617274004E6F2050494E444120F8
:10213000746865726D6973746F7200736574006E94
:102140006F7A7A6C65004D424C004652004C7A0022
:102150004C616E6700315F37356D6D5F4D4B3353AA
:102160002D45494E53795F3130612D4533445245F9
:10217000564F0052657600332E31342E312D3832D1
:1021800035300046697200534E20696E76616C6985
:102190006400534E005245534554004D4D55524531
:1021A000530075766C6F0046414E0046414E5049D3
:1021B0004E545354005052555341005345545F43BD
:1021C000484F505F005345545F535445505F005390
:1021D00045545F574156455F00544D435F0043529D
:1021E0004153485F43414E43454C0043524153489D
:1021F0005F5245434F5645520043524153485F4456
:10220000455445435445440043524153485F0047B9
:102210003120583130205931383020463430303078
:10222000004731205A3130204631333030004D31B3
:102230003430205330004D3130342053300047319A
:1022400020452D302E303735204632313030004792
:1022500031204634303030004D323034205331306C
:102260003030004731205A35204637323030004771
:102270003120452D312E352046323130300047395E
:102280003000473120583520453420463130303039
:10229000004731205A302E3220463130303000474E
:1022A0003120583535204532352046313430300024
:1022B000473120592D32204631303030004731200F
:1022C000583234302045323520204632323030000A
:1022D0004731205A302E33204631303030004731DC
:1022E00020583535204538204632303030004731CF
:1022F00020583520453239204631383030004731BA
:1023000020583535204532392046313037330047A3
:10231000393220453000473238004D313039004DD8
:10232000313930004D3130370048426564206F6EDE
:10233000206C6F616400466C61736841697200547F
:102340006865726D616C204D6F64656C2063616CB3
:102350002E004572723A5052494E542046414E204A
:102360004552524F52004572723A484F54454E44BE
:102370002046414E204552524F52002F2F61637428
:10238000696F6E3A726573756D6564002F2F6163B6
:1023900074696F6E3A726573756D65002F2F616396
:1023A00074696F6E3A7265616479002F2F6163748E
:1023B000696F6E3A6E6F745F7265616479002F2F7A
:1023C000616374696F6E3A63616E63656C00417836
:1023D0006973206C656E67746820646966666572EF
:1023E000656E63653A252E33660A004D6561737527
:1023F0007265642061786973206C656E6774683AF1
:10240000252E33660A004F4B004C43442073746101
:10241000747573206368616E67656400534420635C
:102420006172642072656C65617365640046616BFE
:10243000652073657269616C206E756D62657200EE
:10244000452D636F6F6C206D6F646500414C544681
:10245000414E206465742E002F2F616374696F6E86
:102460003A7374617274004D3834004D3730320065
:102470004D3833004732382057004D353030004555
:10248000787465726E616C2053504920666C61737C
:10249000680A58464C415348206973206E6F742077
:1024A0007265732D0A706F6E64696E672E204C61C1
:1024B0006E67756167650A73776974636820756E06
:1024C000617661696C61626C652E0058464C4153BF
:1024D00048206E6F7420726573706F6E64696E67EA
:1024E0002E004657206372617368206465746563CB
:1024F0007465642120596F752063616E20636F6E6F
:1025000074696E7565207072696E74696E672E20CD
:102510004465627567206461746120617661696CED
:1025200061626C6520666F7220616E616C7973699F
:10253000732E20436F6E7461637420737570706FB7
:10254000727420746F207375626D69742064657491
:1025500061696C732E002F2F616374696F6E3A642A
:10256000756D705F617661696C61626C6500437264
:102570006173684465746563742044495341424CF7
:102580004544004372617368446574656374204513
:102590004E41424C45442100486F74656E6420668C
:1025A000616E20747970653A20002020506C616E55
:1025B0006E657242756666657242797465733A201B
:1025C000002046726565204D656D6F72793A200076
:1025D000207C20417574686F723A2000204C617332
:1025E0007420557064617465643A200020536F66EE
:1025F0007477617265205265736574002057617449
:102600006368646F67205265736574002042726F5F
:10261000776E206F7574205265736574002045785D
:102620007465726E616C20526573657400506F77CB
:1026300065725570006572726F7220777269746985
:102640006E6720746F2066696C6500446F6E65204C
:10265000736176696E672066696C652E006F6B002A
:1026600046696C616D656E74004D65617375726568
:102670006420736B6577733A2025662025660A000F
:1026800046697474696E67206661696C6564203D93
:102690003E2063616C6962726174696F6E2066616D
:1026A000696C65642E0A0043616C696272617469C9
:1026B0006F6E20737563636573732E0A00416C6CD3
:1026C00020342063616C6962726174696F6E20707E
:1026D0006F696E747320666F756E642E0A00312FF9
:1026E0003400312F3400312F39001000C90210019D
:1026F0002C014001220170011801B0010E01F0010E
:1027000004015002FA00B002F0003003E600D003EA
:10271000DC009004D2007005C800A006BE000008CE
:10272000B400B009AA00D00BA000600E96006011A2
:102730008C000015820020197800C01D6E00A022B8
:102740006400B0275A00902C500000314600E0345D
:102750003C0010383200903A2800603C1E00A03D3A
:102760001400803E0A00203F000058595A2063613F
:102770006C6962726174696F6E20616C6C20726941
:102780006768742E20536B65772077696C6C2062C4
:102790006520636F72726563746564206175746F20
:1027A0006D61746963616C6C792E0058595A2063AD
:1027B000616C6962726174696F6E20616C6C207209
:1027C000696768742E20582F5920617865732061DD
:1027D000726520736C696768746C7920736B6577B8
:1027E00065642E20476F6F64206A6F62210058591C
:1027F0005A2063616C6962726174696F6E206F6BDD
:102800002E20582F592061786573206172652070E1
:10281000657270656E646963756C61722E20436FBA
:102820006E67726174756C6174696F6E73210043B9
:102830006865636B7300416C706861626574005415
:10284000696D6500536F7274005344206361726454
:102850000052506920706F7274004C696E2E2063B4
:102860006F7272656374696F6E004E6F7A7A6C6511
:10287000206368616E676500485720536574757002
:10288000004C6F6164696E6720546573740044691D
:102890007361626C65207374657070657273004D4E
:1028A0006F766520617869730054656D706572613B
:1028B000747572650050494E44412063616C2E006E
:1028C00052657365742058595A2063616C6962724D
:1028D0002E005049442063616C6962726174696FB3
:1028E0006E00426564206C6576656C20636F727261
:1028F000656374004D65736820426564204C65769D
:10290000656C696E670043616C6962726174652011
:102910005A0043616C6962726174652058595A00AB
:1029200053656C66746573740042656C74207465DD
:1029300073740057697A617264004C6F616420415E
:102940006C6C00506C656173652070756C6C206FE9
:1029500075742066696C616D656E7420696D6D6556
:1029600064696174656C79005265736574005265C1
:102970006E616D65004669727374206C6179657271
:102980002063616C2E0053656C656374005374653D
:10299000656C2073686565747300537570706F7231
:1029A00074004661696C207374617473204D4D55D9
:1029B000004661696C2073746174730053746174B0
:1029C0006973746963730043616C696272617469ED
:1029D0006F6E004175746F4C6F61642066696C6145
:1029E0006D656E74004C6F61642066696C616D6525
:1029F0006E7400556E6C6F61642066696C616D6504
:102A00006E74004C6F616420746F206E6F7A7A6C04
:102A100065005072656C6F616420746F204D4D5578
:102A2000004E6F7A7A6C6520642E004E6F205344FE
:102A30002063617264005072696E742066726F6DFB
:102A400020534400436C65617220544D20657272BE
:102A50006F7200526573756D65207072696E7400D7
:102A60005061757365207072696E740053657420CF
:102A7000526561647900536574206E6F74205265ED
:102A800061647900507265686561740054756E65A3
:102A9000004C6976652061646A757374205A00522F
:102AA000657072696E7400496E666F20736372653B
:102AB000656E004272696768746E65737300417376
:102AC000736973740053696C656E74004F6E63654F
:102AD000004C6F756400536F756E640046696C2E10
:102AE0002073656E736F72004368616E6765206660
:102AF000696C616D656E7400466C6F77005370652C
:102B00006564004E2F41004D61676E6574732063EC
:102B10006F6D702E005A2D70726F6265206E722E6E
:102B2000004D6573680044696D004272696768749E
:102B3000004175746F0054696D656F7574004C6564
:102B400076656C2044696D6D6564004C6576656CD6
:102B5000204272696768740053657474696E6773A4
:102B60000053746F70207072696E740043686563FF
:102B70006B696E672066696C650046696C652069E3
:102B80006E636F6D706C6574652E20436F6E746933
:102B90006E756520616E797761793F008452656654
:102BA00072657368004D61696E00496E7365727479
:102BB000207468652066696C616D656E7420286498
:102BC0006F206E6F74206C6F6164206974292069B6
:102BD0006E746F20746865206578747275646572B0
:102BE00020616E64207468656E2070726573732056
:102BF000746865206B6E6F622E0053656E736F7222
:102C00002076657269666965642C2072656D6F76E1
:102C100065207468652066696C616D656E74206EF0
:102C20006F772E00566572696669636174696F6EAD
:102C3000206661696C65642C2072656D6F76652015
:102C40007468652066696C616D656E7420616E6480
:102C50002074727920616761696E2E00506C656125
:102C6000736520636865636B207468652049522032
:102C700073656E736F7220636F6E6E656374696FD8
:102C80006E2C20756E6C6F61642066696C616D6579
:102C90006E742069662070726573656E742E0050C4
:102CA0006C6561736520756E6C6F61642074686516
:102CB0002066696C616D656E742066697273742C30
:102CC000207468656E20726570656174207468692F
:102CD0007320616374696F6E2E0057616974696E49
:102CE0006720666F72206E6F7A7A6C6520616E6401
:102CF0002062656420636F6F6C696E670053656C5A
:102D00006674657374204F4B0053656C667465730D
:102D100074207374617274005072696E74206661FD
:102D20006E3A00486F74656E642066616E3A0043C7
:102D3000616C6962726174696E6720686F6D6500AD
:102D4000416C6C20636F72726563740043686563E5
:102D50006B696E672073656E736F7273004368658D
:102D6000636B696E6720686F74656E6400436865A5
:102D7000636B696E672062656400436865636B69B5
:102D80006E67205A206178697300436865636B69D8
:102D90006E672059206178697300436865636B69C9
:102DA0006E672058206178697300436865636B69BA
:102DB0006E6720656E6473746F7073004361726434
:102DC0002072656D6F766564004261636B005374B9
:102DD00065616C7468004372617368206465742E69
:102DE000004E6F726D616C004D6F646500537472BC
:102DF000696374005761726E004E6F6E65004E6FAE
:102E00007A7A6C65206368616E6765643F004E6F17
:102E10007A7A6C6520697320686F74212057616924
:102E20007420666F7220636F6F6C646F776E2E0014
:102E30005049442063616C2E2066696E6973686531
:102E400064005049442063616C2E005072696E74B6
:102E500020706175736564005072696E74206162E0
:102E60006F72746564004E6F7A7A6C652064696174
:102E70006D6574657220646966666572732066723A
:102E80006F6D2074686520472D636F64652E205038
:102E90006C6561736520636865636B207468652089
:102EA00076616C756520696E2073657474696E67F0
:102EB000732E205072696E742063616E63656C6C52
:102EC00065642E004E6F7A7A6C65206469616D6569
:102ED00074657220646966666572732066726F6DD0
:102EE0002074686520472D636F64652E20436F6EE4
:102EF00074696E75653F005468657265206973205A
:102F00006E6F2066696C616D656E74206C6F6164B4
:102F100065642E205072696E742063616E63656C07
:102F20006C65642E005468657265206973206E6F4D
:102F30002066696C616D656E74206C6F6164656498
:102F40002E20436F6E74696E75653F004D4B335391
:102F5000206669726D77617265206465746563745B
:102F60006564206F6E204D4B33207072696E7465FE
:102F70007200426C61636B6F7574206F636375726E
:102F80007265642E205265636F7665722070726977
:102F90006E743F00546865726D616C206D6F64657E
:102FA0006C206E6F742063616C6962726174656419
:102FB000207965742E0054686572652069732073EA
:102FC00074696C6C2061206E65656420746F206D7F
:102FD000616B65205A2063616C6962726174696F0C
:102FE0006E2E20506C6561736520666F6C6C6F7718
:102FF00020746865206D616E75616C2C206368615A
:10300000707465722046697273742073746570738E
:103010002C2073656374696F6E2043616C69627202
:103020006174696F6E20666C6F772E005072696EE6
:1030300074657220686173206E6F74206265656EBE
:103040002063616C69627261746564207965742EB5
:1030500020506C6561736520666F6C6C6F772074AF
:103060006865206D616E75616C2C20636861707499
:1030700065722046697273742073746570732C20B6
:1030800073656374696F6E2043616C696272617409
:10309000696F6E20666C6F772E0053656C66746581
:1030A00073742077696C6C2062652072756E207471
:1030B0006F2063616C69627261746520616363751E
:1030C000726174652073656E736F726C65737320C3
:1030D0007265686F6D696E672E004F6C6420736552
:1030E0007474696E677320666F756E642E20446514
:1030F0006661756C74205049442C2045737465706A
:1031000073206574632E2077696C6C206265207370
:1031100065742E005761726E696E673A20626F7433
:1031200068207072696E74657220747970652061B0
:103130006E64206D6F74686572626F617264207472
:10314000797065206368616E6765642E00576172EF
:103150006E696E673A207072696E74657220747958
:103160007065206368616E6765642E005761726EDA
:10317000696E673A206D6F74686572626F61726420
:103180002074797065206368616E6765642E0054F1
:10319000657374696E672066696C616D656E740035
:1031A0005368656574004E6F74207370696E6E6944
:1031B0006E67005370696E6E696E670046616E20BF
:1031C000746573740053656C66746573742066610E
:1031D000696C6564002573206C6576656C20657884
:1031E0007065637465640046616C73652074726910
:1031F00067676572696E670046696C616D656E74BC
:103200002073656E736F7200537761707065640030
:1032100046726F6E742F6C6566742066616E730003
:10322000417869730041786973206C656E677468D2
:10323000004C6F6F73652070756C6C6579004C6520
:10324000667420686F74656E642066616E3F004628
:10325000726F6E74207072696E742066616E3F00CA
:10326000456E6473746F70206E6F742068697400AB
:10327000456E6473746F70004D6F746F7200456EAD
:103280006473746F707300576972696E672065723A
:10329000726F72004265642F486561746572004EFA
:1032A0006F7420636F6E6E6563746564004865615A
:1032B0007465722F546865726D6973746F72005013
:1032C0006C6561736520636865636B3A0053656C78
:1032D0006674657374206572726F72210053656C39
:1032E0006563742066696C616D656E743A00585947
:1032F0005A2063616C6962726174696F6E206661E5
:10330000696C65642E2052696768742066726F6EFE
:10331000742063616C6962726174696F6E20706F92
:10332000696E74206E6F7420726561636861626C8F
:10333000652E0058595A2063616C69627261746924
:103340006F6E206661696C65642E2046726F6E74C4
:103350002063616C6962726174696F6E20706F695D
:103360006E7473206E6F7420726561636861626C45
:10337000652E0058595A2063616C696272617469E4
:103380006F6E206661696C65642E20506C65617398
:103390006520636F6E73756C7420746865206D6151
:1033A0006E75616C2E0058595A2063616C696272A7
:1033B0006174696F6E20636F6D70726F6D69736594
:1033C000642E2052696768742066726F6E74206381
:1033D000616C6962726174696F6E20706F696E747E
:1033E000206E6F7420726561636861626C652E0087
:1033F00058595A2063616C6962726174696F6E20FA
:10340000636F6D70726F6D697365642E2046726FA5
:103410006E742063616C6962726174696F6E207092
:103420006F696E7473206E6F74207265616368617A
:10343000626C652E0058595A2063616C6962726132
:1034400074696F6E206661696C65642E20426564E4
:103450002063616C6962726174696F6E20706F695C
:103460006E7420776173206E6F7420666F756E6462
:103470002E00506C656173652072656D6F766520F6
:10348000737465656C2073686565742066726F6D12
:1034900020686561746265642E00506C65617365B7
:1034A00020706C61636520737465656C207368655A
:1034B0006574206F6E20686561746265642E0049D2
:1034C0007320737465656C207368656574206F6E16
:1034D00020686561746265643F0044697374616E5D
:1034E0006365206265747765656E20746970206F0E
:1034F0006620746865206E6F7A7A6C6520616E64F0
:103500002074686520626564207375726661636506
:1035100020686173206E6F74206265656E2073652C
:1035200074207965742E20506C6561736520666F18
:103530006C6C6F7720746865206D616E75616C2CA2
:1035400020636861707465722046697273742073B9
:10355000746570732C2073656374696F6E2046699F
:10356000727374206C617965722063616C69627238
:103570006174696F6E2E00506C6163652061207309
:1035800068656574206F6620706170657220756E65
:1035900064657220746865206E6F7A7A6C65206449
:1035A0007572696E67207468652063616C69627208
:1035B0006174696F6E206F6620666972737420345F
:1035C00020706F696E74732E2049662074686520C0
:1035D0006E6F7A7A6C6520636174636865732074BA
:1035E00068652070617065722C20706F776572203D
:1035F0006F666620746865207072696E74657220EB
:10360000696D6D6564696174656C792E00536561DF
:10361000726368696E67206265642063616C6962C9
:10362000726174696F6E20706F696E74004D6561B0
:10363000737572696E67207265666572656E636523
:1036400020686569676874206F662063616C6962D1
:10365000726174696F6E20706F696E7400506C6572
:1036600061736520636C65616E20746865206E6FA0
:103670007A7A6C6520666F722063616C6962726130
:1036800074696F6E2E20436C69636B207768656E7A
:1036900020646F6E652E004175746F20686F6D65D4
:1036A000004578706572696D656E74616C00467373
:1036B000656E736F7220446574656374696F6E0024
:1036C000302E383000302E363000302E343000307E
:1036D0002E32350044697361626C65206661726DDB
:1036E000206D6F6465005265736574204D4D550003
:1036F0004D4D55004D3434004739390044697361EC
:10370000626C65206661726D206D6F64653F00308C
:103710002E383000302E363000302E343000302E2F
:10372000323500473238205859004D203834008552
:103730002E2E00593A202575202D3E202E2E2E00AB
:10374000583A202575202D3E202E2E2E0046696CDD
:10375000616D656E742073656E736F7220626F6148
:103760007264206368616E67652064657465637464
:1037700065643A207265766973696F6E25530A0035
:103780004D656173757265642066696C616D656E07
:10379000742073656E736F72206C6F77206C657622
:1037A000656C3A2025342E3266560A004D656173E9
:1037B000757265642066696C616D656E74207365F1
:1037C0006E736F722068696768206C6576656C3A05
:1037D0002025342E3266560A002533642F3000250A
:1037E00033642F300025632041584953205347311B
:1037F0003D25640A00486F74656E6400426564008C
:103800005A00590058002D2D2D2D2D2D2D2D2D2DEB
:103810002D2D2D2D2D2D2D2D2D2D00435A50584958
:103820006E76616C696453657269616C4E72004DAD
:10383000393134004D3931350024233E2236222ED1
:103840002221220F22473120582564205925642047
:1038500045252D2E35660047312046313038300061
:103860004731205A252D2E3366204637323030001E
:103870004731205835302059313535000F237E220D
:1038800070246F22632258224F224731205825642A
:103890002045252D2E336620463130303000FE2263
:1038A000EE22DE22D0220F23BD22B0229F229122BF
:1038B0008222542564004731205A302E342046316C
:1038C00030303000473120592D33204631303030F0
:1038D0000024231F231A2316230F234D3834205886
:1038E000590047312058313235205A323030204685
:1038F00031303030004D33313020412046310047E7
:103900003120583132352059313035205A31204656
:103910003830303000496E76616C6964205049441B
:103920002063616C2E20726573756C74732E204E4B
:103930006F742073746F72656420746F20454550F6
:10394000524F4D2E004D3330312050252E326620FF
:1039500049252E32662044252E3266004D33303301
:10396000204530205325337500524300444556000E
:103970004245544100414C50484100000021002480
:103980000027002A002D0030003300010100000450
:103990000107010A0100002200250028002B002E4B
:1039A000003100340002010000050108010B010094
:1039B0000020002300260029002C002F00320000E8
:1039C00001000003010601090105050505070508B9
:1039D000080808020202020A0A0808040404040192
:1039E00001010101010101030303030303030304B4
:1039F0000707070C0C0C0C0C0C0C0C020202020644
:103A0000060606060606060B0B0B0B0B0B0B0B072D
:103A1000070A0A0A0A0A0A05050504040408080137
:103A200002102020080810204010204080020102CF
:103A30000108040201010204081020408080402097
:103A400010080402018004020180402010080402D2
:103A50000108040201010204081020408001020450
:103A60000810204080100804088010204004408086
:103A7000102040048000000A0B02090C0D0E0807FC
:103A8000030401000000000000000000000000002E
:103A90000000000000000000000000000000000026
:103AA00000121110000000000000000000000000E3
:103AB0000000000000000000000000000000000006
:103AC0000000000000000000000000332E31342E02
:103AD00031000A204F726967696E616C20507275FF
:103AE00073612069330A202020507275736120525F
:103AF000657365617263680A2532302E3230530077
:103B0000435A5058003B530053706F6F6C4A6F69B3
:103B10006E20697320006164635F696E69740020C0
:103B20000A200A200A2000416C6C20446174610064
:103B300053657276696365207072657000536869B9
:103B40007070696E6720707265700053746174697B
:103B50007374696373004C616E67756167650045D6
:103B6000524153494E4720616C6C2064617461007E
:103B7000466163746F727920524553455400505228
:103B80005553413344465700494E54340003000E08
:103B9000000100400003000200000004004E4F43FB
:103BA00054554100414C5446414E00556E6B6E6F6A
:103BB000776E00323032362D30342D3234203039A9
:103BC0003A35313A35370020332E31342E312D3805
:103BD0003235305F313635353266376264007374A2
:103BE00061727400534E2075706461746520666163
:103BF000696C656400534E2075706461746564007F
:103C0000435A50580043524153485F44455445433A
:103C100054454458590043524153485F4445544524
:103C200043544544590043524153485F4445544529
:103C30004354454458004D323900252D392E39530F
:103C40005B00544D20657374696D6174696F6E20FB
:103C5000646964206E6F7420636F6E766572676549
:103C600000544D20697465723A257520763A252EE8
:103C7000326620653A252E33660A00333329420026
:103C80000058419A998D4133335340200A200A202D
:103C9000004D4D55323A004D656173757265206374
:103CA000656E74657220200078797A63616C5F6D4F
:103CB0006561737572655F656E7465720A00787907
:103CC0007A63616C5F73706972616C382063783DF0
:103CD00025642063793D2564207A303D2564206485
:103CE0007A3D2564207261646975733D25642061A5
:103CF000643D25640A0078797A63616C5F7365615D
:103D00007263685A206E6F207369676E616C0A2057
:103D1000783D256C6420793D256C64207A3D256CC6
:103D2000640A00204F4E2D5349474E414C20617488
:103D300020783D256420793D2564207A3D25642046
:103D400061643D25640A0078797A63616C5F73650C
:103D5000617263685A20783D256C6420793D256C3A
:103D600064207A3D256C640A002530327800205B9F
:103D700025662025665D206D6D2070617474657206
:103D80006E2063656E7465720A00205B25662025CF
:103D9000665D5B25665D206D6D2064697665726782
:103DA000656E63650A000000F000F801FC03FE0781
:103DB000FE07FE07FE07FC03F801F000000000000C
:103DC0000000F000F801FC03FC03FC03FC03F80115
:103DD000F0000000000078797A63616C5F6D6561C6
:103DE000737572655F6C656176650A00203C200022
:103DF0005741524E494E473A2046726F6E742070BA
:103E00006F696E74206E6F742072656163686162A1
:103E10006C652E205920636F6F7264696E617465E2
:103E20003A0000000040410000C04000005C430038
:103E300000C04000005C43000046430000404100D9
:103E400000464325642F3400497465726174696FBC
:103E50006E3A200043616C6962726174696F6E2012
:103E60006661696C65642120436865636B207468D2
:103E700065206178657320616E642072756E2061C3
:103E80006761696E2E004D494E54454D50204245A4
:103E900044206669786564004D494E54454D502074
:103EA000484F54454E442066697865640024F4D434
:103EB0003050C38E20C2A24017828B7011127A91AB
:103EC0000D816CD90AA861E108C7586607615143A2
:103ED000061E4B5D05C145A7041A411104093D9812
:103EE00003713931034036DB0265339102D430541B
:103EF00002802E1D02632CEE01752AC501B028A098
:103F000001102781018F2564012B244B01E022340D
:103F100001AC211F018D200D01801FFC00841EEDCE
:103F200000971DDF00B81CD200E61BC600201BBC9A
:103F300000641AB200B219A8000A19A0006A189900
:103F400000D117910040178B00B516840031167E02
:103F500000B31579003A157300C7146F0058146A3E
:103F600000EE1366008813630025135E00C7125B22
:103F7000006C12570015125400C111510070114FFE
:103F80000021114B00D61049008D10470046104407
:103F90000002104200C00F4000800F3E00420F3C64
:103FA00000060F3B00CB0E3800930E37005C0E3539
:103FB00000270E3400F30D3200C10D3100900D309A
:103FC00000600D2E00320D2D00050D2C00D90C2B9C
:103FD00000AE0C2900850C29005C0C2700350C274D
:103FE000000E0C2600E80B2400C40B2400A00B23B9
:103FF000007D0B23005A0B2100390B2100180B20E8
:1040000000F80A1F00D90A1E00BB0A1E009D0A1DE7
:1040100000800A1D00630A1C00470A1B002C0A1BB3
:1040200000110A1A00F7091A00DD091900C409195C
:1040300000AB091900920917007B091800630917E2
:10404000004C09160036091600200916000A091549
:1040500000F5081500E0081400CC081400B8081496
:1040600000A4081400900813007D0812006B0813C8
:1040700000580812004608120034081100230811E5
:10408000001208110001081100F0071000E00710ED
:1040900000D0071000C0071000B0070F00A10710E4
:1040A0000091070E0083070F0074070F0065070ECD
:1040B0000057070E0049070E003B070D002E070EA4
:1040C0000020070D0013070D0006070D00F9060C70
:1040D00000ED060D00E0060C00D4060C00C8060C2E
:1040E00000BC060C00B0060C00A4060B0099060CE0
:1040F000008D060B0082060B0077060B006C060B8A
:104100000061060A0057060B004C060A0042060A28
:104110000038060A002E060A0024060A001A060ABB
:10412000001006090007060A00FD050900F405094C
:1041300000EB050900E2050900D9050900D00509D1
:1041400000C7050900BE050900B5050800AD050852
:1041500000A50509009C050800940508008C0508C9
:1041600000840508007C050800740508006C05073C
:1041700000650508005D050700560508004E0507A7
:10418000004705070040050800380507003105070E
:10419000002A050700230507001C05060016050771
:1041A000000F0507000805060002050700FB0406CE
:1041B00000F5040700EE040600E8040600E2040728
:1041C00000DB040600D5040600CF040600C904067F
:1041D00000C3040600BD040600B7040600B10405D0
:1041E00000AC040600A6040600A00405009B04061B
:1041F0000095040500900406008A04050085040566
:1042000000800406007A04050075040500700405AA
:10421000006B04050066040500610405005C0405EC
:104220000057040500520405004D0405004804052C
:1042300000430405003E0404003A0405003504056B
:1042400000300404002C04050027040400230405A6
:10425000001E0404001A04040016040500110404DE
:10426000000D040400090405000404040000040413
:1042700000FC030400F8030400F4030400F003044A
:1042800000EC030400E8030400E4030400E003047A
:1042900000DC030400D8030400D4030400D00304AA
:1042A00000CC030400C8030300C503030024F40486
:1042B000D9201BC40C5C0E9804C4095F0265077109
:1042C00001F405F900FB04B30048048700C1036949
:1042D000005803550003034500BE023A0084023132
:1042E0000053022A002902250004022000E4011CD8
:1042F00000C8011900AF01170098011400840113D0
:1043000000710110006101100051010E0043010D08
:104310000036010B002B010B0020010B00150109D9
:10432000000C01090003010800FB000800F300086D
:1043300000EB000700E4000600DE000600D80006DF
:1043400000D2000600CC000500C7000500C2000531
:1043500000BD000400B9000400B5000400B1000471
:1043600000AD000400A9000400A5000300A20003A2
:10437000009F0004009B00030098000300950002CA
:104380000093000300900003008D0002008B0003E7
:104390000088000200860002008400030081000201
:1043A000007F0002007D0002007B00020079000215
:1043B0000077000100760002007400020072000124
:1043C00000710002006F0002006D0001006C00022D
:1043D000006A000100690002006700010066000138
:1043E000006500010064000200620001006100013C
:1043F00000600001005F0002005D0001005C000140
:10440000005B0001005A0001005900010058000142
:104410000057000100560001005500010054000142
:104420000053000000530001005200010051000140
:1044300000500001004F0001004E0000004E00013E
:10444000004D0001004C0001004B0000004B00013A
:10445000004A000100490001004800000048000136
:104460000047000100460000004600010045000032
:10447000004500010044000100430000004300012A
:104480000042000000420001004100000041000124
:1044900000400001003F0000003F0001003E00001E
:1044A000003E0001003D0000003D0001003C000016
:1044B000003C0000003C0001003B0000003B00010C
:1044C000003A0000003A0001003900000039000104
:1044D00000380000003800000038000100370000FC
:1044E00000370001003600000036000000360001F1
:1044F00000350000003500000035000100340000E8
:1045000000340000003400010033000000330000DC
:1045100000330001003200000032000000320001D0
:1045200000310000003100000031000100300000C7
:104530000030000000300001002F0000002F0000BC
:10454000002F0000002F0001002E0000002E0000B0
:10455000002E0001002D0000002D0000002D0000A5
:10456000002D0001002C0000002C0000002C000099
:10457000002C0001002B0000002B0000002B00008D
:10458000002B0001002A0000002A0000002A000081
:10459000002A000100290000002900000029000075
:1045A0000029000000290001002800000028000068
:1045B000002800000028000000280001002700005B
:1045C000002700000027000000270000002700014E
:1045D0000026000000260000002600000026000043
:1045E0000026000100250000002500000025000035
:1045F0000025000000250000002500010024000027
:104600000024000000240000002400000024000119
:10461000002300000023000000230000002300000E
:1046200000230000002300000023000100220000FE
:1046300000220000002200000022000000220000F2
:1046400000220001002100000021000000210000E4
:1046500000210000002100000021000000210001D5
:1046600000200000002000000020000000200000CA
:1046700000200000002000000020000000200001B9
:10468000001F0000001F0000001F0000001F0000AE
:10469000001F0000001F0000001F0001001E00009E
:1046A000001E0000001E0000001E000000504944D3
:1046B000204175746F74756E652066696E697368E4
:1046C0006564212050757420746865206C61737472
:1046D000204B702C204B6920616E64204B6420635A
:1046E0006F6E7374616E74732066726F6D20616299
:1046F0006F766520696E746F20436F6E66696775AB
:10470000726174696F6E2E6800504944204175745F
:104710006F74756E65206661696C656421207469CB
:104720006D656F75740020403A00543A00423A00BB
:10473000504944204175746F74756E6520666169D7
:104740006C6564212054656D706572617475726565
:1047500020746F6F206869676800204B643A2000FE
:10476000204B693A2000204B703A200020436C61B6
:10477000737369632050494420002054753A200027
:10478000204B753A2000206D61783A2000206D6939
:104790006E3A200020643A200020626961733A205A
:1047A00000504944204175746F74756E65207374B0
:1047B00061727400504944204175746F74756E6560
:1047C000206661696C65642E20426164206578749E
:1047D0007275646572206E756D6265722E00544D3F
:1047E0004C20256420256420257820256C78202500
:1047F0006C780A004D494E54454D50004D494E5479
:10480000454D5020424544004D494E54454D5020A1
:10481000414D42004D415854454D50004D41585472
:10482000454D5020424544004D415854454D50207F
:10483000414D4200544D3A206572726F7220636C94
:10484000656172656400544D3A206572726F722022
:104850007472696767657265642100544845524DFA
:10486000414C20414E4F4D414C5900526573756D7E
:10487000696E67207072696E740050494E44412021
:1048800048656174696E670043616C696272617446
:10489000696F6E20646F6E650043616C696272615E
:1048A00074696E67205A0042656420646F6E65000B
:1048B0004265642048656174696E6700486561748B
:1048C000696E6720646F6E652E0048656174696E5D
:1048D00067004D4D5520706F776572206661696C79
:1048E00073004D4D55206C6F6164206661696C7377
:1048F000004D4D55206661696C73004D61746572A1
:1049000069616C206368616E67657300546F7461E0
:104910006C206661696C75726573004372617368BF
:104920000046696C2E2072756E6F75747300506F3F
:10493000776572206661696C75726573004C61738E
:1049400074207072696E74206661696C757265732B
:1049500000546F74616C004C617374207072696EE6
:104960007400416D6269656E7400566F6C746167A6
:1049700065730054656D706572617475726573005E
:1049800042656C74207374617475730053656E7343
:104990006F7220696E666F00457874727564657217
:1049A00020696E666F0058595A2063616C2E20642E
:1049B000657461696C73005072696E746572204928
:1049C0005020416464723A00756E6B6E6F776E00B2
:1049D0004D4D5520636F6E6E656374656400446170
:1049E00074653A00746F20756E6C6F61642066693F
:1049F0006C616D656E7400746F206C6F616420660D
:104A0000696C616D656E74005072657373207468B3
:104A100065206B6E6F620050726568656174696EC7
:104A20006720746F206375740050726568656174E7
:104A3000696E6720746F20656A65637400507265E3
:104A400068656174696E6720746F20756E6C6F6144
:104A5000640050726568656174696E6720746F20C8
:104A60006C6F616400436F6F6C646F776E00456AB2
:104A70006563740046696C616D656E742065787459
:104A8000727564696E672026207769746820636F89
:104A9000727265637420636F6C6F723F004175744E
:104AA0006F6C6F6164696E672066696C616D656EBD
:104AB00074206973206163746976652C206A75734C
:104AC0007420707265737320746865206B6E6F62FA
:104AD00020616E6420696E736572742066696C6112
:104AE0006D656E742E2E2E005072696E742074697E
:104AF0006D650046696C616D656E742075736564E3
:104B000000546F74616C207072696E742074696DEA
:104B10006500546F74616C2066696C616D656E74BC
:104B2000005072656865617420746865206E6F7AE4
:104B30007A6C6521004552524F523A0052696768BB
:104B400074004C65667400592064697374616E6307
:104B5000652066726F6D206D696E005365766572B3
:104B60006520736B657700536C6967687420736B9D
:104B70006577004D6561737572656420736B657749
:104B8000005B303B305D20706F696E74206F66662D
:104B90007365740041646A757374696E67205A00A6
:104BA000526561722073696465205BE46D5D004647
:104BB000726F6E7420736964655BE46D5D005269A9
:104BC00067687420736964655BE46D5D004C6566BD
:104BD000742073696465205BE46D5D005365742027
:104BE00074656D70657261747572653A0050494EF6
:104BF00044412063616C6962726174696F6E206602
:104C000061696C65640050494E44412063616C6980
:104C100062726174696F6E2069732066696E697370
:104C200068656420616E64206163746976652E2016
:104C300049742063616E2062652064697361626CEF
:104C4000656420696E206D656E75205365747469A6
:104C50006E67732D3E50494E44412063616C2E00B7
:104C60004578747275646572004D6F7665205A00E0
:104C70004D6F76652059004D6F7665205800437260
:104C800061736820646574656374696F6E20636125
:104C90006E0A6265207475726E6564206F6E206F97
:104CA0006E6C7920696E0A4E6F726D616C206D6F4B
:104CB0006465005741524E494E473A0A4372617348
:104CC0006820646574656374696F6E0A64697361F2
:104CD000626C656420696E0A537465616C74682047
:104CE0006D6F6465004D6F6465206368616E676514
:104CF00020696E2070726F67726573732E2E2E009E
:104D0000536865657420252E37730A5A206F6666CE
:104D10007365743A20252B312E33666D6D0A256339
:104D2000436F6E74696E75650A25635265736574A9
:104D300000506C65617365206C6F61642066696CFE
:104D4000616D656E742066697273742E003E4361F6
:104D50006E63656C0052756E6E696E672057697A76
:104D60006172642077696C6C2064656C6574652081
:104D700063757272656E742063616C6962726174CE
:104D8000696F6E20726573756C747320616E642038
:104D900073746172742066726F6D2074686520622E
:104DA0006567696E6E696E672E20436F6E74696EFB
:104DB00075653F0050726568656174696E67206E45
:104DC0006F7A7A6C652E20506C656173652077610F
:104DD00069742E00506C6561736520696E7365722D
:104DE000742066696C616D656E7420696E746F20E5
:104DF0007468652065787472756465722C207468B7
:104E0000656E20707265737320746865206B6E6FB9
:104E10006220746F206C6F61642069742E00506C86
:104E20006561736520696E736572742066696C6173
:104E30006D656E7420696E746F2074686520666994
:104E40007273742074756265206F662074686520C3
:104E50004D4D552C207468656E20707265737320FB
:104E6000746865206B6E6F6220746F206C6F616474
:104E70002069742E005A2063616C696272617469E2
:104E80006F6E207265636F6D6D656E6465642E2054
:104E900052756E206974206E6F773F0054686520EC
:104EA0007072696E7465722077696C6C20737461BE
:104EB0007274207072696E74696E672061207A69FD
:104EC000672D7A6167206C696E652E20526F746160
:104ED000746520746865206B6E6F6220756E7469EE
:104EE0006C20796F75207265616368207468652035
:104EF0006F7074696D616C206865696768742E20D5
:104F0000436865636B2074686520706963747572AB
:104F1000657320696E207468652068616E64626FD5
:104F20006F6B202843616C6962726174696F6E20D7
:104F300063686170746572292E0053656C656374D3
:104F40002074656D7065726174757265207768692B
:104F50006368206D61746368657320796F75722072
:104F60006D6174657269616C2E0053656C65637464
:104F700020612066696C616D656E7420666F7220B9
:104F8000746865204669727374204C61796572207B
:104F900043616C6962726174696F6E20616E642036
:104FA00073656C65637420697420696E207468652C
:104FB000206F6E2D73637265656E206D656E752E44
:104FC000004E6F7720492077696C6C2063616C69B3
:104FD00062726174652064697374616E63652062D6
:104FE00065747765656E20746970206F66207468DB
:104FF00065206E6F7A7A6C6520616E6420686561E9
:105000007462656420737572666163652E00506C0E
:105010006561736520636865636B206F75722068D6
:10502000616E64626F6F6B20616E642066697820C8
:105030007468652070726F626C656D2E20546865AF
:105040006E20726573756D65207468652057697A86
:10505000617264206279207265626F6F74696E6735
:1050600020746865207072696E7465722E00416CE0
:105070006C20697320646F6E652E204861707079B2
:10508000207072696E74696E672100596F752063B4
:10509000616E20616C7761797320726573756D65DF
:1050A000207468652057697A6172642066726F6D3A
:1050B0002043616C6962726174696F6E202D3E20BD
:1050C00057697A6172642E00496620796F7520688D
:1050D000617665206164646974696F6E616C2073C8
:1050E0007465656C207368656574732C2063616CEE
:1050F0006962726174652074686569722070726596
:105100007365747320696E2053657474696E677378
:10511000202D204857205365747570202D2053741E
:1051200065656C207368656574732E00506C6561ED
:10513000736520636C65616E206865617462656487
:1051400020616E64207468656E20707265737320D0
:10515000746865206B6E6F622E00446F20796F75E6
:105160002077616E7420746F2072657065617420A1
:105170006C617374207374657020746F2072656144
:10518000646A7573742064697374616E6365206208
:1051900065747765656E206E6F7A7A6C6520616ED6
:1051A0006420686561746265643F0053656C656383
:1051B00074206E6F7A7A6C652070726568656174B0
:1051C0002074656D706572617475726520776869A9
:1051D0006368206D61746368657320796F757220F0
:1051E0006D6174657269616C2E0049732066696C2B
:1051F000616D656E74206C6F616465643F00546816
:1052000065726D616C206D6F64656C2063616C2EDE
:105210002074616B657320617070726F782E20311D
:1052200032206D696E732E205365650A7072757336
:10523000612E696F2F746D2D63616C004E6F772046
:10524000492077696C6C2070726568656174206EA6
:105250006F7A7A6C6520666F7220504C412E00493F
:105260002077696C6C2072756E207A2063616C699E
:1052700062726174696F6E206E6F772E004E6F7769
:105280002072656D6F76652074686520746573742F
:10529000207072696E742066726F6D20737465651C
:1052A0006C2073686565742E00506C6561736520B1
:1052B00072656D6F7665207368697070696E6720BE
:1052C00068656C706572732066697273742E00492C
:1052D0002077696C6C2072756E2078797A20636112
:1052E0006C6962726174696F6E206E6F772E2049EF
:1052F000742077696C6C2074616B65207570207404
:105300006F203234206D696E732E0046697273749B
:105310002C20492077696C6C2072756E207468654A
:105320002073656C667465737420746F20636865A0
:10533000636B206D6F737420636F6D6D6F6E206192
:105340007373656D626C792070726F626C656D73DA
:105350002E0048692C204920616D20796F757220DC
:105360004F726967696E616C205072757361206954
:1053700033207072696E7465722E20576F756C647D
:1053800020796F75206C696B65206D6520746F20C6
:10539000677569646520796F75207468726F7567C9
:1053A00068207468652073657475702070726F630F
:1053B0006573733F0048692C204920616D20796F27
:1053C0007572204F726967696E616C2050727573D7
:1053D00061206933207072696E7465722E204920D5
:1053E00077696C6C20677569646520796F752074C6
:1053F00068726F75676820612073686F72742073BC
:10540000657475702070726F636573732C20696E9C
:1054100020776869636820746865205A2D6178690F
:10542000732077696C6C2062652063616C696272BD
:10543000617465642E205468656E2C20796F752028
:1054400077696C6C20626520726561647920746F85
:10545000207072696E742E00452D636F72726563E1
:1054600074005A2D636F727265637400592D636FF7
:10547000727265637400582D636F72726563740095
:10548000506175736500436F6E742E004653204162
:105490006374696F6E00462E206175746F6C6F6166
:1054A0006400462E2072756E6F7574004D4D552048
:1054B0004D6F6465004375747465720046616E20BB
:1054C0007370656564004265640046616E732063B5
:1054D0006865636B004D6F64656C004E6F7A7A6C23
:1054E0006500544D3A206572726F72207C25667C8F
:1054F0003E25660A0070012C0190012701B00122AF
:1055000001C0011D01F00118011002130130020E4B
:10551000016002090190020401C002FF000003FAC9
:10552000004003F5008003F000D003EB002004E608
:10553000007004E100E004DC004005D700C005D2A3
:10554000004006CD00D006C8008007C3003008BE6A
:1055500000F008B900C009B400B00AAF00B00BAA4F
:1055600000D00CA500000EA000500F9B00C01096AC
:10557000005012910000148C00C0158700B01782F3
:1055800000B0197D00D01B7800001E730040206E13
:105590000090226900F024640040275F0090295A9F
:1055A00000E02B5500102E500020304B00103246EA
:1055B00000E033410090353C00103737007038323E
:1055C00000A0392D00B03A2800A03B2300603C1E0B
:1055D00000103D1900903D1400103E0F00703E0A6F
:1055E00000C03E0500003F000090137D00B015781C
:1055F00000F0177300601A6E00F01C6900A01F64B1
:105600000050225F0020255A00E0275500902A50C4
:1056100000202D4B00A02F4600F031410010343CFB
:1056200000F0353700A037320020392D00603A28CD
:1056300000703B2300603C1E00203D1900C03D145B
:1056400000403E0F00A03E0A00F03E0500403F0033
:1056500000703FFBFF903FF6FFB03FF1FFC03FEC13
:10566000FFD03FE7FFE03FE2FFF03FDDFFF03FD834
:10567000FF20484F54454E4420544845524D414C1C
:105680002052554E4157415900204845415442450A
:105690004420544845524D414C2052554E415741AB
:1056A0005900544845524D414C2052554E415741A6
:1056B000590042454420544845524D414C205255D2
:1056C0004E415741590020544845524D414C2052BB
:1056D000554E415741592028505245484541542084
:1056E000484F54454E44290020544845524D414CA2
:1056F0002052554E41574159202850524548454166
:10570000542048454154424544290050524548459B
:105710004154204552524F52004245442050524578
:1057200048454154204552524F52002074726967D7
:1057300067657265642100486561746572732073E2
:1057400077697463686564206F66662E20003A206E
:10575000004572723A200000FF0102010002FFFFC3
:10576000FE0001FE01FF00506C65617365207265EB
:10577000737461727400544D3A20696E76616C697D
:105780006420706172616D65746572732C20636151
:105790006E6E6F7420656E61626C6500255320200B
:1057A0004D3331302050252E32662055252E34665B
:1057B0002056252E32662043252E32662044252E83
:1057C0003466204C257520532575204225752045CB
:1057D000252E32662057252E32662054252E32661D
:1057E0000A00255320204D333130204925752052A1
:1057F000252E32660A00546865726D616C204D6F0B
:1058000064656C2073657474696E67733A006666CC
:10581000CA413333BF410000B441CDCC9C410000AC
:105820009841666692419A998D41CDCC88416666D1
:1058300086410000844166668241000080416666C0
:105840007E4133337B419A99794166667641452D95
:105850006D6F746F722063757272656E74207363FE
:10586000616C696E6720656E61626C656400010839
:1058700008010A0A011414011212746D63323133E3
:10588000305F686F6D655F656E74657228617865FD
:10589000735F6D61736B3D307825303278290A0073
:1058A000746D63323133305F686F6D655F65786941
:1058B0007420746D63323133305F73675F686F6D6E
:1058C000696E675F617865735F6D61736B3D30789A
:1058D000253032780A00544D4320445249564552EF
:1058E000204F56455254454D5000486F6C6420631C
:1058F000757272656E74207472756E63617465641E
:1059000020746F2052756E2063757272656E74001C
:1059100025632533642F256481005A25362E32668F
:105920002563005A2020202D2D2D2000862533644C
:105930002525002D2D2D2525002533642525002026
:105940005344002020200020484F002046524D2084
:10595000008725337568202563256300872530324D
:10596000753A2530327525632563002F2F616374E6
:10597000696F6E3A706175736564002F2F6163748F
:10598000696F6E3A70617573650044756D70206D56
:10599000656D6F72790068656C702E7072757361D9
:1059A00033642E636F6D00666F72756D2E70727545
:1059B000736133642E636F6D00707275736133644D
:1059C0002E636F6D004D3730310025533A0A253173
:1059D000382E32666D200A25533A0A2531306C6420
:1059E0006820253032646D202530326473002553E1
:1059F0003A0A2531382E32666D200A25533A0A2597
:105A000031306C6464202530326468202530326483
:105A10006D0025362E32666D6D0025530A25530A1A
:105A200025533A0A25533A0025332E326681002544
:105A30002D31342E3134533A0A25530A252D313471
:105A40002E3134533A25332E3266810A252D3134D6
:105A50002E3134533A25332E326681002020300017
:105A60002020310046494E44410050494E444100F7
:105A700057697A61726420656E642073746174651D
:105A80003A2025640A0053706F6F6C4A6F696E008C
:105A90004669726D7761726500726573756C74200A
:105AA00076616C75653A2025640A0020693D2532CF
:105AB0006420636E743D2532642076616C3D25322E
:105AC000640A00636C7573746572733A0020693DF3
:105AD00025326420737465703D2532640A00736F4B
